{
  "_format": "hh-sol-artifact-1",
  "contractName": "NFTickets",
  "sourceName": "contracts/NFTickets.sol",
  "abi": [
    {
      "inputs": [],
      "stateMutability": "nonpayable",
      "type": "constructor"
    },
    {
      "anonymous": false,
      "inputs": [
        {
          "indexed": true,
          "internalType": "address",
          "name": "owner",
          "type": "address"
        },
        {
          "indexed": true,
          "internalType": "address",
          "name": "approved",
          "type": "address"
        },
        {
          "indexed": true,
          "internalType": "uint256",
          "name": "tokenId",
          "type": "uint256"
        }
      ],
      "name": "Approval",
      "type": "event"
    },
    {
      "anonymous": false,
      "inputs": [
        {
          "indexed": true,
          "internalType": "address",
          "name": "owner",
          "type": "address"
        },
        {
          "indexed": true,
          "internalType": "address",
          "name": "operator",
          "type": "address"
        },
        {
          "indexed": false,
          "internalType": "bool",
          "name": "approved",
          "type": "bool"
        }
      ],
      "name": "ApprovalForAll",
      "type": "event"
    },
    {
      "anonymous": false,
      "inputs": [
        {
          "indexed": true,
          "internalType": "address",
          "name": "previousOwner",
          "type": "address"
        },
        {
          "indexed": true,
          "internalType": "address",
          "name": "newOwner",
          "type": "address"
        }
      ],
      "name": "OwnershipTransferred",
      "type": "event"
    },
    {
      "anonymous": false,
      "inputs": [
        {
          "indexed": true,
          "internalType": "address",
          "name": "from",
          "type": "address"
        },
        {
          "indexed": true,
          "internalType": "address",
          "name": "to",
          "type": "address"
        },
        {
          "indexed": true,
          "internalType": "uint256",
          "name": "tokenId",
          "type": "uint256"
        }
      ],
      "name": "Transfer",
      "type": "event"
    },
    {
      "anonymous": false,
      "inputs": [
        {
          "indexed": false,
          "internalType": "address",
          "name": "owner",
          "type": "address"
        },
        {
          "indexed": false,
          "internalType": "uint256",
          "name": "eventID",
          "type": "uint256"
        }
      ],
      "name": "eventInitialized",
      "type": "event"
    },
    {
      "anonymous": false,
      "inputs": [
        {
          "indexed": false,
          "internalType": "address",
          "name": "sender",
          "type": "address"
        },
        {
          "indexed": false,
          "internalType": "uint256",
          "name": "tokenId",
          "type": "uint256"
        }
      ],
      "name": "minted",
      "type": "event"
    },
    {
      "anonymous": false,
      "inputs": [
        {
          "indexed": false,
          "internalType": "uint256",
          "name": "eventID",
          "type": "uint256"
        }
      ],
      "name": "winnersNotPicked",
      "type": "event"
    },
    {
      "anonymous": false,
      "inputs": [
        {
          "indexed": false,
          "internalType": "uint256",
          "name": "eventID",
          "type": "uint256"
        },
        {
          "indexed": false,
          "internalType": "uint256[]",
          "name": "winningTokenIDs",
          "type": "uint256[]"
        }
      ],
      "name": "winnersPicked",
      "type": "event"
    },
    {
      "inputs": [
        {
          "internalType": "address",
          "name": "to",
          "type": "address"
        },
        {
          "internalType": "uint256",
          "name": "tokenId",
          "type": "uint256"
        }
      ],
      "name": "approve",
      "outputs": [],
      "stateMutability": "nonpayable",
      "type": "function"
    },
    {
      "inputs": [
        {
          "internalType": "address",
          "name": "owner",
          "type": "address"
        }
      ],
      "name": "balanceOf",
      "outputs": [
        {
          "internalType": "uint256",
          "name": "",
          "type": "uint256"
        }
      ],
      "stateMutability": "view",
      "type": "function"
    },
    {
      "inputs": [
        {
          "internalType": "uint256",
          "name": "",
          "type": "uint256"
        }
      ],
      "name": "events",
      "outputs": [
        {
          "internalType": "string",
          "name": "eventName",
          "type": "string"
        },
        {
          "internalType": "string",
          "name": "eventVendor",
          "type": "string"
        },
        {
          "internalType": "string",
          "name": "date",
          "type": "string"
        },
        {
          "internalType": "string",
          "name": "time",
          "type": "string"
        },
        {
          "internalType": "string",
          "name": "cid",
          "type": "string"
        },
        {
          "internalType": "uint256",
          "name": "ticketsMinted",
          "type": "uint256"
        },
        {
          "internalType": "uint256",
          "name": "maxCapacity",
          "type": "uint256"
        },
        {
          "internalType": "uint256",
          "name": "startingTokenID",
          "type": "uint256"
        },
        {
          "internalType": "address",
          "name": "eventOwner",
          "type": "address"
        }
      ],
      "stateMutability": "view",
      "type": "function"
    },
    {
      "inputs": [
        {
          "internalType": "uint256",
          "name": "tokenId",
          "type": "uint256"
        }
      ],
      "name": "getApproved",
      "outputs": [
        {
          "internalType": "address",
          "name": "",
          "type": "address"
        }
      ],
      "stateMutability": "view",
      "type": "function"
    },
    {
      "inputs": [],
      "name": "getRandomNumber",
      "outputs": [
        {
          "internalType": "bytes32",
          "name": "requestId",
          "type": "bytes32"
        }
      ],
      "stateMutability": "nonpayable",
      "type": "function"
    },
    {
      "inputs": [
        {
          "internalType": "string",
          "name": "eventName",
          "type": "string"
        },
        {
          "internalType": "string",
          "name": "eventVendor",
          "type": "string"
        },
        {
          "internalType": "string",
          "name": "date",
          "type": "string"
        },
        {
          "internalType": "string",
          "name": "time",
          "type": "string"
        },
        {
          "internalType": "string",
          "name": "cid",
          "type": "string"
        },
        {
          "internalType": "uint256",
          "name": "maxCapacity",
          "type": "uint256"
        }
      ],
      "name": "initEvent",
      "outputs": [
        {
          "internalType": "uint256",
          "name": "",
          "type": "uint256"
        }
      ],
      "stateMutability": "nonpayable",
      "type": "function"
    },
    {
      "inputs": [
        {
          "internalType": "address",
          "name": "owner",
          "type": "address"
        },
        {
          "internalType": "address",
          "name": "operator",
          "type": "address"
        }
      ],
      "name": "isApprovedForAll",
      "outputs": [
        {
          "internalType": "bool",
          "name": "",
          "type": "bool"
        }
      ],
      "stateMutability": "view",
      "type": "function"
    },
    {
      "inputs": [
        {
          "internalType": "uint256",
          "name": "eventID",
          "type": "uint256"
        }
      ],
      "name": "mintTicket",
      "outputs": [
        {
          "internalType": "uint256",
          "name": "",
          "type": "uint256"
        }
      ],
      "stateMutability": "payable",
      "type": "function"
    },
    {
      "inputs": [],
      "name": "name",
      "outputs": [
        {
          "internalType": "string",
          "name": "",
          "type": "string"
        }
      ],
      "stateMutability": "view",
      "type": "function"
    },
    {
      "inputs": [],
      "name": "owner",
      "outputs": [
        {
          "internalType": "address",
          "name": "",
          "type": "address"
        }
      ],
      "stateMutability": "view",
      "type": "function"
    },
    {
      "inputs": [
        {
          "internalType": "uint256",
          "name": "tokenId",
          "type": "uint256"
        }
      ],
      "name": "ownerOf",
      "outputs": [
        {
          "internalType": "address",
          "name": "",
          "type": "address"
        }
      ],
      "stateMutability": "view",
      "type": "function"
    },
    {
      "inputs": [
        {
          "internalType": "uint256",
          "name": "eventID",
          "type": "uint256"
        },
        {
          "internalType": "uint256",
          "name": "numberOfWinners",
          "type": "uint256"
        }
      ],
      "name": "pickWinners",
      "outputs": [],
      "stateMutability": "nonpayable",
      "type": "function"
    },
    {
      "inputs": [
        {
          "internalType": "bytes32",
          "name": "requestId",
          "type": "bytes32"
        },
        {
          "internalType": "uint256",
          "name": "randomness",
          "type": "uint256"
        }
      ],
      "name": "rawFulfillRandomness",
      "outputs": [],
      "stateMutability": "nonpayable",
      "type": "function"
    },
    {
      "inputs": [],
      "name": "renounceOwnership",
      "outputs": [],
      "stateMutability": "nonpayable",
      "type": "function"
    },
    {
      "inputs": [
        {
          "internalType": "address",
          "name": "from",
          "type": "address"
        },
        {
          "internalType": "address",
          "name": "to",
          "type": "address"
        },
        {
          "internalType": "uint256",
          "name": "tokenId",
          "type": "uint256"
        }
      ],
      "name": "safeTransferFrom",
      "outputs": [],
      "stateMutability": "nonpayable",
      "type": "function"
    },
    {
      "inputs": [
        {
          "internalType": "address",
          "name": "from",
          "type": "address"
        },
        {
          "internalType": "address",
          "name": "to",
          "type": "address"
        },
        {
          "internalType": "uint256",
          "name": "tokenId",
          "type": "uint256"
        },
        {
          "internalType": "bytes",
          "name": "_data",
          "type": "bytes"
        }
      ],
      "name": "safeTransferFrom",
      "outputs": [],
      "stateMutability": "nonpayable",
      "type": "function"
    },
    {
      "inputs": [
        {
          "internalType": "address",
          "name": "operator",
          "type": "address"
        },
        {
          "internalType": "bool",
          "name": "approved",
          "type": "bool"
        }
      ],
      "name": "setApprovalForAll",
      "outputs": [],
      "stateMutability": "nonpayable",
      "type": "function"
    },
    {
      "inputs": [
        {
          "internalType": "bytes4",
          "name": "interfaceId",
          "type": "bytes4"
        }
      ],
      "name": "supportsInterface",
      "outputs": [
        {
          "internalType": "bool",
          "name": "",
          "type": "bool"
        }
      ],
      "stateMutability": "view",
      "type": "function"
    },
    {
      "inputs": [],
      "name": "symbol",
      "outputs": [
        {
          "internalType": "string",
          "name": "",
          "type": "string"
        }
      ],
      "stateMutability": "view",
      "type": "function"
    },
    {
      "inputs": [
        {
          "internalType": "uint256",
          "name": "",
          "type": "uint256"
        }
      ],
      "name": "ticketMap",
      "outputs": [
        {
          "internalType": "address",
          "name": "",
          "type": "address"
        }
      ],
      "stateMutability": "view",
      "type": "function"
    },
    {
      "inputs": [
        {
          "internalType": "uint256",
          "name": "tokenId",
          "type": "uint256"
        }
      ],
      "name": "tokenURI",
      "outputs": [
        {
          "internalType": "string",
          "name": "",
          "type": "string"
        }
      ],
      "stateMutability": "view",
      "type": "function"
    },
    {
      "inputs": [
        {
          "internalType": "uint256",
          "name": "",
          "type": "uint256"
        }
      ],
      "name": "tokens",
      "outputs": [
        {
          "internalType": "address",
          "name": "owner",
          "type": "address"
        },
        {
          "internalType": "uint256",
          "name": "eventID",
          "type": "uint256"
        },
        {
          "internalType": "string",
          "name": "winner",
          "type": "string"
        }
      ],
      "stateMutability": "view",
      "type": "function"
    },
    {
      "inputs": [
        {
          "internalType": "address",
          "name": "from",
          "type": "address"
        },
        {
          "internalType": "address",
          "name": "to",
          "type": "address"
        },
        {
          "internalType": "uint256",
          "name": "tokenId",
          "type": "uint256"
        }
      ],
      "name": "transferFrom",
      "outputs": [],
      "stateMutability": "nonpayable",
      "type": "function"
    },
    {
      "inputs": [
        {
          "internalType": "address",
          "name": "newOwner",
          "type": "address"
        }
      ],
      "name": "transferOwnership",
      "outputs": [],
      "stateMutability": "nonpayable",
      "type": "function"
    }
  ],
  "bytecode": "0x60c06040523480156200001157600080fd5b50738c7382f9d8f56b33781fe506e897a4f1e2d1725573326c977e6efc84e512bb9c30f76e30c160ed06fb6040518060400160405280600881526020017f4e465469636b65740000000000000000000000000000000000000000000000008152506040518060400160405280600381526020017f4e465400000000000000000000000000000000000000000000000000000000008152508160009080519060200190620000c092919062000277565b508060019080519060200190620000d992919062000277565b5050508173ffffffffffffffffffffffffffffffffffffffff1660a08173ffffffffffffffffffffffffffffffffffffffff1660601b815250508073ffffffffffffffffffffffffffffffffffffffff1660808173ffffffffffffffffffffffffffffffffffffffff1660601b8152505050506200016c62000160620001a960201b60201c565b620001b160201b60201c565b7f6e75b569a01ef56d18cab6a8e71e6600d6ce853834d4a5748b720d06f878b3a460001b600d81905550655af3107a4000600e819055506200038c565b600033905090565b6000600860009054906101000a900473ffffffffffffffffffffffffffffffffffffffff16905081600860006101000a81548173ffffffffffffffffffffffffffffffffffffffff021916908373ffffffffffffffffffffffffffffffffffffffff1602179055508173ffffffffffffffffffffffffffffffffffffffff168173ffffffffffffffffffffffffffffffffffffffff167f8be0079c531659141344cd1fd0a4f28419497f9722a3daafe3b4186f6b6457e060405160405180910390a35050565b828054620002859062000327565b90600052602060002090601f016020900481019282620002a95760008555620002f5565b82601f10620002c457805160ff1916838001178555620002f5565b82800160010185558215620002f5579182015b82811115620002f4578251825591602001919060010190620002d7565b5b50905062000304919062000308565b5090565b5b808211156200032357600081600090555060010162000309565b5090565b600060028204905060018216806200034057607f821691505b602082108114156200035757620003566200035d565b5b50919050565b7f4e487b7100000000000000000000000000000000000000000000000000000000600052602260045260246000fd5b60805160601c60a05160601c6147a2620003c6600039600081816111fc015261254501526000818161178f015261250901526147a26000f3fe60806040526004361061014b5760003560e01c8063715018a6116100b6578063b88d4fde1161006f578063b88d4fde146104c3578063c87b56dd146104ec578063dbdff2c114610529578063e146fc5414610554578063e985e9c514610591578063f2fde38b146105ce5761014b565b8063715018a6146103db5780638da5cb5b146103f257806394985ddd1461041d57806395d89b411461044657806398071fa514610471578063a22cb4651461049a5761014b565b8063256d52f611610108578063256d52f61461028c57806342842e0e146102bc5780634f64b2be146102e5578063500e3cbd146103245780636352211e1461036157806370a082311461039e5761014b565b806301ffc9a71461015057806306fdde031461018d578063081812fc146101b8578063095ea7b3146101f55780630b7914301461021e57806323b872dd14610263575b600080fd5b34801561015c57600080fd5b50610177600480360381019061017291906130c7565b6105f7565b6040516101849190613875565b60405180910390f35b34801561019957600080fd5b506101a26106d9565b6040516101af9190613919565b60405180910390f35b3480156101c457600080fd5b506101df60048036038101906101da919061321a565b61076b565b6040516101ec9190613769565b60405180910390f35b34801561020157600080fd5b5061021c60048036038101906102179190613026565b6107f0565b005b34801561022a57600080fd5b506102456004803603810190610240919061321a565b610908565b60405161025a9998979695949392919061393b565b60405180910390f35b34801561026f57600080fd5b5061028a60048036038101906102859190612f20565b610c1e565b005b6102a660048036038101906102a1919061321a565b610c7e565b6040516102b39190613c8b565b60405180910390f35b3480156102c857600080fd5b506102e360048036038101906102de9190612f20565b610eb9565b005b3480156102f157600080fd5b5061030c6004803603810190610307919061321a565b610ed9565b60405161031b93929190613837565b60405180910390f35b34801561033057600080fd5b5061034b6004803603810190610346919061321a565b610fab565b6040516103589190613769565b60405180910390f35b34801561036d57600080fd5b506103886004803603810190610383919061321a565b610fde565b6040516103959190613769565b60405180910390f35b3480156103aa57600080fd5b506103c560048036038101906103c09190612ebb565b611090565b6040516103d29190613c8b565b60405180910390f35b3480156103e757600080fd5b506103f0611148565b005b3480156103fe57600080fd5b506104076111d0565b6040516104149190613769565b60405180910390f35b34801561042957600080fd5b50610444600480360381019061043f919061308b565b6111fa565b005b34801561045257600080fd5b5061045b611296565b6040516104689190613919565b60405180910390f35b34801561047d57600080fd5b506104986004803603810190610493919061326c565b611328565b005b3480156104a657600080fd5b506104c160048036038101906104bc9190612fea565b6115be565b005b3480156104cf57600080fd5b506104ea60048036038101906104e59190612f6f565b6115d4565b005b3480156104f857600080fd5b50610513600480360381019061050e919061321a565b611636565b6040516105209190613919565b60405180910390f35b34801561053557600080fd5b5061053e611788565b60405161054b9190613890565b60405180910390f35b34801561056057600080fd5b5061057b60048036038101906105769190613119565b611889565b6040516105889190613c8b565b60405180910390f35b34801561059d57600080fd5b506105b860048036038101906105b39190612ee4565b611ab3565b6040516105c59190613875565b60405180910390f35b3480156105da57600080fd5b506105f560048036038101906105f09190612ebb565b611b47565b005b60007f80ac58cd000000000000000000000000000000000000000000000000000000007bffffffffffffffffffffffffffffffffffffffffffffffffffffffff1916827bffffffffffffffffffffffffffffffffffffffffffffffffffffffff191614806106c257507f5b5e139f000000000000000000000000000000000000000000000000000000007bffffffffffffffffffffffffffffffffffffffffffffffffffffffff1916827bffffffffffffffffffffffffffffffffffffffffffffffffffffffff1916145b806106d257506106d182611c3f565b5b9050919050565b6060600080546106e890613f54565b80601f016020809104026020016040519081016040528092919081815260200182805461071490613f54565b80156107615780601f1061073657610100808354040283529160200191610761565b820191906000526020600020905b81548152906001019060200180831161074457829003601f168201915b5050505050905090565b600061077682611ca9565b6107b5576040517f08c379a00000000000000000000000000000000000000000000000000000000081526004016107ac90613bab565b60405180910390fd5b6004600083815260200190815260200160002060009054906101000a900473ffffffffffffffffffffffffffffffffffffffff169050919050565b60006107fb82610fde565b90508073ffffffffffffffffffffffffffffffffffffffff168373ffffffffffffffffffffffffffffffffffffffff16141561086c576040517f08c379a000000000000000000000000000000000000000000000000000000000815260040161086390613c2b565b60405180910390fd5b8073ffffffffffffffffffffffffffffffffffffffff1661088b611d15565b73ffffffffffffffffffffffffffffffffffffffff1614806108ba57506108b9816108b4611d15565b611ab3565b5b6108f9576040517f08c379a00000000000000000000000000000000000000000000000000000000081526004016108f090613aeb565b60405180910390fd5b6109038383611d1d565b505050565b600a60205280600052604060002060009150905080600001805461092b90613f54565b80601f016020809104026020016040519081016040528092919081815260200182805461095790613f54565b80156109a45780601f10610979576101008083540402835291602001916109a4565b820191906000526020600020905b81548152906001019060200180831161098757829003601f168201915b5050505050908060010180546109b990613f54565b80601f01602080910402602001604051908101604052809291908181526020018280546109e590613f54565b8015610a325780601f10610a0757610100808354040283529160200191610a32565b820191906000526020600020905b815481529060010190602001808311610a1557829003601f168201915b505050505090806002018054610a4790613f54565b80601f0160208091040260200160405190810160405280929190818152602001828054610a7390613f54565b8015610ac05780601f10610a9557610100808354040283529160200191610ac0565b820191906000526020600020905b815481529060010190602001808311610aa357829003601f168201915b505050505090806003018054610ad590613f54565b80601f0160208091040260200160405190810160405280929190818152602001828054610b0190613f54565b8015610b4e5780601f10610b2357610100808354040283529160200191610b4e565b820191906000526020600020905b815481529060010190602001808311610b3157829003601f168201915b505050505090806004018054610b6390613f54565b80601f0160208091040260200160405190810160405280929190818152602001828054610b8f90613f54565b8015610bdc5780601f10610bb157610100808354040283529160200191610bdc565b820191906000526020600020905b815481529060010190602001808311610bbf57829003601f168201915b5050505050908060050154908060060154908060070154908060080160009054906101000a900473ffffffffffffffffffffffffffffffffffffffff16905089565b610c2f610c29611d15565b82611dd6565b610c6e576040517f08c379a0000000000000000000000000000000000000000000000000000000008152600401610c6590613c4b565b60405180910390fd5b610c79838383611eb4565b505050565b6000600a600083815260200190815260200160002060060154600a60008481526020019081526020016000206005015410610cee576040517f08c379a0000000000000000000000000000000000000000000000000000000008152600401610ce590613c6b565b60405180910390fd5b6000600a600084815260200190815260200160002060050154600a600085815260200190815260200160002060070154610d289190613dd9565b90506001600a60008581526020019081526020016000206005016000828254610d519190613dd9565b9250508190555060405180606001604052803373ffffffffffffffffffffffffffffffffffffffff1681526020018481526020016040518060400160405280600581526020017f66616c7365000000000000000000000000000000000000000000000000000000815250815250600c600083815260200190815260200160002060008201518160000160006101000a81548173ffffffffffffffffffffffffffffffffffffffff021916908373ffffffffffffffffffffffffffffffffffffffff160217905550602082015181600101556040820151816002019080519060200190610e3e929190612ca0565b50905050610e4d33600161211b565b600060405180608001604052806050815260200161471d605091399050610e75600182612139565b7fb7656808f0e04b4af7a20f7ef1caa7669f0d781f1ca4cba31a3ba467880766c93383604051610ea69291906137d0565b60405180910390a1600192505050919050565b610ed4838383604051806020016040528060008152506115d4565b505050565b600c6020528060005260406000206000915090508060000160009054906101000a900473ffffffffffffffffffffffffffffffffffffffff1690806001015490806002018054610f2890613f54565b80601f0160208091040260200160405190810160405280929190818152602001828054610f5490613f54565b8015610fa15780601f10610f7657610100808354040283529160200191610fa1565b820191906000526020600020905b815481529060010190602001808311610f8457829003601f168201915b5050505050905083565b600b6020528060005260406000206000915054906101000a900473ffffffffffffffffffffffffffffffffffffffff1681565b6000806002600084815260200190815260200160002060009054906101000a900473ffffffffffffffffffffffffffffffffffffffff169050600073ffffffffffffffffffffffffffffffffffffffff168173ffffffffffffffffffffffffffffffffffffffff161415611087576040517f08c379a000000000000000000000000000000000000000000000000000000000815260040161107e90613b2b565b60405180910390fd5b80915050919050565b60008073ffffffffffffffffffffffffffffffffffffffff168273ffffffffffffffffffffffffffffffffffffffff161415611101576040517f08c379a00000000000000000000000000000000000000000000000000000000081526004016110f890613b0b565b60405180910390fd5b600360008373ffffffffffffffffffffffffffffffffffffffff1673ffffffffffffffffffffffffffffffffffffffff168152602001908152602001600020549050919050565b611150611d15565b73ffffffffffffffffffffffffffffffffffffffff1661116e6111d0565b73ffffffffffffffffffffffffffffffffffffffff16146111c4576040517f08c379a00000000000000000000000000000000000000000000000000000000081526004016111bb90613bcb565b60405180910390fd5b6111ce60006121ad565b565b6000600860009054906101000a900473ffffffffffffffffffffffffffffffffffffffff16905090565b7f000000000000000000000000000000000000000000000000000000000000000073ffffffffffffffffffffffffffffffffffffffff163373ffffffffffffffffffffffffffffffffffffffff1614611288576040517f08c379a000000000000000000000000000000000000000000000000000000000815260040161127f90613c0b565b60405180910390fd5b6112928282612273565b5050565b6060600180546112a590613f54565b80601f01602080910402602001604051908101604052809291908181526020018280546112d190613f54565b801561131e5780601f106112f35761010080835404028352916020019161131e565b820191906000526020600020905b81548152906001019060200180831161130157829003601f168201915b5050505050905090565b600a600083815260200190815260200160002060080160009054906101000a900473ffffffffffffffffffffffffffffffffffffffff1673ffffffffffffffffffffffffffffffffffffffff163373ffffffffffffffffffffffffffffffffffffffff16141561158257600a6000838152602001908152602001600020600501548111156113ca57600a60008381526020019081526020016000206005015490505b606060005b82811015611542576113df611788565b506000600a600086815260200190815260200160002060060154600f546114069190614014565b600a6000878152602001908152602001600020600701546114279190613dd9565b905060005b83518110156114e6578184828151811061146f577f4e487b7100000000000000000000000000000000000000000000000000000000600052603260045260246000fd5b602002602001015114156114d257611485611788565b50600a600087815260200190815260200160002060060154600f546114aa9190614014565b600a6000888152602001908152602001600020600701546114cb9190613dd9565b9150600090505b6001816114df9190613dd9565b905061142c565b5080838381518110611521577f4e487b7100000000000000000000000000000000000000000000000000000000600052603260045260246000fd5b6020026020010181815250505060018161153b9190613dd9565b90506113cf565b507fafe13e5a57d6283d2aac47a26860c3c84d500c7b62dc0a13783905960deb09c68382604051611574929190613ca6565b60405180910390a1506115ba565b7f33a48753340fd583ebcc9cf06882370187ec4acf87353fb1375b22752eebe3fc826040516115b19190613c8b565b60405180910390a15b5050565b6115d06115c9611d15565b838361227e565b5050565b6115e56115df611d15565b83611dd6565b611624576040517f08c379a000000000000000000000000000000000000000000000000000000000815260040161161b90613c4b565b60405180910390fd5b611630848484846123eb565b50505050565b606061164182611ca9565b611680576040517f08c379a000000000000000000000000000000000000000000000000000000000815260040161167790613b8b565b60405180910390fd5b60006006600084815260200190815260200160002080546116a090613f54565b80601f01602080910402602001604051908101604052809291908181526020018280546116cc90613f54565b80156117195780601f106116ee57610100808354040283529160200191611719565b820191906000526020600020905b8154815290600101906020018083116116fc57829003601f168201915b50505050509050600061172a612447565b9050600081511415611740578192505050611783565b60008251111561177557808260405160200161175d929190613745565b60405160208183030381529060405292505050611783565b61177e8461245e565b925050505b919050565b6000600e547f000000000000000000000000000000000000000000000000000000000000000073ffffffffffffffffffffffffffffffffffffffff166370a08231306040518263ffffffff1660e01b81526004016117e69190613769565b60206040518083038186803b1580156117fe57600080fd5b505afa158015611812573d6000803e3d6000fd5b505050506040513d601f19601f820116820180604052508101906118369190613243565b11611876576040517f08c379a000000000000000000000000000000000000000000000000000000000815260040161186d90613aab565b60405180910390fd5b611884600d54600e54612505565b905090565b60008060019050600061189c6009612667565b11156118ef57600a60006118b06009612667565b815260200190815260200160002060060154600a60006118d06009612667565b8152602001908152602001600020600701546118ec9190613dd9565b90505b6118f96009612675565b60006119056009612667565b90506040518061012001604052808a8152602001898152602001888152602001878152602001868152602001600081526020018581526020018381526020013373ffffffffffffffffffffffffffffffffffffffff16815250600a6000838152602001908152602001600020600082015181600001908051906020019061198d929190612ca0565b5060208201518160010190805190602001906119aa929190612ca0565b5060408201518160020190805190602001906119c7929190612ca0565b5060608201518160030190805190602001906119e4929190612ca0565b506080820151816004019080519060200190611a01929190612ca0565b5060a0820151816005015560c0820151816006015560e082015181600701556101008201518160080160006101000a81548173ffffffffffffffffffffffffffffffffffffffff021916908373ffffffffffffffffffffffffffffffffffffffff1602179055509050507f7cfc5a0c32fcbc6c04d58abc530b3d5c69357bcc294a720a317e79285ad97d543382604051611a9c9291906137d0565b60405180910390a180925050509695505050505050565b6000600560008473ffffffffffffffffffffffffffffffffffffffff1673ffffffffffffffffffffffffffffffffffffffff16815260200190815260200160002060008373ffffffffffffffffffffffffffffffffffffffff1673ffffffffffffffffffffffffffffffffffffffff16815260200190815260200160002060009054906101000a900460ff16905092915050565b611b4f611d15565b73ffffffffffffffffffffffffffffffffffffffff16611b6d6111d0565b73ffffffffffffffffffffffffffffffffffffffff1614611bc3576040517f08c379a0000000000000000000000000000000000000000000000000000000008152600401611bba90613bcb565b60405180910390fd5b600073ffffffffffffffffffffffffffffffffffffffff168173ffffffffffffffffffffffffffffffffffffffff161415611c33576040517f08c379a0000000000000000000000000000000000000000000000000000000008152600401611c2a90613a0b565b60405180910390fd5b611c3c816121ad565b50565b60007f01ffc9a7000000000000000000000000000000000000000000000000000000007bffffffffffffffffffffffffffffffffffffffffffffffffffffffff1916827bffffffffffffffffffffffffffffffffffffffffffffffffffffffff1916149050919050565b60008073ffffffffffffffffffffffffffffffffffffffff166002600084815260200190815260200160002060009054906101000a900473ffffffffffffffffffffffffffffffffffffffff1673ffffffffffffffffffffffffffffffffffffffff1614159050919050565b600033905090565b816004600083815260200190815260200160002060006101000a81548173ffffffffffffffffffffffffffffffffffffffff021916908373ffffffffffffffffffffffffffffffffffffffff160217905550808273ffffffffffffffffffffffffffffffffffffffff16611d9083610fde565b73ffffffffffffffffffffffffffffffffffffffff167f8c5be1e5ebec7d5bd14f71427d1e84f3dd0314c0f7b2291e5b200ac8c7c3b92560405160405180910390a45050565b6000611de182611ca9565b611e20576040517f08c379a0000000000000000000000000000000000000000000000000000000008152600401611e1790613acb565b60405180910390fd5b6000611e2b83610fde565b90508073ffffffffffffffffffffffffffffffffffffffff168473ffffffffffffffffffffffffffffffffffffffff161480611e9a57508373ffffffffffffffffffffffffffffffffffffffff16611e828461076b565b73ffffffffffffffffffffffffffffffffffffffff16145b80611eab5750611eaa8185611ab3565b5b91505092915050565b8273ffffffffffffffffffffffffffffffffffffffff16611ed482610fde565b73ffffffffffffffffffffffffffffffffffffffff1614611f2a576040517f08c379a0000000000000000000000000000000000000000000000000000000008152600401611f2190613a2b565b60405180910390fd5b600073ffffffffffffffffffffffffffffffffffffffff168273ffffffffffffffffffffffffffffffffffffffff161415611f9a576040517f08c379a0000000000000000000000000000000000000000000000000000000008152600401611f9190613a6b565b60405180910390fd5b611fa583838361268b565b611fb0600082611d1d565b6001600360008573ffffffffffffffffffffffffffffffffffffffff1673ffffffffffffffffffffffffffffffffffffffff16815260200190815260200160002060008282546120009190613e60565b925050819055506001600360008473ffffffffffffffffffffffffffffffffffffffff1673ffffffffffffffffffffffffffffffffffffffff16815260200190815260200160002060008282546120579190613dd9565b92505081905550816002600083815260200190815260200160002060006101000a81548173ffffffffffffffffffffffffffffffffffffffff021916908373ffffffffffffffffffffffffffffffffffffffff160217905550808273ffffffffffffffffffffffffffffffffffffffff168473ffffffffffffffffffffffffffffffffffffffff167fddf252ad1be2c89b69c2b068fc378daa952ba7f163c4a11628f55a4df523b3ef60405160405180910390a4612116838383612690565b505050565b612135828260405180602001604052806000815250612695565b5050565b61214282611ca9565b612181576040517f08c379a000000000000000000000000000000000000000000000000000000000815260040161217890613b4b565b60405180910390fd5b806006600084815260200190815260200160002090805190602001906121a8929190612ca0565b505050565b6000600860009054906101000a900473ffffffffffffffffffffffffffffffffffffffff16905081600860006101000a81548173ffffffffffffffffffffffffffffffffffffffff021916908373ffffffffffffffffffffffffffffffffffffffff1602179055508173ffffffffffffffffffffffffffffffffffffffff168173ffffffffffffffffffffffffffffffffffffffff167f8be0079c531659141344cd1fd0a4f28419497f9722a3daafe3b4186f6b6457e060405160405180910390a35050565b80600f819055505050565b8173ffffffffffffffffffffffffffffffffffffffff168373ffffffffffffffffffffffffffffffffffffffff1614156122ed576040517f08c379a00000000000000000000000000000000000000000000000000000000081526004016122e490613a8b565b60405180910390fd5b80600560008573ffffffffffffffffffffffffffffffffffffffff1673ffffffffffffffffffffffffffffffffffffffff16815260200190815260200160002060008473ffffffffffffffffffffffffffffffffffffffff1673ffffffffffffffffffffffffffffffffffffffff16815260200190815260200160002060006101000a81548160ff0219169083151502179055508173ffffffffffffffffffffffffffffffffffffffff168373ffffffffffffffffffffffffffffffffffffffff167f17307eab39ab6107e8899845ad3d59bd9653f200f220920489ca2b5937696c31836040516123de9190613875565b60405180910390a3505050565b6123f6848484611eb4565b612402848484846126f0565b612441576040517f08c379a0000000000000000000000000000000000000000000000000000000008152600401612438906139eb565b60405180910390fd5b50505050565b606060405180602001604052806000815250905090565b606061246982611ca9565b6124a8576040517f08c379a000000000000000000000000000000000000000000000000000000000815260040161249f90613beb565b60405180910390fd5b60006124b2612447565b905060008151116124d257604051806020016040528060008152506124fd565b806124dc84612887565b6040516020016124ed929190613745565b6040516020818303038152906040525b915050919050565b60007f000000000000000000000000000000000000000000000000000000000000000073ffffffffffffffffffffffffffffffffffffffff16634000aea07f0000000000000000000000000000000000000000000000000000000000000000848660006040516020016125799291906138ab565b6040516020818303038152906040526040518463ffffffff1660e01b81526004016125a6939291906137f9565b602060405180830381600087803b1580156125c057600080fd5b505af11580156125d4573d6000803e3d6000fd5b505050506040513d601f19601f820116820180604052508101906125f89190613062565b50600061261b846000306007600089815260200190815260200160002054612a34565b90506001600760008681526020019081526020016000205461263d9190613dd9565b600760008681526020019081526020016000208190555061265e8482612a70565b91505092915050565b600081600001549050919050565b6001816000016000828254019250508190555050565b505050565b505050565b61269f8383612aa3565b6126ac60008484846126f0565b6126eb576040517f08c379a00000000000000000000000000000000000000000000000000000000081526004016126e2906139eb565b60405180910390fd5b505050565b60006127118473ffffffffffffffffffffffffffffffffffffffff16612c7d565b1561287a578373ffffffffffffffffffffffffffffffffffffffff1663150b7a0261273a611d15565b8786866040518563ffffffff1660e01b815260040161275c9493929190613784565b602060405180830381600087803b15801561277657600080fd5b505af19250505080156127a757506040513d601f19601f820116820180604052508101906127a491906130f0565b60015b61282a573d80600081146127d7576040519150601f19603f3d011682016040523d82523d6000602084013e6127dc565b606091505b50600081511415612822576040517f08c379a0000000000000000000000000000000000000000000000000000000008152600401612819906139eb565b60405180910390fd5b805181602001fd5b63150b7a0260e01b7bffffffffffffffffffffffffffffffffffffffffffffffffffffffff1916817bffffffffffffffffffffffffffffffffffffffffffffffffffffffff19161491505061287f565b600190505b949350505050565b606060008214156128cf576040518060400160405280600181526020017f30000000000000000000000000000000000000000000000000000000000000008152509050612a2f565b600082905060005b600082146129015780806128ea90613fb7565b915050600a826128fa9190613e2f565b91506128d7565b60008167ffffffffffffffff811115612943577f4e487b7100000000000000000000000000000000000000000000000000000000600052604160045260246000fd5b6040519080825280601f01601f1916602001820160405280156129755781602001600182028036833780820191505090505b5090505b60008514612a285760018261298e9190613e60565b9150600a8561299d9190614014565b60306129a99190613dd9565b60f81b8183815181106129e5577f4e487b7100000000000000000000000000000000000000000000000000000000600052603260045260246000fd5b60200101907effffffffffffffffffffffffffffffffffffffffffffffffffffffffffffff1916908160001a905350600a85612a219190613e2f565b9450612979565b8093505050505b919050565b600084848484604051602001612a4d94939291906138d4565b6040516020818303038152906040528051906020012060001c9050949350505050565b60008282604051602001612a85929190613719565b60405160208183030381529060405280519060200120905092915050565b600073ffffffffffffffffffffffffffffffffffffffff168273ffffffffffffffffffffffffffffffffffffffff161415612b13576040517f08c379a0000000000000000000000000000000000000000000000000000000008152600401612b0a90613b6b565b60405180910390fd5b612b1c81611ca9565b15612b5c576040517f08c379a0000000000000000000000000000000000000000000000000000000008152600401612b5390613a4b565b60405180910390fd5b612b686000838361268b565b6001600360008473ffffffffffffffffffffffffffffffffffffffff1673ffffffffffffffffffffffffffffffffffffffff1681526020019081526020016000206000828254612bb89190613dd9565b92505081905550816002600083815260200190815260200160002060006101000a81548173ffffffffffffffffffffffffffffffffffffffff021916908373ffffffffffffffffffffffffffffffffffffffff160217905550808273ffffffffffffffffffffffffffffffffffffffff16600073ffffffffffffffffffffffffffffffffffffffff167fddf252ad1be2c89b69c2b068fc378daa952ba7f163c4a11628f55a4df523b3ef60405160405180910390a4612c7960008383612690565b5050565b6000808273ffffffffffffffffffffffffffffffffffffffff163b119050919050565b828054612cac90613f54565b90600052602060002090601f016020900481019282612cce5760008555612d15565b82601f10612ce757805160ff1916838001178555612d15565b82800160010185558215612d15579182015b82811115612d14578251825591602001919060010190612cf9565b5b509050612d229190612d26565b5090565b5b80821115612d3f576000816000905550600101612d27565b5090565b6000612d56612d5184613cfb565b613cd6565b905082815260208101848484011115612d6e57600080fd5b612d79848285613f12565b509392505050565b6000612d94612d8f84613d2c565b613cd6565b905082815260208101848484011115612dac57600080fd5b612db7848285613f12565b509392505050565b600081359050612dce816146a9565b92915050565b600081359050612de3816146c0565b92915050565b600081519050612df8816146c0565b92915050565b600081359050612e0d816146d7565b92915050565b600081359050612e22816146ee565b92915050565b600081519050612e37816146ee565b92915050565b600082601f830112612e4e57600080fd5b8135612e5e848260208601612d43565b91505092915050565b600082601f830112612e7857600080fd5b8135612e88848260208601612d81565b91505092915050565b600081359050612ea081614705565b92915050565b600081519050612eb581614705565b92915050565b600060208284031215612ecd57600080fd5b6000612edb84828501612dbf565b91505092915050565b60008060408385031215612ef757600080fd5b6000612f0585828601612dbf565b9250506020612f1685828601612dbf565b9150509250929050565b600080600060608486031215612f3557600080fd5b6000612f4386828701612dbf565b9350506020612f5486828701612dbf565b9250506040612f6586828701612e91565b9150509250925092565b60008060008060808587031215612f8557600080fd5b6000612f9387828801612dbf565b9450506020612fa487828801612dbf565b9350506040612fb587828801612e91565b925050606085013567ffffffffffffffff811115612fd257600080fd5b612fde87828801612e3d565b91505092959194509250565b60008060408385031215612ffd57600080fd5b600061300b85828601612dbf565b925050602061301c85828601612dd4565b9150509250929050565b6000806040838503121561303957600080fd5b600061304785828601612dbf565b925050602061305885828601612e91565b9150509250929050565b60006020828403121561307457600080fd5b600061308284828501612de9565b91505092915050565b6000806040838503121561309e57600080fd5b60006130ac85828601612dfe565b92505060206130bd85828601612e91565b9150509250929050565b6000602082840312156130d957600080fd5b60006130e784828501612e13565b91505092915050565b60006020828403121561310257600080fd5b600061311084828501612e28565b91505092915050565b60008060008060008060c0878903121561313257600080fd5b600087013567ffffffffffffffff81111561314c57600080fd5b61315889828a01612e67565b965050602087013567ffffffffffffffff81111561317557600080fd5b61318189828a01612e67565b955050604087013567ffffffffffffffff81111561319e57600080fd5b6131aa89828a01612e67565b945050606087013567ffffffffffffffff8111156131c757600080fd5b6131d389828a01612e67565b935050608087013567ffffffffffffffff8111156131f057600080fd5b6131fc89828a01612e67565b92505060a061320d89828a01612e91565b9150509295509295509295565b60006020828403121561322c57600080fd5b600061323a84828501612e91565b91505092915050565b60006020828403121561325557600080fd5b600061326384828501612ea6565b91505092915050565b6000806040838503121561327f57600080fd5b600061328d85828601612e91565b925050602061329e85828601612e91565b9150509250929050565b60006132b483836136e4565b60208301905092915050565b6132c981613e94565b82525050565b60006132da82613d6d565b6132e48185613d9b565b93506132ef83613d5d565b8060005b8381101561332057815161330788826132a8565b975061331283613d8e565b9250506001810190506132f3565b5085935050505092915050565b61333681613ea6565b82525050565b61334581613eb2565b82525050565b61335c61335782613eb2565b614000565b82525050565b600061336d82613d78565b6133778185613dac565b9350613387818560208601613f21565b61339081614101565b840191505092915050565b60006133a682613d83565b6133b08185613dbd565b93506133c0818560208601613f21565b6133c981614101565b840191505092915050565b60006133df82613d83565b6133e98185613dce565b93506133f9818560208601613f21565b80840191505092915050565b6000613412603283613dbd565b915061341d82614112565b604082019050919050565b6000613435602683613dbd565b915061344082614161565b604082019050919050565b6000613458602583613dbd565b9150613463826141b0565b604082019050919050565b600061347b601c83613dbd565b9150613486826141ff565b602082019050919050565b600061349e602483613dbd565b91506134a982614228565b604082019050919050565b60006134c1601983613dbd565b91506134cc82614277565b602082019050919050565b60006134e4602b83613dbd565b91506134ef826142a0565b604082019050919050565b6000613507602c83613dbd565b9150613512826142ef565b604082019050919050565b600061352a603883613dbd565b91506135358261433e565b604082019050919050565b600061354d602a83613dbd565b91506135588261438d565b604082019050919050565b6000613570602983613dbd565b915061357b826143dc565b604082019050919050565b6000613593602e83613dbd565b915061359e8261442b565b604082019050919050565b60006135b6602083613dbd565b91506135c18261447a565b602082019050919050565b60006135d9603183613dbd565b91506135e4826144a3565b604082019050919050565b60006135fc602c83613dbd565b9150613607826144f2565b604082019050919050565b600061361f602083613dbd565b915061362a82614541565b602082019050919050565b6000613642602f83613dbd565b915061364d8261456a565b604082019050919050565b6000613665601f83613dbd565b9150613670826145b9565b602082019050919050565b6000613688602183613dbd565b9150613693826145e2565b604082019050919050565b60006136ab603183613dbd565b91506136b682614631565b604082019050919050565b60006136ce601083613dbd565b91506136d982614680565b602082019050919050565b6136ed81613f08565b82525050565b6136fc81613f08565b82525050565b61371361370e82613f08565b61400a565b82525050565b6000613725828561334b565b6020820191506137358284613702565b6020820191508190509392505050565b600061375182856133d4565b915061375d82846133d4565b91508190509392505050565b600060208201905061377e60008301846132c0565b92915050565b600060808201905061379960008301876132c0565b6137a660208301866132c0565b6137b360408301856136f3565b81810360608301526137c58184613362565b905095945050505050565b60006040820190506137e560008301856132c0565b6137f260208301846136f3565b9392505050565b600060608201905061380e60008301866132c0565b61381b60208301856136f3565b818103604083015261382d8184613362565b9050949350505050565b600060608201905061384c60008301866132c0565b61385960208301856136f3565b818103604083015261386b818461339b565b9050949350505050565b600060208201905061388a600083018461332d565b92915050565b60006020820190506138a5600083018461333c565b92915050565b60006040820190506138c0600083018561333c565b6138cd60208301846136f3565b9392505050565b60006080820190506138e9600083018761333c565b6138f660208301866136f3565b61390360408301856132c0565b61391060608301846136f3565b95945050505050565b60006020820190508181036000830152613933818461339b565b905092915050565b6000610120820190508181036000830152613956818c61339b565b9050818103602083015261396a818b61339b565b9050818103604083015261397e818a61339b565b90508181036060830152613992818961339b565b905081810360808301526139a6818861339b565b90506139b560a08301876136f3565b6139c260c08301866136f3565b6139cf60e08301856136f3565b6139dd6101008301846132c0565b9a9950505050505050505050565b60006020820190508181036000830152613a0481613405565b9050919050565b60006020820190508181036000830152613a2481613428565b9050919050565b60006020820190508181036000830152613a448161344b565b9050919050565b60006020820190508181036000830152613a648161346e565b9050919050565b60006020820190508181036000830152613a8481613491565b9050919050565b60006020820190508181036000830152613aa4816134b4565b9050919050565b60006020820190508181036000830152613ac4816134d7565b9050919050565b60006020820190508181036000830152613ae4816134fa565b9050919050565b60006020820190508181036000830152613b048161351d565b9050919050565b60006020820190508181036000830152613b2481613540565b9050919050565b60006020820190508181036000830152613b4481613563565b9050919050565b60006020820190508181036000830152613b6481613586565b9050919050565b60006020820190508181036000830152613b84816135a9565b9050919050565b60006020820190508181036000830152613ba4816135cc565b9050919050565b60006020820190508181036000830152613bc4816135ef565b9050919050565b60006020820190508181036000830152613be481613612565b9050919050565b60006020820190508181036000830152613c0481613635565b9050919050565b60006020820190508181036000830152613c2481613658565b9050919050565b60006020820190508181036000830152613c448161367b565b9050919050565b60006020820190508181036000830152613c648161369e565b9050919050565b60006020820190508181036000830152613c84816136c1565b9050919050565b6000602082019050613ca060008301846136f3565b92915050565b6000604082019050613cbb60008301856136f3565b8181036020830152613ccd81846132cf565b90509392505050565b6000613ce0613cf1565b9050613cec8282613f86565b919050565b6000604051905090565b600067ffffffffffffffff821115613d1657613d156140d2565b5b613d1f82614101565b9050602081019050919050565b600067ffffffffffffffff821115613d4757613d466140d2565b5b613d5082614101565b9050602081019050919050565b6000819050602082019050919050565b600081519050919050565b600081519050919050565b600081519050919050565b6000602082019050919050565b600082825260208201905092915050565b600082825260208201905092915050565b600082825260208201905092915050565b600081905092915050565b6000613de482613f08565b9150613def83613f08565b9250827fffffffffffffffffffffffffffffffffffffffffffffffffffffffffffffffff03821115613e2457613e23614045565b5b828201905092915050565b6000613e3a82613f08565b9150613e4583613f08565b925082613e5557613e54614074565b5b828204905092915050565b6000613e6b82613f08565b9150613e7683613f08565b925082821015613e8957613e88614045565b5b828203905092915050565b6000613e9f82613ee8565b9050919050565b60008115159050919050565b6000819050919050565b60007fffffffff0000000000000000000000000000000000000000000000000000000082169050919050565b600073ffffffffffffffffffffffffffffffffffffffff82169050919050565b6000819050919050565b82818337600083830152505050565b60005b83811015613f3f578082015181840152602081019050613f24565b83811115613f4e576000848401525b50505050565b60006002820490506001821680613f6c57607f821691505b60208210811415613f8057613f7f6140a3565b5b50919050565b613f8f82614101565b810181811067ffffffffffffffff82111715613fae57613fad6140d2565b5b80604052505050565b6000613fc282613f08565b91507fffffffffffffffffffffffffffffffffffffffffffffffffffffffffffffffff821415613ff557613ff4614045565b5b600182019050919050565b6000819050919050565b6000819050919050565b600061401f82613f08565b915061402a83613f08565b92508261403a57614039614074565b5b828206905092915050565b7f4e487b7100000000000000000000000000000000000000000000000000000000600052601160045260246000fd5b7f4e487b7100000000000000000000000000000000000000000000000000000000600052601260045260246000fd5b7f4e487b7100000000000000000000000000000000000000000000000000000000600052602260045260246000fd5b7f4e487b7100000000000000000000000000000000000000000000000000000000600052604160045260246000fd5b6000601f19601f8301169050919050565b7f4552433732313a207472616e7366657220746f206e6f6e20455243373231526560008201527f63656976657220696d706c656d656e7465720000000000000000000000000000602082015250565b7f4f776e61626c653a206e6577206f776e657220697320746865207a65726f206160008201527f6464726573730000000000000000000000000000000000000000000000000000602082015250565b7f4552433732313a207472616e736665722066726f6d20696e636f72726563742060008201527f6f776e6572000000000000000000000000000000000000000000000000000000602082015250565b7f4552433732313a20746f6b656e20616c7265616479206d696e74656400000000600082015250565b7f4552433732313a207472616e7366657220746f20746865207a65726f2061646460008201527f7265737300000000000000000000000000000000000000000000000000000000602082015250565b7f4552433732313a20617070726f766520746f2063616c6c657200000000000000600082015250565b7f4e6f7420656e6f756768204c494e4b202d2066696c6c20636f6e74726163742060008201527f7769746820666175636574000000000000000000000000000000000000000000602082015250565b7f4552433732313a206f70657261746f7220717565727920666f72206e6f6e657860008201527f697374656e7420746f6b656e0000000000000000000000000000000000000000602082015250565b7f4552433732313a20617070726f76652063616c6c6572206973206e6f74206f7760008201527f6e6572206e6f7220617070726f76656420666f7220616c6c0000000000000000602082015250565b7f4552433732313a2062616c616e636520717565727920666f7220746865207a6560008201527f726f206164647265737300000000000000000000000000000000000000000000602082015250565b7f4552433732313a206f776e657220717565727920666f72206e6f6e657869737460008201527f656e7420746f6b656e0000000000000000000000000000000000000000000000602082015250565b7f45524337323155524953746f726167653a2055524920736574206f66206e6f6e60008201527f6578697374656e7420746f6b656e000000000000000000000000000000000000602082015250565b7f4552433732313a206d696e7420746f20746865207a65726f2061646472657373600082015250565b7f45524337323155524953746f726167653a2055524920717565727920666f722060008201527f6e6f6e6578697374656e7420746f6b656e000000000000000000000000000000602082015250565b7f4552433732313a20617070726f76656420717565727920666f72206e6f6e657860008201527f697374656e7420746f6b656e0000000000000000000000000000000000000000602082015250565b7f4f776e61626c653a2063616c6c6572206973206e6f7420746865206f776e6572600082015250565b7f4552433732314d657461646174613a2055524920717565727920666f72206e6f60008201527f6e6578697374656e7420746f6b656e0000000000000000000000000000000000602082015250565b7f4f6e6c7920565246436f6f7264696e61746f722063616e2066756c66696c6c00600082015250565b7f4552433732313a20617070726f76616c20746f2063757272656e74206f776e6560008201527f7200000000000000000000000000000000000000000000000000000000000000602082015250565b7f4552433732313a207472616e736665722063616c6c6572206973206e6f74206f60008201527f776e6572206e6f7220617070726f766564000000000000000000000000000000602082015250565b7f5469636b65747320536f6c64204f757400000000000000000000000000000000600082015250565b6146b281613e94565b81146146bd57600080fd5b50565b6146c981613ea6565b81146146d457600080fd5b50565b6146e081613eb2565b81146146eb57600080fd5b50565b6146f781613ebc565b811461470257600080fd5b50565b61470e81613f08565b811461471957600080fd5b5056fe68747470733a2f2f676174657761792e70696e6174612e636c6f75642f697066732f516d665a41664774487836586a36317472787357527272726f524747755a656850314b586d5a5271365874414e42a2646970667358221220077a77d0a603eaf571dc2e722c3b77bb4d8036cb6c04157a9cb37d48b532f45a64736f6c63430008010033",
  "linkReferences": {},
  "deployedLinkReferences": {}
}