{
  "_format": "hh-sol-artifact-1",
  "contractName": "dfsTeamMinter",
  "sourceName": "contracts/dfsTeamMinter.sol",
  "abi": [
    {
      "inputs": [],
      "stateMutability": "payable",
      "type": "constructor"
    },
    {
      "anonymous": false,
      "inputs": [
        {
          "indexed": true,
          "internalType": "address",
          "name": "owner",
          "type": "address"
        },
        {
          "indexed": true,
          "internalType": "address",
          "name": "approved",
          "type": "address"
        },
        {
          "indexed": true,
          "internalType": "uint256",
          "name": "tokenId",
          "type": "uint256"
        }
      ],
      "name": "Approval",
      "type": "event"
    },
    {
      "anonymous": false,
      "inputs": [
        {
          "indexed": true,
          "internalType": "address",
          "name": "owner",
          "type": "address"
        },
        {
          "indexed": true,
          "internalType": "address",
          "name": "operator",
          "type": "address"
        },
        {
          "indexed": false,
          "internalType": "bool",
          "name": "approved",
          "type": "bool"
        }
      ],
      "name": "ApprovalForAll",
      "type": "event"
    },
    {
      "anonymous": false,
      "inputs": [
        {
          "indexed": true,
          "internalType": "address",
          "name": "from",
          "type": "address"
        },
        {
          "indexed": true,
          "internalType": "address",
          "name": "to",
          "type": "address"
        },
        {
          "indexed": true,
          "internalType": "uint256",
          "name": "tokenId",
          "type": "uint256"
        }
      ],
      "name": "Transfer",
      "type": "event"
    },
    {
      "anonymous": false,
      "inputs": [
        {
          "indexed": false,
          "internalType": "uint256[]",
          "name": "winners",
          "type": "uint256[]"
        },
        {
          "indexed": false,
          "internalType": "uint256",
          "name": "payout",
          "type": "uint256"
        }
      ],
      "name": "contestWinners",
      "type": "event"
    },
    {
      "anonymous": false,
      "inputs": [
        {
          "indexed": false,
          "internalType": "address",
          "name": "sender",
          "type": "address"
        },
        {
          "indexed": false,
          "internalType": "uint256",
          "name": "tokenId",
          "type": "uint256"
        }
      ],
      "name": "dfsTeamNFTMinted",
      "type": "event"
    },
    {
      "anonymous": false,
      "inputs": [
        {
          "indexed": false,
          "internalType": "address",
          "name": "staker",
          "type": "address"
        },
        {
          "indexed": false,
          "internalType": "uint256",
          "name": "tokenId",
          "type": "uint256"
        }
      ],
      "name": "nftStakedInContest",
      "type": "event"
    },
    {
      "inputs": [
        {
          "internalType": "address",
          "name": "to",
          "type": "address"
        },
        {
          "internalType": "uint256",
          "name": "tokenId",
          "type": "uint256"
        }
      ],
      "name": "approve",
      "outputs": [],
      "stateMutability": "nonpayable",
      "type": "function"
    },
    {
      "inputs": [
        {
          "internalType": "address",
          "name": "owner",
          "type": "address"
        }
      ],
      "name": "balanceOf",
      "outputs": [
        {
          "internalType": "uint256",
          "name": "",
          "type": "uint256"
        }
      ],
      "stateMutability": "view",
      "type": "function"
    },
    {
      "inputs": [
        {
          "internalType": "uint256",
          "name": "_lockTime",
          "type": "uint256"
        }
      ],
      "name": "dailyRefreshAndPayout",
      "outputs": [],
      "stateMutability": "nonpayable",
      "type": "function"
    },
    {
      "inputs": [
        {
          "internalType": "uint256",
          "name": "",
          "type": "uint256"
        }
      ],
      "name": "fiftyFiftyTokenAddresses",
      "outputs": [
        {
          "internalType": "address",
          "name": "",
          "type": "address"
        }
      ],
      "stateMutability": "view",
      "type": "function"
    },
    {
      "inputs": [],
      "name": "getAllContestTokens",
      "outputs": [
        {
          "internalType": "uint256[]",
          "name": "",
          "type": "uint256[]"
        }
      ],
      "stateMutability": "view",
      "type": "function"
    },
    {
      "inputs": [
        {
          "internalType": "uint256",
          "name": "tokenId",
          "type": "uint256"
        }
      ],
      "name": "getApproved",
      "outputs": [
        {
          "internalType": "address",
          "name": "",
          "type": "address"
        }
      ],
      "stateMutability": "view",
      "type": "function"
    },
    {
      "inputs": [
        {
          "internalType": "uint256",
          "name": "_tokenId",
          "type": "uint256"
        }
      ],
      "name": "getNFTdataByToken",
      "outputs": [
        {
          "internalType": "uint256[9]",
          "name": "",
          "type": "uint256[9]"
        }
      ],
      "stateMutability": "view",
      "type": "function"
    },
    {
      "inputs": [
        {
          "internalType": "uint256",
          "name": "_tokenId",
          "type": "uint256"
        }
      ],
      "name": "getNFTdateByToken",
      "outputs": [
        {
          "internalType": "string",
          "name": "",
          "type": "string"
        }
      ],
      "stateMutability": "view",
      "type": "function"
    },
    {
      "inputs": [
        {
          "internalType": "address",
          "name": "owner",
          "type": "address"
        },
        {
          "internalType": "address",
          "name": "operator",
          "type": "address"
        }
      ],
      "name": "isApprovedForAll",
      "outputs": [
        {
          "internalType": "bool",
          "name": "",
          "type": "bool"
        }
      ],
      "stateMutability": "view",
      "type": "function"
    },
    {
      "inputs": [
        {
          "internalType": "string",
          "name": "_gameDate",
          "type": "string"
        },
        {
          "internalType": "uint256",
          "name": "_pgOnePlayerId",
          "type": "uint256"
        },
        {
          "internalType": "uint256",
          "name": "_pgTwoPlayerId",
          "type": "uint256"
        },
        {
          "internalType": "uint256",
          "name": "_sgOnePlayerId",
          "type": "uint256"
        },
        {
          "internalType": "uint256",
          "name": "_sgTwoPlayerId",
          "type": "uint256"
        },
        {
          "internalType": "uint256",
          "name": "_sfOnePlayerId",
          "type": "uint256"
        },
        {
          "internalType": "uint256",
          "name": "_sfTwoPlayerId",
          "type": "uint256"
        },
        {
          "internalType": "uint256",
          "name": "_pfOnePlayerId",
          "type": "uint256"
        },
        {
          "internalType": "uint256",
          "name": "_pfTwoPlayerId",
          "type": "uint256"
        },
        {
          "internalType": "uint256",
          "name": "_cPlayerId",
          "type": "uint256"
        }
      ],
      "name": "mintDFSTeamNFT",
      "outputs": [],
      "stateMutability": "payable",
      "type": "function"
    },
    {
      "inputs": [],
      "name": "name",
      "outputs": [
        {
          "internalType": "string",
          "name": "",
          "type": "string"
        }
      ],
      "stateMutability": "view",
      "type": "function"
    },
    {
      "inputs": [
        {
          "internalType": "uint256",
          "name": "",
          "type": "uint256"
        }
      ],
      "name": "nftHolderAttributes",
      "outputs": [
        {
          "internalType": "string",
          "name": "contestDate",
          "type": "string"
        },
        {
          "internalType": "uint256",
          "name": "pgOnePlayerId",
          "type": "uint256"
        },
        {
          "internalType": "uint256",
          "name": "pgTwoPlayerId",
          "type": "uint256"
        },
        {
          "internalType": "uint256",
          "name": "sgOnePlayerId",
          "type": "uint256"
        },
        {
          "internalType": "uint256",
          "name": "sgTwoPlayerId",
          "type": "uint256"
        },
        {
          "internalType": "uint256",
          "name": "sfOnePlayerId",
          "type": "uint256"
        },
        {
          "internalType": "uint256",
          "name": "sfTwoPlayerId",
          "type": "uint256"
        },
        {
          "internalType": "uint256",
          "name": "pfOnePlayerId",
          "type": "uint256"
        },
        {
          "internalType": "uint256",
          "name": "pfTwoPlayerId",
          "type": "uint256"
        },
        {
          "internalType": "uint256",
          "name": "cPlayerId",
          "type": "uint256"
        },
        {
          "internalType": "uint256",
          "name": "score",
          "type": "uint256"
        },
        {
          "internalType": "bool",
          "name": "isStaked",
          "type": "bool"
        }
      ],
      "stateMutability": "view",
      "type": "function"
    },
    {
      "inputs": [
        {
          "internalType": "address",
          "name": "",
          "type": "address"
        },
        {
          "internalType": "uint256",
          "name": "",
          "type": "uint256"
        }
      ],
      "name": "nftHolders",
      "outputs": [
        {
          "internalType": "uint256",
          "name": "",
          "type": "uint256"
        }
      ],
      "stateMutability": "view",
      "type": "function"
    },
    {
      "inputs": [
        {
          "internalType": "uint256",
          "name": "tokenId",
          "type": "uint256"
        }
      ],
      "name": "ownerOf",
      "outputs": [
        {
          "internalType": "address",
          "name": "",
          "type": "address"
        }
      ],
      "stateMutability": "view",
      "type": "function"
    },
    {
      "inputs": [
        {
          "internalType": "address",
          "name": "from",
          "type": "address"
        },
        {
          "internalType": "address",
          "name": "to",
          "type": "address"
        },
        {
          "internalType": "uint256",
          "name": "tokenId",
          "type": "uint256"
        }
      ],
      "name": "safeTransferFrom",
      "outputs": [],
      "stateMutability": "nonpayable",
      "type": "function"
    },
    {
      "inputs": [
        {
          "internalType": "address",
          "name": "from",
          "type": "address"
        },
        {
          "internalType": "address",
          "name": "to",
          "type": "address"
        },
        {
          "internalType": "uint256",
          "name": "tokenId",
          "type": "uint256"
        },
        {
          "internalType": "bytes",
          "name": "_data",
          "type": "bytes"
        }
      ],
      "name": "safeTransferFrom",
      "outputs": [],
      "stateMutability": "nonpayable",
      "type": "function"
    },
    {
      "inputs": [
        {
          "internalType": "address",
          "name": "operator",
          "type": "address"
        },
        {
          "internalType": "bool",
          "name": "approved",
          "type": "bool"
        }
      ],
      "name": "setApprovalForAll",
      "outputs": [],
      "stateMutability": "nonpayable",
      "type": "function"
    },
    {
      "inputs": [
        {
          "internalType": "uint256",
          "name": "_tokenId",
          "type": "uint256"
        },
        {
          "internalType": "uint256",
          "name": "_score",
          "type": "uint256"
        }
      ],
      "name": "setTokenScore",
      "outputs": [],
      "stateMutability": "nonpayable",
      "type": "function"
    },
    {
      "inputs": [
        {
          "internalType": "uint256",
          "name": "_tokenId",
          "type": "uint256"
        }
      ],
      "name": "stakeTeamInContest",
      "outputs": [],
      "stateMutability": "nonpayable",
      "type": "function"
    },
    {
      "inputs": [
        {
          "internalType": "bytes4",
          "name": "interfaceId",
          "type": "bytes4"
        }
      ],
      "name": "supportsInterface",
      "outputs": [
        {
          "internalType": "bool",
          "name": "",
          "type": "bool"
        }
      ],
      "stateMutability": "view",
      "type": "function"
    },
    {
      "inputs": [],
      "name": "symbol",
      "outputs": [
        {
          "internalType": "string",
          "name": "",
          "type": "string"
        }
      ],
      "stateMutability": "view",
      "type": "function"
    },
    {
      "inputs": [
        {
          "internalType": "uint256",
          "name": "index",
          "type": "uint256"
        }
      ],
      "name": "tokenByIndex",
      "outputs": [
        {
          "internalType": "uint256",
          "name": "",
          "type": "uint256"
        }
      ],
      "stateMutability": "view",
      "type": "function"
    },
    {
      "inputs": [
        {
          "internalType": "address",
          "name": "owner",
          "type": "address"
        },
        {
          "internalType": "uint256",
          "name": "index",
          "type": "uint256"
        }
      ],
      "name": "tokenOfOwnerByIndex",
      "outputs": [
        {
          "internalType": "uint256",
          "name": "",
          "type": "uint256"
        }
      ],
      "stateMutability": "view",
      "type": "function"
    },
    {
      "inputs": [
        {
          "internalType": "uint256",
          "name": "tokenId",
          "type": "uint256"
        }
      ],
      "name": "tokenURI",
      "outputs": [
        {
          "internalType": "string",
          "name": "",
          "type": "string"
        }
      ],
      "stateMutability": "view",
      "type": "function"
    },
    {
      "inputs": [],
      "name": "totalSupply",
      "outputs": [
        {
          "internalType": "uint256",
          "name": "",
          "type": "uint256"
        }
      ],
      "stateMutability": "view",
      "type": "function"
    },
    {
      "inputs": [
        {
          "internalType": "address",
          "name": "from",
          "type": "address"
        },
        {
          "internalType": "address",
          "name": "to",
          "type": "address"
        },
        {
          "internalType": "uint256",
          "name": "tokenId",
          "type": "uint256"
        }
      ],
      "name": "transferFrom",
      "outputs": [],
      "stateMutability": "nonpayable",
      "type": "function"
    },
    {
      "inputs": [],
      "name": "withdrawFunds",
      "outputs": [],
      "stateMutability": "nonpayable",
      "type": "function"
    }
  ],
  "bytecode": "0x6080604052733e4a729e0a975d61494f6992ab19271167d8e0ae601060006101000a81548173ffffffffffffffffffffffffffffffffffffffff021916908373ffffffffffffffffffffffffffffffffffffffff1602179055506040518060400160405280600881526020017f616953706f7274730000000000000000000000000000000000000000000000008152506040518060400160405280600381526020017f41495300000000000000000000000000000000000000000000000000000000008152508160009080519060200190620000dd92919062000227565b508060019080519060200190620000f692919062000227565b50505062000128604051806060016040528060328152602001620057b5603291396200014560201b620020f31760201c565b6200013f600a620001e860201b6200218c1760201c565b62000404565b620001e5816040516024016200015c919062000318565b6040516020818303038152906040527f41304fac000000000000000000000000000000000000000000000000000000007bffffffffffffffffffffffffffffffffffffffffffffffffffffffff19166020820180517bffffffffffffffffffffffffffffffffffffffffffffffffffffffff8381831617835250505050620001fe60201b60201c565b50565b6001816000016000828254019250508190555050565b60008151905060006a636f6e736f6c652e6c6f679050602083016000808483855afa5050505050565b82805462000235906200038e565b90600052602060002090601f016020900481019282620002595760008555620002a5565b82601f106200027457805160ff1916838001178555620002a5565b82800160010185558215620002a5579182015b82811115620002a457825182559160200191906001019062000287565b5b509050620002b49190620002b8565b5090565b5b80821115620002d3576000816000905550600101620002b9565b5090565b6000620002e4826200033c565b620002f0818562000347565b93506200030281856020860162000358565b6200030d81620003f3565b840191505092915050565b60006020820190508181036000830152620003348184620002d7565b905092915050565b600081519050919050565b600082825260208201905092915050565b60005b83811015620003785780820151818401526020810190506200035b565b8381111562000388576000848401525b50505050565b60006002820490506001821680620003a757607f821691505b60208210811415620003be57620003bd620003c4565b5b50919050565b7f4e487b7100000000000000000000000000000000000000000000000000000000600052602260045260246000fd5b6000601f19601f8301169050919050565b6153a180620004146000396000f3fe60806040526004361061019c5760003560e01c806370a08231116100ec578063ac332d581161008a578063c87b56dd11610064578063c87b56dd1461060c578063d14c214c14610649578063d611dc0314610672578063e985e9c5146106af5761019c565b8063ac332d581461057d578063b88d4fde146105ba578063bbe036d4146105e35761019c565b806395d89b41116100c657806395d89b41146104b657806398da4c95146104e1578063a22cb46514610529578063a7c31bdb146105525761019c565b806370a082311461041357806371f9328214610450578063775bb50e146104795761019c565b806324600fc3116101595780632f745c59116101335780632f745c591461033357806342842e0e146103705780634f6ccce7146103995780636352211e146103d65761019c565b806324600fc3146102c3578063257960b9146102da5780632d4dac51146102f65761019c565b806301ffc9a7146101a157806306fdde03146101de578063081812fc14610209578063095ea7b31461024657806318160ddd1461026f57806323b872dd1461029a575b600080fd5b3480156101ad57600080fd5b506101c860048036038101906101c39190613c05565b6106ec565b6040516101d591906149e4565b60405180910390f35b3480156101ea57600080fd5b506101f3610766565b60405161020091906149ff565b60405180910390f35b34801561021557600080fd5b50610230600480360381019061022b9190613d4a565b6107f8565b60405161023d91906148e6565b60405180910390f35b34801561025257600080fd5b5061026d60048036038101906102689190613bc9565b61087d565b005b34801561027b57600080fd5b50610284610995565b6040516102919190614e47565b60405180910390f35b3480156102a657600080fd5b506102c160048036038101906102bc9190613ac3565b6109a2565b005b3480156102cf57600080fd5b506102d8610a02565b005b6102f460048036038101906102ef9190613c57565b610b63565b005b34801561030257600080fd5b5061031d60048036038101906103189190613d4a565b610db0565b60405161032a91906149ff565b60405180910390f35b34801561033f57600080fd5b5061035a60048036038101906103559190613bc9565b610ef9565b6040516103679190614e47565b60405180910390f35b34801561037c57600080fd5b5061039760048036038101906103929190613ac3565b610f9e565b005b3480156103a557600080fd5b506103c060048036038101906103bb9190613d4a565b610fbe565b6040516103cd9190614e47565b60405180910390f35b3480156103e257600080fd5b506103fd60048036038101906103f89190613d4a565b611055565b60405161040a91906148e6565b60405180910390f35b34801561041f57600080fd5b5061043a60048036038101906104359190613a5e565b611107565b6040516104479190614e47565b60405180910390f35b34801561045c57600080fd5b5061047760048036038101906104729190613d4a565b6111bf565b005b34801561048557600080fd5b506104a0600480360381019061049b9190613bc9565b6114b1565b6040516104ad9190614e47565b60405180910390f35b3480156104c257600080fd5b506104cb6114e2565b6040516104d891906149ff565b60405180910390f35b3480156104ed57600080fd5b5061050860048036038101906105039190613d4a565b611574565b6040516105209c9b9a99989796959493929190614a66565b60405180910390f35b34801561053557600080fd5b50610550600480360381019061054b9190613b8d565b611669565b005b34801561055e57600080fd5b5061056761167f565b6040516105749190614992565b60405180910390f35b34801561058957600080fd5b506105a4600480360381019061059f9190613d4a565b6116d7565b6040516105b191906148e6565b60405180910390f35b3480156105c657600080fd5b506105e160048036038101906105dc9190613b12565b61170a565b005b3480156105ef57600080fd5b5061060a60048036038101906106059190613d4a565b61176c565b005b34801561061857600080fd5b50610633600480360381019061062e9190613d4a565b61198f565b60405161064091906149ff565b60405180910390f35b34801561065557600080fd5b50610670600480360381019061066b9190613d73565b611a36565b005b34801561067e57600080fd5b5061069960048036038101906106949190613d4a565b611eaf565b6040516106a69190614976565b60405180910390f35b3480156106bb57600080fd5b506106d660048036038101906106d19190613a87565b61205f565b6040516106e391906149e4565b60405180910390f35b60007f780e9d63000000000000000000000000000000000000000000000000000000007bffffffffffffffffffffffffffffffffffffffffffffffffffffffff1916827bffffffffffffffffffffffffffffffffffffffffffffffffffffffff1916148061075f575061075e826121a2565b5b9050919050565b60606000805461077590615172565b80601f01602080910402602001604051908101604052809291908181526020018280546107a190615172565b80156107ee5780601f106107c3576101008083540402835291602001916107ee565b820191906000526020600020905b8154815290600101906020018083116107d157829003601f168201915b5050505050905090565b600061080382612284565b610842576040517f08c379a000000000000000000000000000000000000000000000000000000000815260040161083990614d47565b60405180910390fd5b6004600083815260200190815260200160002060009054906101000a900473ffffffffffffffffffffffffffffffffffffffff169050919050565b600061088882611055565b90508073ffffffffffffffffffffffffffffffffffffffff168373ffffffffffffffffffffffffffffffffffffffff1614156108f9576040517f08c379a00000000000000000000000000000000000000000000000000000000081526004016108f090614da7565b60405180910390fd5b8073ffffffffffffffffffffffffffffffffffffffff166109186122f0565b73ffffffffffffffffffffffffffffffffffffffff1614806109475750610946816109416122f0565b61205f565b5b610986576040517f08c379a000000000000000000000000000000000000000000000000000000000815260040161097d90614ca7565b60405180910390fd5b61099083836122f8565b505050565b6000600880549050905090565b6109b36109ad6122f0565b826123b1565b6109f2576040517f08c379a00000000000000000000000000000000000000000000000000000000081526004016109e990614de7565b60405180910390fd5b6109fd83838361248f565b505050565b601060009054906101000a900473ffffffffffffffffffffffffffffffffffffffff1673ffffffffffffffffffffffffffffffffffffffff163373ffffffffffffffffffffffffffffffffffffffff1614610a92576040517f08c379a0000000000000000000000000000000000000000000000000000000008152600401610a8990614b27565b60405180910390fd5b6000601060009054906101000a900473ffffffffffffffffffffffffffffffffffffffff1673ffffffffffffffffffffffffffffffffffffffff1647604051610ada906148d1565b60006040518083038185875af1925050503d8060008114610b17576040519150601f19603f3d011682016040523d82523d6000602084013e610b1c565b606091505b5050905080610b60576040517f08c379a0000000000000000000000000000000000000000000000000000000008152600401610b5790614be7565b60405180910390fd5b50565b670de0b6b3a7640000341015610bae576040517f08c379a0000000000000000000000000000000000000000000000000000000008152600401610ba590614dc7565b60405180910390fd5b6000610bba600a6126eb565b9050610bc633826126f9565b6040518061018001604052808c81526020018b81526020018a81526020018981526020018881526020018781526020018681526020018581526020018481526020018381526020016000815260200160001515815250600e60008381526020019081526020016000206000820151816000019080519060200190610c4b9291906137f1565b506020820151816001015560408201518160020155606082015181600301556080820151816004015560a0820151816005015560c0820151816006015560e082015181600701556101008201518160080155610120820151816009015561014082015181600a015561016082015181600b0160006101000a81548160ff021916908315150217905550905050610cfa60405180606001604052806024815260200161534860249139828d612717565b600f60003373ffffffffffffffffffffffffffffffffffffffff1673ffffffffffffffffffffffffffffffffffffffff168152602001908152602001600020819080600181540180825580915050600190039060005260206000200160009091909190915055610d6a600a61218c565b7f03925e410bc1a04cf981f20ee92e136292a03b3cc71a1577ddd3f34fcb0f83f73382604051610d9b92919061494d565b60405180910390a15050505050505050505050565b60606000600e600084815260200190815260200160002060405180610180016040529081600082018054610de390615172565b80601f0160208091040260200160405190810160405280929190818152602001828054610e0f90615172565b8015610e5c5780601f10610e3157610100808354040283529160200191610e5c565b820191906000526020600020905b815481529060010190602001808311610e3f57829003601f168201915b50505050508152602001600182015481526020016002820154815260200160038201548152602001600482015481526020016005820154815260200160068201548152602001600782015481526020016008820154815260200160098201548152602001600a8201548152602001600b820160009054906101000a900460ff16151515158152505090506000816000015190508092505050919050565b6000610f0483611107565b8210610f45576040517f08c379a0000000000000000000000000000000000000000000000000000000008152600401610f3c90614b47565b60405180910390fd5b600660008473ffffffffffffffffffffffffffffffffffffffff1673ffffffffffffffffffffffffffffffffffffffff168152602001908152602001600020600083815260200190815260200160002054905092915050565b610fb98383836040518060200160405280600081525061170a565b505050565b6000610fc8610995565b8210611009576040517f08c379a000000000000000000000000000000000000000000000000000000000815260040161100090614e07565b60405180910390fd5b60088281548110611043577f4e487b7100000000000000000000000000000000000000000000000000000000600052603260045260246000fd5b90600052602060002001549050919050565b6000806002600084815260200190815260200160002060009054906101000a900473ffffffffffffffffffffffffffffffffffffffff169050600073ffffffffffffffffffffffffffffffffffffffff168173ffffffffffffffffffffffffffffffffffffffff1614156110fe576040517f08c379a00000000000000000000000000000000000000000000000000000000081526004016110f590614ce7565b60405180910390fd5b80915050919050565b60008073ffffffffffffffffffffffffffffffffffffffff168273ffffffffffffffffffffffffffffffffffffffff161415611178576040517f08c379a000000000000000000000000000000000000000000000000000000000815260040161116f90614cc7565b60405180910390fd5b600360008373ffffffffffffffffffffffffffffffffffffffff1673ffffffffffffffffffffffffffffffffffffffff168152602001908152602001600020549050919050565b6000600c54111561121057600c5442111561120f576040517f08c379a000000000000000000000000000000000000000000000000000000000815260040161120690614d07565b60405180910390fd5b5b60001515600e6000838152602001908152602001600020600b0160009054906101000a900460ff1615151461127a576040517f08c379a000000000000000000000000000000000000000000000000000000000815260040161127190614c27565b60405180910390fd5b6000600f60003373ffffffffffffffffffffffffffffffffffffffff1673ffffffffffffffffffffffffffffffffffffffff16815260200190815260200160002080548060200260200160405190810160405280929190818152602001828054801561130557602002820191906000526020600020905b8154815260200190600101908083116112f1575b505050505090506000805b825181101561137957828181518110611352577f4e487b7100000000000000000000000000000000000000000000000000000000600052603260045260246000fd5b602002602001015184141561136657600191505b8080611371906151a4565b915050611310565b50600115158115151461138b57600080fd5b6001600e6000858152602001908152602001600020600b0160006101000a81548160ff02191690831515021790555033600d600085815260200190815260200160002060006101000a81548173ffffffffffffffffffffffffffffffffffffffff021916908373ffffffffffffffffffffffffffffffffffffffff160217905550600b8390806001815401808255809150506001900390600052602060002001600090919091909150556114736040518060400160405280600f81526020017f436f6e7465737420456e746572656400000000000000000000000000000000008152506120f3565b7f03e94b64eda6b6e915d54bebd3dfbe6564958fb3bfe25f0a060c1f04265a528233846040516114a492919061494d565b60405180910390a1505050565b600f60205281600052604060002081815481106114cd57600080fd5b90600052602060002001600091509150505481565b6060600180546114f190615172565b80601f016020809104026020016040519081016040528092919081815260200182805461151d90615172565b801561156a5780601f1061153f5761010080835404028352916020019161156a565b820191906000526020600020905b81548152906001019060200180831161154d57829003601f168201915b5050505050905090565b600e60205280600052604060002060009150905080600001805461159790615172565b80601f01602080910402602001604051908101604052809291908181526020018280546115c390615172565b80156116105780601f106115e557610100808354040283529160200191611610565b820191906000526020600020905b8154815290600101906020018083116115f357829003601f168201915b50505050509080600101549080600201549080600301549080600401549080600501549080600601549080600701549080600801549080600901549080600a01549080600b0160009054906101000a900460ff1690508c565b61167b6116746122f0565b83836127b6565b5050565b6060600b8054806020026020016040519081016040528092919081815260200182805480156116cd57602002820191906000526020600020905b8154815260200190600101908083116116b9575b5050505050905090565b600d6020528060005260406000206000915054906101000a900473ffffffffffffffffffffffffffffffffffffffff1681565b61171b6117156122f0565b836123b1565b61175a576040517f08c379a000000000000000000000000000000000000000000000000000000000815260040161175190614de7565b60405180910390fd5b61176684848484612923565b50505050565b601060009054906101000a900473ffffffffffffffffffffffffffffffffffffffff1673ffffffffffffffffffffffffffffffffffffffff163373ffffffffffffffffffffffffffffffffffffffff16146117fc576040517f08c379a00000000000000000000000000000000000000000000000000000000081526004016117f390614e27565b60405180910390fd5b6000806000600b8054905011156118225761181561297f565b809250819350505061182b565b60009150600090505b60008267ffffffffffffffff81111561186d577f4e487b7100000000000000000000000000000000000000000000000000000000600052604160045260246000fd5b60405190808252806020026020018201604052801561189b5781602001602082028036833780820191505090505b50905060005b8381101561194657600b81815481106118e3577f4e487b7100000000000000000000000000000000000000000000000000000000600052603260045260246000fd5b9060005260206000200154828281518110611927577f4e487b7100000000000000000000000000000000000000000000000000000000600052603260045260246000fd5b602002602001018181525050808061193e906151a4565b9150506118a1565b5061195084612c80565b7f89c670bec9e427699e4432ecfdec1760dded1076ce8be74bb22ce00c2642114d81836040516119819291906149b4565b60405180910390a150505050565b606061199a82612284565b6119d9576040517f08c379a00000000000000000000000000000000000000000000000000000000081526004016119d090614d87565b60405180910390fd5b60006119e3612d36565b90506000815111611a035760405180602001604052806000815250611a2e565b80611a0d84612d4d565b604051602001611a1e9291906148ad565b6040516020818303038152906040525b915050919050565b601060009054906101000a900473ffffffffffffffffffffffffffffffffffffffff1673ffffffffffffffffffffffffffffffffffffffff163373ffffffffffffffffffffffffffffffffffffffff1614611ac6576040517f08c379a0000000000000000000000000000000000000000000000000000000008152600401611abd90614e27565b60405180910390fd5b60011515600e6000848152602001908152602001600020600b0160009054906101000a900460ff16151514611b30576040517f08c379a0000000000000000000000000000000000000000000000000000000008152600401611b2790614b87565b60405180910390fd5b80600e6000848152602001908152602001600020600a0181905550600080600b8054905067ffffffffffffffff811115611b93577f4e487b7100000000000000000000000000000000000000000000000000000000600052604160045260246000fd5b604051908082528060200260200182016040528015611bc15781602001602082028036833780820191505090505b5090506000805b600b80549050811015611e905785600b8281548110611c10577f4e487b7100000000000000000000000000000000000000000000000000000000600052603260045260246000fd5b90600052602060002001541415611c845783611c7f5785838381518110611c60577f4e487b7100000000000000000000000000000000000000000000000000000000600052603260045260246000fd5b602002602001018181525050600193508180611c7b906151a4565b9250505b611e7d565b83158015611ceb575084600e6000600b8481548110611ccc577f4e487b7100000000000000000000000000000000000000000000000000000000600052603260045260246000fd5b90600052602060002001548152602001908152602001600020600a0154105b15611de3576001935085838381518110611d2e577f4e487b7100000000000000000000000000000000000000000000000000000000600052603260045260246000fd5b602002602001018181525050600b8181548110611d74577f4e487b7100000000000000000000000000000000000000000000000000000000600052603260045260246000fd5b90600052602060002001548383611d8a906151a4565b93508381518110611dc4577f4e487b7100000000000000000000000000000000000000000000000000000000600052603260045260246000fd5b6020026020010181815250508180611ddb906151a4565b925050611e7c565b600b8181548110611e1d577f4e487b7100000000000000000000000000000000000000000000000000000000600052603260045260246000fd5b9060005260206000200154838381518110611e61577f4e487b7100000000000000000000000000000000000000000000000000000000600052603260045260246000fd5b6020026020010181815250508180611e78906151a4565b9250505b5b8080611e88906151a4565b915050611bc8565b5081600b9080519060200190611ea7929190613877565b505050505050565b611eb76138c4565b6000600e600084815260200190815260200160002060405180610180016040529081600082018054611ee890615172565b80601f0160208091040260200160405190810160405280929190818152602001828054611f1490615172565b8015611f615780601f10611f3657610100808354040283529160200191611f61565b820191906000526020600020905b815481529060010190602001808311611f4457829003601f168201915b50505050508152602001600182015481526020016002820154815260200160038201548152602001600482015481526020016005820154815260200160068201548152602001600782015481526020016008820154815260200160098201548152602001600a8201548152602001600b820160009054906101000a900460ff16151515158152505090506000604051806101200160405280836020015181526020018360400151815260200183606001518152602001836080015181526020018360a0015181526020018360c0015181526020018360e001518152602001836101000151815260200183610120015181525090508092505050919050565b6000600560008473ffffffffffffffffffffffffffffffffffffffff1673ffffffffffffffffffffffffffffffffffffffff16815260200190815260200160002060008373ffffffffffffffffffffffffffffffffffffffff1673ffffffffffffffffffffffffffffffffffffffff16815260200190815260200160002060009054906101000a900460ff16905092915050565b6121898160405160240161210791906149ff565b6040516020818303038152906040527f41304fac000000000000000000000000000000000000000000000000000000007bffffffffffffffffffffffffffffffffffffffffffffffffffffffff19166020820180517bffffffffffffffffffffffffffffffffffffffffffffffffffffffff8381831617835250505050612efa565b50565b6001816000016000828254019250508190555050565b60007f80ac58cd000000000000000000000000000000000000000000000000000000007bffffffffffffffffffffffffffffffffffffffffffffffffffffffff1916827bffffffffffffffffffffffffffffffffffffffffffffffffffffffff1916148061226d57507f5b5e139f000000000000000000000000000000000000000000000000000000007bffffffffffffffffffffffffffffffffffffffffffffffffffffffff1916827bffffffffffffffffffffffffffffffffffffffffffffffffffffffff1916145b8061227d575061227c82612f23565b5b9050919050565b60008073ffffffffffffffffffffffffffffffffffffffff166002600084815260200190815260200160002060009054906101000a900473ffffffffffffffffffffffffffffffffffffffff1673ffffffffffffffffffffffffffffffffffffffff1614159050919050565b600033905090565b816004600083815260200190815260200160002060006101000a81548173ffffffffffffffffffffffffffffffffffffffff021916908373ffffffffffffffffffffffffffffffffffffffff160217905550808273ffffffffffffffffffffffffffffffffffffffff1661236b83611055565b73ffffffffffffffffffffffffffffffffffffffff167f8c5be1e5ebec7d5bd14f71427d1e84f3dd0314c0f7b2291e5b200ac8c7c3b92560405160405180910390a45050565b60006123bc82612284565b6123fb576040517f08c379a00000000000000000000000000000000000000000000000000000000081526004016123f290614c87565b60405180910390fd5b600061240683611055565b90508073ffffffffffffffffffffffffffffffffffffffff168473ffffffffffffffffffffffffffffffffffffffff16148061247557508373ffffffffffffffffffffffffffffffffffffffff1661245d846107f8565b73ffffffffffffffffffffffffffffffffffffffff16145b806124865750612485818561205f565b5b91505092915050565b8273ffffffffffffffffffffffffffffffffffffffff166124af82611055565b73ffffffffffffffffffffffffffffffffffffffff1614612505576040517f08c379a00000000000000000000000000000000000000000000000000000000081526004016124fc90614d67565b60405180910390fd5b600073ffffffffffffffffffffffffffffffffffffffff168273ffffffffffffffffffffffffffffffffffffffff161415612575576040517f08c379a000000000000000000000000000000000000000000000000000000000815260040161256c90614c07565b60405180910390fd5b612580838383612f8d565b61258b6000826122f8565b6001600360008573ffffffffffffffffffffffffffffffffffffffff1673ffffffffffffffffffffffffffffffffffffffff16815260200190815260200160002060008282546125db9190615088565b925050819055506001600360008473ffffffffffffffffffffffffffffffffffffffff1673ffffffffffffffffffffffffffffffffffffffff16815260200190815260200160002060008282546126329190614fa7565b92505081905550816002600083815260200190815260200160002060006101000a81548173ffffffffffffffffffffffffffffffffffffffff021916908373ffffffffffffffffffffffffffffffffffffffff160217905550808273ffffffffffffffffffffffffffffffffffffffff168473ffffffffffffffffffffffffffffffffffffffff167fddf252ad1be2c89b69c2b068fc378daa952ba7f163c4a11628f55a4df523b3ef60405160405180910390a4505050565b600081600001549050919050565b6127138282604051806020016040528060008152506130a1565b5050565b6127b183838360405160240161272f93929190614a21565b6040516020818303038152906040527fa3f5c739000000000000000000000000000000000000000000000000000000007bffffffffffffffffffffffffffffffffffffffffffffffffffffffff19166020820180517bffffffffffffffffffffffffffffffffffffffffffffffffffffffff8381831617835250505050612efa565b505050565b8173ffffffffffffffffffffffffffffffffffffffff168373ffffffffffffffffffffffffffffffffffffffff161415612825576040517f08c379a000000000000000000000000000000000000000000000000000000000815260040161281c90614c47565b60405180910390fd5b80600560008573ffffffffffffffffffffffffffffffffffffffff1673ffffffffffffffffffffffffffffffffffffffff16815260200190815260200160002060008473ffffffffffffffffffffffffffffffffffffffff1673ffffffffffffffffffffffffffffffffffffffff16815260200190815260200160002060006101000a81548160ff0219169083151502179055508173ffffffffffffffffffffffffffffffffffffffff168373ffffffffffffffffffffffffffffffffffffffff167f17307eab39ab6107e8899845ad3d59bd9653f200f220920489ca2b5937696c318360405161291691906149e4565b60405180910390a3505050565b61292e84848461248f565b61293a848484846130fc565b612979576040517f08c379a000000000000000000000000000000000000000000000000000000000815260040161297090614b67565b60405180910390fd5b50505050565b6000806000670de0b6b3a7640000600b8054905061299d919061502e565b90506032816129ac9190614ffd565b816129b79190615088565b9050478111156129fc576040517f08c379a00000000000000000000000000000000000000000000000000000000081526004016129f390614bc7565b60405180910390fd5b60006002600b80549050612a1091906151ed565b6002600b80549050612a229190614ffd565b612a2c9190614fa7565b90505b600b8054905081108015612b025750600e6000600b8381548110612a7c577f4e487b7100000000000000000000000000000000000000000000000000000000600052603260045260246000fd5b90600052602060002001548152602001908152602001600020600a0154600e6000600b600185612aac9190615088565b81548110612ae3577f4e487b7100000000000000000000000000000000000000000000000000000000600052603260045260246000fd5b90600052602060002001548152602001908152602001600020600a0154145b15612b1a578080612b12906151a4565b915050612a2f565b60008183612b289190614ffd565b905060005b82811015612c72576000600d6000600b8481548110612b75577f4e487b7100000000000000000000000000000000000000000000000000000000600052603260045260246000fd5b9060005260206000200154815260200190815260200160002060009054906101000a900473ffffffffffffffffffffffffffffffffffffffff16905060008173ffffffffffffffffffffffffffffffffffffffff1684604051612bd7906148d1565b60006040518083038185875af1925050503d8060008114612c14576040519150601f19603f3d011682016040523d82523d6000602084013e612c19565b606091505b5050905080612c5d576040517f08c379a0000000000000000000000000000000000000000000000000000000008152600401612c5490614c67565b60405180910390fd5b50508080612c6a906151a4565b915050612b2d565b508181945094505050509091565b60005b600b80549050811015612d1d57600d6000600b8381548110612cce577f4e487b7100000000000000000000000000000000000000000000000000000000600052603260045260246000fd5b9060005260206000200154815260200190815260200160002060006101000a81549073ffffffffffffffffffffffffffffffffffffffff02191690558080612d15906151a4565b915050612c83565b50600b6000612d2c91906138e7565b80600c8190555050565b606060405180602001604052806000815250905090565b60606000821415612d95576040518060400160405280600181526020017f30000000000000000000000000000000000000000000000000000000000000008152509050612ef5565b600082905060005b60008214612dc7578080612db0906151a4565b915050600a82612dc09190614ffd565b9150612d9d565b60008167ffffffffffffffff811115612e09577f4e487b7100000000000000000000000000000000000000000000000000000000600052604160045260246000fd5b6040519080825280601f01601f191660200182016040528015612e3b5781602001600182028036833780820191505090505b5090505b60008514612eee57600182612e549190615088565b9150600a85612e6391906151ed565b6030612e6f9190614fa7565b60f81b818381518110612eab577f4e487b7100000000000000000000000000000000000000000000000000000000600052603260045260246000fd5b60200101907effffffffffffffffffffffffffffffffffffffffffffffffffffffffffffff1916908160001a905350600a85612ee79190614ffd565b9450612e3f565b8093505050505b919050565b60008151905060006a636f6e736f6c652e6c6f679050602083016000808483855afa5050505050565b60007f01ffc9a7000000000000000000000000000000000000000000000000000000007bffffffffffffffffffffffffffffffffffffffffffffffffffffffff1916827bffffffffffffffffffffffffffffffffffffffffffffffffffffffff1916149050919050565b612f98838383613293565b600073ffffffffffffffffffffffffffffffffffffffff168373ffffffffffffffffffffffffffffffffffffffff161415612fdb57612fd681613298565b61301a565b8173ffffffffffffffffffffffffffffffffffffffff168373ffffffffffffffffffffffffffffffffffffffff16146130195761301883826132e1565b5b5b600073ffffffffffffffffffffffffffffffffffffffff168273ffffffffffffffffffffffffffffffffffffffff16141561305d576130588161344e565b61309c565b8273ffffffffffffffffffffffffffffffffffffffff168273ffffffffffffffffffffffffffffffffffffffff161461309b5761309a8282613591565b5b5b505050565b6130ab8383613610565b6130b860008484846130fc565b6130f7576040517f08c379a00000000000000000000000000000000000000000000000000000000081526004016130ee90614b67565b60405180910390fd5b505050565b600061311d8473ffffffffffffffffffffffffffffffffffffffff166137de565b15613286578373ffffffffffffffffffffffffffffffffffffffff1663150b7a026131466122f0565b8786866040518563ffffffff1660e01b81526004016131689493929190614901565b602060405180830381600087803b15801561318257600080fd5b505af19250505080156131b357506040513d601f19601f820116820180604052508101906131b09190613c2e565b60015b613236573d80600081146131e3576040519150601f19603f3d011682016040523d82523d6000602084013e6131e8565b606091505b5060008151141561322e576040517f08c379a000000000000000000000000000000000000000000000000000000000815260040161322590614b67565b60405180910390fd5b805181602001fd5b63150b7a0260e01b7bffffffffffffffffffffffffffffffffffffffffffffffffffffffff1916817bffffffffffffffffffffffffffffffffffffffffffffffffffffffff19161491505061328b565b600190505b949350505050565b505050565b6008805490506009600083815260200190815260200160002081905550600881908060018154018082558091505060019003906000526020600020016000909190919091505550565b600060016132ee84611107565b6132f89190615088565b90506000600760008481526020019081526020016000205490508181146133dd576000600660008673ffffffffffffffffffffffffffffffffffffffff1673ffffffffffffffffffffffffffffffffffffffff168152602001908152602001600020600084815260200190815260200160002054905080600660008773ffffffffffffffffffffffffffffffffffffffff1673ffffffffffffffffffffffffffffffffffffffff168152602001908152602001600020600084815260200190815260200160002081905550816007600083815260200190815260200160002081905550505b6007600084815260200190815260200160002060009055600660008573ffffffffffffffffffffffffffffffffffffffff1673ffffffffffffffffffffffffffffffffffffffff16815260200190815260200160002060008381526020019081526020016000206000905550505050565b600060016008805490506134629190615088565b90506000600960008481526020019081526020016000205490506000600883815481106134b8577f4e487b7100000000000000000000000000000000000000000000000000000000600052603260045260246000fd5b906000526020600020015490508060088381548110613500577f4e487b7100000000000000000000000000000000000000000000000000000000600052603260045260246000fd5b906000526020600020018190555081600960008381526020019081526020016000208190555060096000858152602001908152602001600020600090556008805480613575577f4e487b7100000000000000000000000000000000000000000000000000000000600052603160045260246000fd5b6001900381819060005260206000200160009055905550505050565b600061359c83611107565b905081600660008573ffffffffffffffffffffffffffffffffffffffff1673ffffffffffffffffffffffffffffffffffffffff168152602001908152602001600020600083815260200190815260200160002081905550806007600084815260200190815260200160002081905550505050565b600073ffffffffffffffffffffffffffffffffffffffff168273ffffffffffffffffffffffffffffffffffffffff161415613680576040517f08c379a000000000000000000000000000000000000000000000000000000000815260040161367790614d27565b60405180910390fd5b61368981612284565b156136c9576040517f08c379a00000000000000000000000000000000000000000000000000000000081526004016136c090614ba7565b60405180910390fd5b6136d560008383612f8d565b6001600360008473ffffffffffffffffffffffffffffffffffffffff1673ffffffffffffffffffffffffffffffffffffffff16815260200190815260200160002060008282546137259190614fa7565b92505081905550816002600083815260200190815260200160002060006101000a81548173ffffffffffffffffffffffffffffffffffffffff021916908373ffffffffffffffffffffffffffffffffffffffff160217905550808273ffffffffffffffffffffffffffffffffffffffff16600073ffffffffffffffffffffffffffffffffffffffff167fddf252ad1be2c89b69c2b068fc378daa952ba7f163c4a11628f55a4df523b3ef60405160405180910390a45050565b600080823b905060008111915050919050565b8280546137fd90615172565b90600052602060002090601f01602090048101928261381f5760008555613866565b82601f1061383857805160ff1916838001178555613866565b82800160010185558215613866579182015b8281111561386557825182559160200191906001019061384a565b5b5090506138739190613908565b5090565b8280548282559060005260206000209081019282156138b3579160200282015b828111156138b2578251825591602001919060010190613897565b5b5090506138c09190613908565b5090565b604051806101200160405280600990602082028036833780820191505090505090565b50805460008255906000526020600020908101906139059190613908565b50565b5b80821115613921576000816000905550600101613909565b5090565b600061393861393384614e93565b614e62565b90508281526020810184848401111561395057600080fd5b61395b848285615130565b509392505050565b600061397661397184614ec3565b614e62565b90508281526020810184848401111561398e57600080fd5b613999848285615130565b509392505050565b6000813590506139b0816152eb565b92915050565b6000813590506139c581615302565b92915050565b6000813590506139da81615319565b92915050565b6000815190506139ef81615319565b92915050565b600082601f830112613a0657600080fd5b8135613a16848260208601613925565b91505092915050565b600082601f830112613a3057600080fd5b8135613a40848260208601613963565b91505092915050565b600081359050613a5881615330565b92915050565b600060208284031215613a7057600080fd5b6000613a7e848285016139a1565b91505092915050565b60008060408385031215613a9a57600080fd5b6000613aa8858286016139a1565b9250506020613ab9858286016139a1565b9150509250929050565b600080600060608486031215613ad857600080fd5b6000613ae6868287016139a1565b9350506020613af7868287016139a1565b9250506040613b0886828701613a49565b9150509250925092565b60008060008060808587031215613b2857600080fd5b6000613b36878288016139a1565b9450506020613b47878288016139a1565b9350506040613b5887828801613a49565b925050606085013567ffffffffffffffff811115613b7557600080fd5b613b81878288016139f5565b91505092959194509250565b60008060408385031215613ba057600080fd5b6000613bae858286016139a1565b9250506020613bbf858286016139b6565b9150509250929050565b60008060408385031215613bdc57600080fd5b6000613bea858286016139a1565b9250506020613bfb85828601613a49565b9150509250929050565b600060208284031215613c1757600080fd5b6000613c25848285016139cb565b91505092915050565b600060208284031215613c4057600080fd5b6000613c4e848285016139e0565b91505092915050565b6000806000806000806000806000806101408b8d031215613c7757600080fd5b60008b013567ffffffffffffffff811115613c9157600080fd5b613c9d8d828e01613a1f565b9a50506020613cae8d828e01613a49565b9950506040613cbf8d828e01613a49565b9850506060613cd08d828e01613a49565b9750506080613ce18d828e01613a49565b96505060a0613cf28d828e01613a49565b95505060c0613d038d828e01613a49565b94505060e0613d148d828e01613a49565b935050610100613d268d828e01613a49565b925050610120613d388d828e01613a49565b9150509295989b9194979a5092959850565b600060208284031215613d5c57600080fd5b6000613d6a84828501613a49565b91505092915050565b60008060408385031215613d8657600080fd5b6000613d9485828601613a49565b9250506020613da585828601613a49565b9150509250929050565b6000613dbb838361488f565b60208301905092915050565b613dd0816150bc565b82525050565b613ddf81614f0d565b613de98184614f53565b9250613df482614ef3565b8060005b83811015613e25578151613e0c8782613daf565b9650613e1783614f39565b925050600181019050613df8565b505050505050565b6000613e3882614f18565b613e428185614f5e565b9350613e4d83614efd565b8060005b83811015613e7e578151613e658882613daf565b9750613e7083614f46565b925050600181019050613e51565b5085935050505092915050565b613e94816150ce565b82525050565b6000613ea582614f23565b613eaf8185614f6f565b9350613ebf81856020860161513f565b613ec8816152da565b840191505092915050565b6000613ede82614f2e565b613ee88185614f8b565b9350613ef881856020860161513f565b613f01816152da565b840191505092915050565b6000613f1782614f2e565b613f218185614f9c565b9350613f3181856020860161513f565b80840191505092915050565b6000613f4a602a83614f8b565b91507f6f6e6c7920616953706f727473206f776e65722063616e2063616c6c2074686960008301527f732066756e6374696f6e000000000000000000000000000000000000000000006020830152604082019050919050565b6000613fb0602b83614f8b565b91507f455243373231456e756d657261626c653a206f776e657220696e646578206f7560008301527f74206f6620626f756e64730000000000000000000000000000000000000000006020830152604082019050919050565b6000614016603283614f8b565b91507f4552433732313a207472616e7366657220746f206e6f6e20455243373231526560008301527f63656976657220696d706c656d656e74657200000000000000000000000000006020830152604082019050919050565b600061407c602583614f8b565b91507f746f6b656e206e6565647320746f206265207374616b656420746f207365742060008301527f73636f72650000000000000000000000000000000000000000000000000000006020830152604082019050919050565b60006140e2601c83614f8b565b91507f4552433732313a20746f6b656e20616c7265616479206d696e746564000000006000830152602082019050919050565b6000614122603483614f8b565b91507f547279696e6720746f207769746864726177206d6f7265206d6f6e657920746860008301527f616e2074686520636f6e7472616374206861732e0000000000000000000000006020830152604082019050919050565b6000614188602983614f8b565b91507f4661696c656420746f2077697468647261772062616c616e63652066726f6d2060008301527f636f6e74726163742e00000000000000000000000000000000000000000000006020830152604082019050919050565b60006141ee602483614f8b565b91507f4552433732313a207472616e7366657220746f20746865207a65726f2061646460008301527f72657373000000000000000000000000000000000000000000000000000000006020830152604082019050919050565b6000614254601c83614f8b565b91507f5465616d2068617320616c7265616479206265656e207374616b6564000000006000830152602082019050919050565b6000614294601983614f8b565b91507f4552433732313a20617070726f766520746f2063616c6c6572000000000000006000830152602082019050919050565b60006142d4602783614f8b565b91507f4661696c656420746f207769746864726177206d6f6e65792066726f6d20636f60008301527f6e74726163742e000000000000000000000000000000000000000000000000006020830152604082019050919050565b600061433a602c83614f8b565b91507f4552433732313a206f70657261746f7220717565727920666f72206e6f6e657860008301527f697374656e7420746f6b656e00000000000000000000000000000000000000006020830152604082019050919050565b60006143a0603883614f8b565b91507f4552433732313a20617070726f76652063616c6c6572206973206e6f74206f7760008301527f6e6572206e6f7220617070726f76656420666f7220616c6c00000000000000006020830152604082019050919050565b6000614406602a83614f8b565b91507f4552433732313a2062616c616e636520717565727920666f7220746865207a6560008301527f726f2061646472657373000000000000000000000000000000000000000000006020830152604082019050919050565b600061446c602983614f8b565b91507f4552433732313a206f776e657220717565727920666f72206e6f6e657869737460008301527f656e7420746f6b656e00000000000000000000000000000000000000000000006020830152604082019050919050565b60006144d2601083614f8b565b91507f506173736564206c6f636b2074696d65000000000000000000000000000000006000830152602082019050919050565b6000614512602083614f8b565b91507f4552433732313a206d696e7420746f20746865207a65726f20616464726573736000830152602082019050919050565b6000614552602c83614f8b565b91507f4552433732313a20617070726f76656420717565727920666f72206e6f6e657860008301527f697374656e7420746f6b656e00000000000000000000000000000000000000006020830152604082019050919050565b60006145b8602983614f8b565b91507f4552433732313a207472616e73666572206f6620746f6b656e2074686174206960008301527f73206e6f74206f776e00000000000000000000000000000000000000000000006020830152604082019050919050565b600061461e602f83614f8b565b91507f4552433732314d657461646174613a2055524920717565727920666f72206e6f60008301527f6e6578697374656e7420746f6b656e00000000000000000000000000000000006020830152604082019050919050565b6000614684602183614f8b565b91507f4552433732313a20617070726f76616c20746f2063757272656e74206f776e6560008301527f72000000000000000000000000000000000000000000000000000000000000006020830152604082019050919050565b60006146ea602583614f8b565b91507f4572726f723a206e6f7420656e6f7567682045544820746f204d696e7420612060008301527f7465616d2e0000000000000000000000000000000000000000000000000000006020830152604082019050919050565b6000614750600083614f80565b9150600082019050919050565b600061476a603183614f8b565b91507f4552433732313a207472616e736665722063616c6c6572206973206e6f74206f60008301527f776e6572206e6f7220617070726f7665640000000000000000000000000000006020830152604082019050919050565b60006147d0602c83614f8b565b91507f455243373231456e756d657261626c653a20676c6f62616c20696e646578206f60008301527f7574206f6620626f756e647300000000000000000000000000000000000000006020830152604082019050919050565b6000614836602483614f8b565b91507f6f6e6c7920616953706f7274732063616e2063616c6c20746869732066756e6360008301527f74696f6e000000000000000000000000000000000000000000000000000000006020830152604082019050919050565b61489881615126565b82525050565b6148a781615126565b82525050565b60006148b98285613f0c565b91506148c58284613f0c565b91508190509392505050565b60006148dc82614743565b9150819050919050565b60006020820190506148fb6000830184613dc7565b92915050565b60006080820190506149166000830187613dc7565b6149236020830186613dc7565b614930604083018561489e565b81810360608301526149428184613e9a565b905095945050505050565b60006040820190506149626000830185613dc7565b61496f602083018461489e565b9392505050565b60006101208201905061498c6000830184613dd6565b92915050565b600060208201905081810360008301526149ac8184613e2d565b905092915050565b600060408201905081810360008301526149ce8185613e2d565b90506149dd602083018461489e565b9392505050565b60006020820190506149f96000830184613e8b565b92915050565b60006020820190508181036000830152614a198184613ed3565b905092915050565b60006060820190508181036000830152614a3b8186613ed3565b9050614a4a602083018561489e565b8181036040830152614a5c8184613ed3565b9050949350505050565b6000610180820190508181036000830152614a81818f613ed3565b9050614a90602083018e61489e565b614a9d604083018d61489e565b614aaa606083018c61489e565b614ab7608083018b61489e565b614ac460a083018a61489e565b614ad160c083018961489e565b614ade60e083018861489e565b614aec61010083018761489e565b614afa61012083018661489e565b614b0861014083018561489e565b614b16610160830184613e8b565b9d9c50505050505050505050505050565b60006020820190508181036000830152614b4081613f3d565b9050919050565b60006020820190508181036000830152614b6081613fa3565b9050919050565b60006020820190508181036000830152614b8081614009565b9050919050565b60006020820190508181036000830152614ba08161406f565b9050919050565b60006020820190508181036000830152614bc0816140d5565b9050919050565b60006020820190508181036000830152614be081614115565b9050919050565b60006020820190508181036000830152614c008161417b565b9050919050565b60006020820190508181036000830152614c20816141e1565b9050919050565b60006020820190508181036000830152614c4081614247565b9050919050565b60006020820190508181036000830152614c6081614287565b9050919050565b60006020820190508181036000830152614c80816142c7565b9050919050565b60006020820190508181036000830152614ca08161432d565b9050919050565b60006020820190508181036000830152614cc081614393565b9050919050565b60006020820190508181036000830152614ce0816143f9565b9050919050565b60006020820190508181036000830152614d008161445f565b9050919050565b60006020820190508181036000830152614d20816144c5565b9050919050565b60006020820190508181036000830152614d4081614505565b9050919050565b60006020820190508181036000830152614d6081614545565b9050919050565b60006020820190508181036000830152614d80816145ab565b9050919050565b60006020820190508181036000830152614da081614611565b9050919050565b60006020820190508181036000830152614dc081614677565b9050919050565b60006020820190508181036000830152614de0816146dd565b9050919050565b60006020820190508181036000830152614e008161475d565b9050919050565b60006020820190508181036000830152614e20816147c3565b9050919050565b60006020820190508181036000830152614e4081614829565b9050919050565b6000602082019050614e5c600083018461489e565b92915050565b6000604051905081810181811067ffffffffffffffff82111715614e8957614e886152ab565b5b8060405250919050565b600067ffffffffffffffff821115614eae57614ead6152ab565b5b601f19601f8301169050602081019050919050565b600067ffffffffffffffff821115614ede57614edd6152ab565b5b601f19601f8301169050602081019050919050565b6000819050919050565b6000819050602082019050919050565b600060099050919050565b600081519050919050565b600081519050919050565b600081519050919050565b6000602082019050919050565b6000602082019050919050565b600081905092915050565b600082825260208201905092915050565b600082825260208201905092915050565b600081905092915050565b600082825260208201905092915050565b600081905092915050565b6000614fb282615126565b9150614fbd83615126565b9250827fffffffffffffffffffffffffffffffffffffffffffffffffffffffffffffffff03821115614ff257614ff161521e565b5b828201905092915050565b600061500882615126565b915061501383615126565b9250826150235761502261524d565b5b828204905092915050565b600061503982615126565b915061504483615126565b9250817fffffffffffffffffffffffffffffffffffffffffffffffffffffffffffffffff048311821515161561507d5761507c61521e565b5b828202905092915050565b600061509382615126565b915061509e83615126565b9250828210156150b1576150b061521e565b5b828203905092915050565b60006150c782615106565b9050919050565b60008115159050919050565b60007fffffffff0000000000000000000000000000000000000000000000000000000082169050919050565b600073ffffffffffffffffffffffffffffffffffffffff82169050919050565b6000819050919050565b82818337600083830152505050565b60005b8381101561515d578082015181840152602081019050615142565b8381111561516c576000848401525b50505050565b6000600282049050600182168061518a57607f821691505b6020821081141561519e5761519d61527c565b5b50919050565b60006151af82615126565b91507fffffffffffffffffffffffffffffffffffffffffffffffffffffffffffffffff8214156151e2576151e161521e565b5b600182019050919050565b60006151f882615126565b915061520383615126565b9250826152135761521261524d565b5b828206905092915050565b7f4e487b7100000000000000000000000000000000000000000000000000000000600052601160045260246000fd5b7f4e487b7100000000000000000000000000000000000000000000000000000000600052601260045260246000fd5b7f4e487b7100000000000000000000000000000000000000000000000000000000600052602260045260246000fd5b7f4e487b7100000000000000000000000000000000000000000000000000000000600052604160045260246000fd5b6000601f19601f8301169050919050565b6152f4816150bc565b81146152ff57600080fd5b50565b61530b816150ce565b811461531657600080fd5b50565b615322816150da565b811461532d57600080fd5b50565b61533981615126565b811461534457600080fd5b5056fe4d696e746564204e465420772f20746f6b656e496420257320666f722044617465202573a2646970667358221220c27930b686c83dc726c7ff0705e70427b5110b85b489ca3eba9eafa257db572864736f6c63430008000033596f20796f2c204920616d206120636f6e747261637420616e64204920616d204d696e74696e67206120444653207465616d",
  "linkReferences": {},
  "deployedLinkReferences": {}
}