{
  "_format": "hh-sol-artifact-1",
  "contractName": "NFTickets",
  "sourceName": "contracts/NFTickets.sol",
  "abi": [
    {
      "inputs": [],
      "stateMutability": "nonpayable",
      "type": "constructor"
    },
    {
      "anonymous": false,
      "inputs": [
        {
          "indexed": true,
          "internalType": "address",
          "name": "owner",
          "type": "address"
        },
        {
          "indexed": true,
          "internalType": "address",
          "name": "approved",
          "type": "address"
        },
        {
          "indexed": true,
          "internalType": "uint256",
          "name": "tokenId",
          "type": "uint256"
        }
      ],
      "name": "Approval",
      "type": "event"
    },
    {
      "anonymous": false,
      "inputs": [
        {
          "indexed": true,
          "internalType": "address",
          "name": "owner",
          "type": "address"
        },
        {
          "indexed": true,
          "internalType": "address",
          "name": "operator",
          "type": "address"
        },
        {
          "indexed": false,
          "internalType": "bool",
          "name": "approved",
          "type": "bool"
        }
      ],
      "name": "ApprovalForAll",
      "type": "event"
    },
    {
      "anonymous": false,
      "inputs": [
        {
          "indexed": true,
          "internalType": "address",
          "name": "previousOwner",
          "type": "address"
        },
        {
          "indexed": true,
          "internalType": "address",
          "name": "newOwner",
          "type": "address"
        }
      ],
      "name": "OwnershipTransferred",
      "type": "event"
    },
    {
      "anonymous": false,
      "inputs": [
        {
          "indexed": true,
          "internalType": "address",
          "name": "from",
          "type": "address"
        },
        {
          "indexed": true,
          "internalType": "address",
          "name": "to",
          "type": "address"
        },
        {
          "indexed": true,
          "internalType": "uint256",
          "name": "tokenId",
          "type": "uint256"
        }
      ],
      "name": "Transfer",
      "type": "event"
    },
    {
      "anonymous": false,
      "inputs": [
        {
          "indexed": false,
          "internalType": "address",
          "name": "owner",
          "type": "address"
        },
        {
          "indexed": false,
          "internalType": "uint256",
          "name": "eventID",
          "type": "uint256"
        }
      ],
      "name": "eventInitialized",
      "type": "event"
    },
    {
      "anonymous": false,
      "inputs": [
        {
          "indexed": false,
          "internalType": "address",
          "name": "sender",
          "type": "address"
        },
        {
          "indexed": false,
          "internalType": "uint256",
          "name": "tokenId",
          "type": "uint256"
        }
      ],
      "name": "minted",
      "type": "event"
    },
    {
      "anonymous": false,
      "inputs": [
        {
          "indexed": false,
          "internalType": "uint256",
          "name": "eventID",
          "type": "uint256"
        }
      ],
      "name": "winnersNotPicked",
      "type": "event"
    },
    {
      "anonymous": false,
      "inputs": [
        {
          "indexed": false,
          "internalType": "uint256",
          "name": "eventID",
          "type": "uint256"
        },
        {
          "indexed": false,
          "internalType": "uint256[]",
          "name": "winningTokenIDs",
          "type": "uint256[]"
        }
      ],
      "name": "winnersPicked",
      "type": "event"
    },
    {
      "inputs": [
        {
          "internalType": "address",
          "name": "to",
          "type": "address"
        },
        {
          "internalType": "uint256",
          "name": "tokenId",
          "type": "uint256"
        }
      ],
      "name": "approve",
      "outputs": [],
      "stateMutability": "nonpayable",
      "type": "function"
    },
    {
      "inputs": [
        {
          "internalType": "address",
          "name": "owner",
          "type": "address"
        }
      ],
      "name": "balanceOf",
      "outputs": [
        {
          "internalType": "uint256",
          "name": "",
          "type": "uint256"
        }
      ],
      "stateMutability": "view",
      "type": "function"
    },
    {
      "inputs": [
        {
          "internalType": "uint256",
          "name": "",
          "type": "uint256"
        }
      ],
      "name": "events",
      "outputs": [
        {
          "internalType": "string",
          "name": "eventName",
          "type": "string"
        },
        {
          "internalType": "string",
          "name": "eventVendor",
          "type": "string"
        },
        {
          "internalType": "string",
          "name": "date",
          "type": "string"
        },
        {
          "internalType": "string",
          "name": "time",
          "type": "string"
        },
        {
          "internalType": "string",
          "name": "cid",
          "type": "string"
        },
        {
          "internalType": "uint256",
          "name": "ticketsMinted",
          "type": "uint256"
        },
        {
          "internalType": "uint256",
          "name": "maxCapacity",
          "type": "uint256"
        },
        {
          "internalType": "uint256",
          "name": "startingTokenID",
          "type": "uint256"
        },
        {
          "internalType": "address",
          "name": "eventOwner",
          "type": "address"
        }
      ],
      "stateMutability": "view",
      "type": "function"
    },
    {
      "inputs": [
        {
          "internalType": "uint256",
          "name": "tokenId",
          "type": "uint256"
        }
      ],
      "name": "getApproved",
      "outputs": [
        {
          "internalType": "address",
          "name": "",
          "type": "address"
        }
      ],
      "stateMutability": "view",
      "type": "function"
    },
    {
      "inputs": [],
      "name": "getRandomNumber",
      "outputs": [
        {
          "internalType": "bytes32",
          "name": "requestId",
          "type": "bytes32"
        }
      ],
      "stateMutability": "nonpayable",
      "type": "function"
    },
    {
      "inputs": [
        {
          "internalType": "string",
          "name": "eventName",
          "type": "string"
        },
        {
          "internalType": "string",
          "name": "eventVendor",
          "type": "string"
        },
        {
          "internalType": "string",
          "name": "date",
          "type": "string"
        },
        {
          "internalType": "string",
          "name": "time",
          "type": "string"
        },
        {
          "internalType": "string",
          "name": "cid",
          "type": "string"
        },
        {
          "internalType": "uint256",
          "name": "maxCapacity",
          "type": "uint256"
        }
      ],
      "name": "initEvent",
      "outputs": [
        {
          "internalType": "uint256",
          "name": "",
          "type": "uint256"
        }
      ],
      "stateMutability": "nonpayable",
      "type": "function"
    },
    {
      "inputs": [
        {
          "internalType": "address",
          "name": "owner",
          "type": "address"
        },
        {
          "internalType": "address",
          "name": "operator",
          "type": "address"
        }
      ],
      "name": "isApprovedForAll",
      "outputs": [
        {
          "internalType": "bool",
          "name": "",
          "type": "bool"
        }
      ],
      "stateMutability": "view",
      "type": "function"
    },
    {
      "inputs": [
        {
          "internalType": "uint256",
          "name": "eventID",
          "type": "uint256"
        }
      ],
      "name": "mintTicket",
      "outputs": [
        {
          "internalType": "uint256",
          "name": "",
          "type": "uint256"
        }
      ],
      "stateMutability": "payable",
      "type": "function"
    },
    {
      "inputs": [],
      "name": "name",
      "outputs": [
        {
          "internalType": "string",
          "name": "",
          "type": "string"
        }
      ],
      "stateMutability": "view",
      "type": "function"
    },
    {
      "inputs": [],
      "name": "owner",
      "outputs": [
        {
          "internalType": "address",
          "name": "",
          "type": "address"
        }
      ],
      "stateMutability": "view",
      "type": "function"
    },
    {
      "inputs": [
        {
          "internalType": "uint256",
          "name": "tokenId",
          "type": "uint256"
        }
      ],
      "name": "ownerOf",
      "outputs": [
        {
          "internalType": "address",
          "name": "",
          "type": "address"
        }
      ],
      "stateMutability": "view",
      "type": "function"
    },
    {
      "inputs": [
        {
          "internalType": "uint256",
          "name": "eventID",
          "type": "uint256"
        },
        {
          "internalType": "uint256",
          "name": "numberOfWinners",
          "type": "uint256"
        }
      ],
      "name": "pickWinners",
      "outputs": [],
      "stateMutability": "nonpayable",
      "type": "function"
    },
    {
      "inputs": [
        {
          "internalType": "bytes32",
          "name": "requestId",
          "type": "bytes32"
        },
        {
          "internalType": "uint256",
          "name": "randomness",
          "type": "uint256"
        }
      ],
      "name": "rawFulfillRandomness",
      "outputs": [],
      "stateMutability": "nonpayable",
      "type": "function"
    },
    {
      "inputs": [],
      "name": "renounceOwnership",
      "outputs": [],
      "stateMutability": "nonpayable",
      "type": "function"
    },
    {
      "inputs": [
        {
          "internalType": "address",
          "name": "from",
          "type": "address"
        },
        {
          "internalType": "address",
          "name": "to",
          "type": "address"
        },
        {
          "internalType": "uint256",
          "name": "tokenId",
          "type": "uint256"
        }
      ],
      "name": "safeTransferFrom",
      "outputs": [],
      "stateMutability": "nonpayable",
      "type": "function"
    },
    {
      "inputs": [
        {
          "internalType": "address",
          "name": "from",
          "type": "address"
        },
        {
          "internalType": "address",
          "name": "to",
          "type": "address"
        },
        {
          "internalType": "uint256",
          "name": "tokenId",
          "type": "uint256"
        },
        {
          "internalType": "bytes",
          "name": "_data",
          "type": "bytes"
        }
      ],
      "name": "safeTransferFrom",
      "outputs": [],
      "stateMutability": "nonpayable",
      "type": "function"
    },
    {
      "inputs": [
        {
          "internalType": "address",
          "name": "operator",
          "type": "address"
        },
        {
          "internalType": "bool",
          "name": "approved",
          "type": "bool"
        }
      ],
      "name": "setApprovalForAll",
      "outputs": [],
      "stateMutability": "nonpayable",
      "type": "function"
    },
    {
      "inputs": [
        {
          "internalType": "bytes4",
          "name": "interfaceId",
          "type": "bytes4"
        }
      ],
      "name": "supportsInterface",
      "outputs": [
        {
          "internalType": "bool",
          "name": "",
          "type": "bool"
        }
      ],
      "stateMutability": "view",
      "type": "function"
    },
    {
      "inputs": [],
      "name": "symbol",
      "outputs": [
        {
          "internalType": "string",
          "name": "",
          "type": "string"
        }
      ],
      "stateMutability": "view",
      "type": "function"
    },
    {
      "inputs": [
        {
          "internalType": "uint256",
          "name": "",
          "type": "uint256"
        }
      ],
      "name": "ticketMap",
      "outputs": [
        {
          "internalType": "address",
          "name": "",
          "type": "address"
        }
      ],
      "stateMutability": "view",
      "type": "function"
    },
    {
      "inputs": [
        {
          "internalType": "uint256",
          "name": "tokenId",
          "type": "uint256"
        }
      ],
      "name": "tokenURI",
      "outputs": [
        {
          "internalType": "string",
          "name": "",
          "type": "string"
        }
      ],
      "stateMutability": "view",
      "type": "function"
    },
    {
      "inputs": [
        {
          "internalType": "uint256",
          "name": "",
          "type": "uint256"
        }
      ],
      "name": "tokens",
      "outputs": [
        {
          "internalType": "address",
          "name": "owner",
          "type": "address"
        },
        {
          "internalType": "uint256",
          "name": "eventID",
          "type": "uint256"
        },
        {
          "internalType": "string",
          "name": "winner",
          "type": "string"
        }
      ],
      "stateMutability": "view",
      "type": "function"
    },
    {
      "inputs": [
        {
          "internalType": "address",
          "name": "from",
          "type": "address"
        },
        {
          "internalType": "address",
          "name": "to",
          "type": "address"
        },
        {
          "internalType": "uint256",
          "name": "tokenId",
          "type": "uint256"
        }
      ],
      "name": "transferFrom",
      "outputs": [],
      "stateMutability": "nonpayable",
      "type": "function"
    },
    {
      "inputs": [
        {
          "internalType": "address",
          "name": "newOwner",
          "type": "address"
        }
      ],
      "name": "transferOwnership",
      "outputs": [],
      "stateMutability": "nonpayable",
      "type": "function"
    },
    {
      "inputs": [
        {
          "internalType": "address",
          "name": "owner",
          "type": "address"
        },
        {
          "internalType": "uint256",
          "name": "tokenID",
          "type": "uint256"
        }
      ],
      "name": "verifyTicket",
      "outputs": [
        {
          "internalType": "bool",
          "name": "",
          "type": "bool"
        }
      ],
      "stateMutability": "view",
      "type": "function"
    }
  ],
  "bytecode": "0x60c06040523480156200001157600080fd5b50738c7382f9d8f56b33781fe506e897a4f1e2d1725573326c977e6efc84e512bb9c30f76e30c160ed06fb6040518060400160405280600881526020017f4e465469636b65740000000000000000000000000000000000000000000000008152506040518060400160405280600381526020017f4e465400000000000000000000000000000000000000000000000000000000008152508160009080519060200190620000c092919062000277565b508060019080519060200190620000d992919062000277565b5050508173ffffffffffffffffffffffffffffffffffffffff1660a08173ffffffffffffffffffffffffffffffffffffffff1660601b815250508073ffffffffffffffffffffffffffffffffffffffff1660808173ffffffffffffffffffffffffffffffffffffffff1660601b8152505050506200016c62000160620001a960201b60201c565b620001b160201b60201c565b7f6e75b569a01ef56d18cab6a8e71e6600d6ce853834d4a5748b720d06f878b3a460001b600d81905550655af3107a4000600e819055506200038c565b600033905090565b6000600860009054906101000a900473ffffffffffffffffffffffffffffffffffffffff16905081600860006101000a81548173ffffffffffffffffffffffffffffffffffffffff021916908373ffffffffffffffffffffffffffffffffffffffff1602179055508173ffffffffffffffffffffffffffffffffffffffff168173ffffffffffffffffffffffffffffffffffffffff167f8be0079c531659141344cd1fd0a4f28419497f9722a3daafe3b4186f6b6457e060405160405180910390a35050565b828054620002859062000327565b90600052602060002090601f016020900481019282620002a95760008555620002f5565b82601f10620002c457805160ff1916838001178555620002f5565b82800160010185558215620002f5579182015b82811115620002f4578251825591602001919060010190620002d7565b5b50905062000304919062000308565b5090565b5b808211156200032357600081600090555060010162000309565b5090565b600060028204905060018216806200034057607f821691505b602082108114156200035757620003566200035d565b5b50919050565b7f4e487b7100000000000000000000000000000000000000000000000000000000600052602260045260246000fd5b60805160601c60a05160601c61542f620003c6600039600081816116630152612a0b015260008181611bf601526129cf015261542f6000f3fe6080604052600436106101665760003560e01c806370a08231116100d1578063a22cb4651161008a578063dbdff2c111610064578063dbdff2c114610581578063e146fc54146105ac578063e985e9c5146105e9578063f2fde38b1461062657610166565b8063a22cb465146104f2578063b88d4fde1461051b578063c87b56dd1461054457610166565b806370a08231146103f6578063715018a6146104335780638da5cb5b1461044a57806394985ddd1461047557806395d89b411461049e57806398071fa5146104c957610166565b806323b872dd1161012357806323b872dd146102bb578063256d52f6146102e457806342842e0e146103145780634f64b2be1461033d578063500e3cbd1461037c5780636352211e146103b957610166565b806301ffc9a71461016b57806306fdde03146101a8578063081812fc146101d3578063095ea7b3146102105780630b791430146102395780631619c6d31461027e575b600080fd5b34801561017757600080fd5b50610192600480360381019061018d919061372c565b61064f565b60405161019f919061417c565b60405180910390f35b3480156101b457600080fd5b506101bd610731565b6040516101ca9190614220565b60405180910390f35b3480156101df57600080fd5b506101fa60048036038101906101f5919061387f565b6107c3565b6040516102079190614070565b60405180910390f35b34801561021c57600080fd5b506102376004803603810190610232919061368b565b610848565b005b34801561024557600080fd5b50610260600480360381019061025b919061387f565b610960565b60405161027599989796959493929190614242565b60405180910390f35b34801561028a57600080fd5b506102a560048036038101906102a0919061368b565b610c76565b6040516102b2919061417c565b60405180910390f35b3480156102c757600080fd5b506102e260048036038101906102dd9190613585565b610cf6565b005b6102fe60048036038101906102f9919061387f565b610d56565b60405161030b91906145b2565b60405180910390f35b34801561032057600080fd5b5061033b60048036038101906103369190613585565b611320565b005b34801561034957600080fd5b50610364600480360381019061035f919061387f565b611340565b6040516103739392919061413e565b60405180910390f35b34801561038857600080fd5b506103a3600480360381019061039e919061387f565b611412565b6040516103b09190614070565b60405180910390f35b3480156103c557600080fd5b506103e060048036038101906103db919061387f565b611445565b6040516103ed9190614070565b60405180910390f35b34801561040257600080fd5b5061041d60048036038101906104189190613520565b6114f7565b60405161042a91906145b2565b60405180910390f35b34801561043f57600080fd5b506104486115af565b005b34801561045657600080fd5b5061045f611637565b60405161046c9190614070565b60405180910390f35b34801561048157600080fd5b5061049c600480360381019061049791906136f0565b611661565b005b3480156104aa57600080fd5b506104b36116fd565b6040516104c09190614220565b60405180910390f35b3480156104d557600080fd5b506104f060048036038101906104eb91906138d1565b61178f565b005b3480156104fe57600080fd5b506105196004803603810190610514919061364f565b611a25565b005b34801561052757600080fd5b50610542600480360381019061053d91906135d4565b611a3b565b005b34801561055057600080fd5b5061056b6004803603810190610566919061387f565b611a9d565b6040516105789190614220565b60405180910390f35b34801561058d57600080fd5b50610596611bef565b6040516105a39190614197565b60405180910390f35b3480156105b857600080fd5b506105d360048036038101906105ce919061377e565b611cf0565b6040516105e091906145b2565b60405180910390f35b3480156105f557600080fd5b50610610600480360381019061060b9190613549565b611f1a565b60405161061d919061417c565b60405180910390f35b34801561063257600080fd5b5061064d60048036038101906106489190613520565b611fae565b005b60007f80ac58cd000000000000000000000000000000000000000000000000000000007bffffffffffffffffffffffffffffffffffffffffffffffffffffffff1916827bffffffffffffffffffffffffffffffffffffffffffffffffffffffff1916148061071a57507f5b5e139f000000000000000000000000000000000000000000000000000000007bffffffffffffffffffffffffffffffffffffffffffffffffffffffff1916827bffffffffffffffffffffffffffffffffffffffffffffffffffffffff1916145b8061072a5750610729826120a6565b5b9050919050565b606060008054610740906148d5565b80601f016020809104026020016040519081016040528092919081815260200182805461076c906148d5565b80156107b95780601f1061078e576101008083540402835291602001916107b9565b820191906000526020600020905b81548152906001019060200180831161079c57829003601f168201915b5050505050905090565b60006107ce82612110565b61080d576040517f08c379a0000000000000000000000000000000000000000000000000000000008152600401610804906144b2565b60405180910390fd5b6004600083815260200190815260200160002060009054906101000a900473ffffffffffffffffffffffffffffffffffffffff169050919050565b600061085382611445565b90508073ffffffffffffffffffffffffffffffffffffffff168373ffffffffffffffffffffffffffffffffffffffff1614156108c4576040517f08c379a00000000000000000000000000000000000000000000000000000000081526004016108bb90614532565b60405180910390fd5b8073ffffffffffffffffffffffffffffffffffffffff166108e361217c565b73ffffffffffffffffffffffffffffffffffffffff16148061091257506109118161090c61217c565b611f1a565b5b610951576040517f08c379a0000000000000000000000000000000000000000000000000000000008152600401610948906143f2565b60405180910390fd5b61095b8383612184565b505050565b600a602052806000526040600020600091509050806000018054610983906148d5565b80601f01602080910402602001604051908101604052809291908181526020018280546109af906148d5565b80156109fc5780601f106109d1576101008083540402835291602001916109fc565b820191906000526020600020905b8154815290600101906020018083116109df57829003601f168201915b505050505090806001018054610a11906148d5565b80601f0160208091040260200160405190810160405280929190818152602001828054610a3d906148d5565b8015610a8a5780601f10610a5f57610100808354040283529160200191610a8a565b820191906000526020600020905b815481529060010190602001808311610a6d57829003601f168201915b505050505090806002018054610a9f906148d5565b80601f0160208091040260200160405190810160405280929190818152602001828054610acb906148d5565b8015610b185780601f10610aed57610100808354040283529160200191610b18565b820191906000526020600020905b815481529060010190602001808311610afb57829003601f168201915b505050505090806003018054610b2d906148d5565b80601f0160208091040260200160405190810160405280929190818152602001828054610b59906148d5565b8015610ba65780601f10610b7b57610100808354040283529160200191610ba6565b820191906000526020600020905b815481529060010190602001808311610b8957829003601f168201915b505050505090806004018054610bbb906148d5565b80601f0160208091040260200160405190810160405280929190818152602001828054610be7906148d5565b8015610c345780601f10610c0957610100808354040283529160200191610c34565b820191906000526020600020905b815481529060010190602001808311610c1757829003601f168201915b5050505050908060050154908060060154908060070154908060080160009054906101000a900473ffffffffffffffffffffffffffffffffffffffff16905089565b60008273ffffffffffffffffffffffffffffffffffffffff16600c600084815260200190815260200160002060000160009054906101000a900473ffffffffffffffffffffffffffffffffffffffff1673ffffffffffffffffffffffffffffffffffffffff161415610ceb5760019050610cf0565b600090505b92915050565b610d07610d0161217c565b8261223d565b610d46576040517f08c379a0000000000000000000000000000000000000000000000000000000008152600401610d3d90614552565b60405180910390fd5b610d5183838361231b565b505050565b600080600a60008481526020019081526020016000206006015411610db0576040517f08c379a0000000000000000000000000000000000000000000000000000000008152600401610da790614592565b60405180910390fd5b600a600083815260200190815260200160002060060154600a60008481526020019081526020016000206005015410610e1e576040517f08c379a0000000000000000000000000000000000000000000000000000000008152600401610e1590614572565b60405180910390fd5b6000600a600084815260200190815260200160002060050154600a600085815260200190815260200160002060070154610e589190614700565b90506001600a60008581526020019081526020016000206005016000828254610e819190614700565b9250508190555060405180606001604052803373ffffffffffffffffffffffffffffffffffffffff1681526020018481526020016040518060400160405280600581526020017f66616c7365000000000000000000000000000000000000000000000000000000815250815250600c600083815260200190815260200160002060008201518160000160006101000a81548173ffffffffffffffffffffffffffffffffffffffff021916908373ffffffffffffffffffffffffffffffffffffffff160217905550602082015181600101556040820151816002019080519060200190610f6e929190613305565b50905050610f7c3382612582565b6112de816112d9600a60008781526020019081526020016000206000018054610fa4906148d5565b80601f0160208091040260200160405190810160405280929190818152602001828054610fd0906148d5565b801561101d5780601f10610ff25761010080835404028352916020019161101d565b820191906000526020600020905b81548152906001019060200180831161100057829003601f168201915b5050505050600a60008881526020019081526020016000206001018054611043906148d5565b80601f016020809104026020016040519081016040528092919081815260200182805461106f906148d5565b80156110bc5780601f10611091576101008083540402835291602001916110bc565b820191906000526020600020905b81548152906001019060200180831161109f57829003601f168201915b5050505050600a600089815260200190815260200160002060020180546110e2906148d5565b80601f016020809104026020016040519081016040528092919081815260200182805461110e906148d5565b801561115b5780601f106111305761010080835404028352916020019161115b565b820191906000526020600020905b81548152906001019060200180831161113e57829003601f168201915b5050505050600a60008a81526020019081526020016000206003018054611181906148d5565b80601f01602080910402602001604051908101604052809291908181526020018280546111ad906148d5565b80156111fa5780601f106111cf576101008083540402835291602001916111fa565b820191906000526020600020905b8154815290600101906020018083116111dd57829003601f168201915b5050505050600a60008b81526020019081526020016000206004018054611220906148d5565b80601f016020809104026020016040519081016040528092919081815260200182805461124c906148d5565b80156112995780601f1061126e57610100808354040283529160200191611299565b820191906000526020600020905b81548152906001019060200180831161127c57829003601f168201915b50505050506040518060400160405280600581526020017f66616c73650000000000000000000000000000000000000000000000000000008152506125a0565b6125ff565b7fb7656808f0e04b4af7a20f7ef1caa7669f0d781f1ca4cba31a3ba467880766c9338260405161130f9291906140d7565b60405180910390a180915050919050565b61133b83838360405180602001604052806000815250611a3b565b505050565b600c6020528060005260406000206000915090508060000160009054906101000a900473ffffffffffffffffffffffffffffffffffffffff169080600101549080600201805461138f906148d5565b80601f01602080910402602001604051908101604052809291908181526020018280546113bb906148d5565b80156114085780601f106113dd57610100808354040283529160200191611408565b820191906000526020600020905b8154815290600101906020018083116113eb57829003601f168201915b5050505050905083565b600b6020528060005260406000206000915054906101000a900473ffffffffffffffffffffffffffffffffffffffff1681565b6000806002600084815260200190815260200160002060009054906101000a900473ffffffffffffffffffffffffffffffffffffffff169050600073ffffffffffffffffffffffffffffffffffffffff168173ffffffffffffffffffffffffffffffffffffffff1614156114ee576040517f08c379a00000000000000000000000000000000000000000000000000000000081526004016114e590614432565b60405180910390fd5b80915050919050565b60008073ffffffffffffffffffffffffffffffffffffffff168273ffffffffffffffffffffffffffffffffffffffff161415611568576040517f08c379a000000000000000000000000000000000000000000000000000000000815260040161155f90614412565b60405180910390fd5b600360008373ffffffffffffffffffffffffffffffffffffffff1673ffffffffffffffffffffffffffffffffffffffff168152602001908152602001600020549050919050565b6115b761217c565b73ffffffffffffffffffffffffffffffffffffffff166115d5611637565b73ffffffffffffffffffffffffffffffffffffffff161461162b576040517f08c379a0000000000000000000000000000000000000000000000000000000008152600401611622906144d2565b60405180910390fd5b6116356000612673565b565b6000600860009054906101000a900473ffffffffffffffffffffffffffffffffffffffff16905090565b7f000000000000000000000000000000000000000000000000000000000000000073ffffffffffffffffffffffffffffffffffffffff163373ffffffffffffffffffffffffffffffffffffffff16146116ef576040517f08c379a00000000000000000000000000000000000000000000000000000000081526004016116e690614512565b60405180910390fd5b6116f98282612739565b5050565b60606001805461170c906148d5565b80601f0160208091040260200160405190810160405280929190818152602001828054611738906148d5565b80156117855780601f1061175a57610100808354040283529160200191611785565b820191906000526020600020905b81548152906001019060200180831161176857829003601f168201915b5050505050905090565b600a600083815260200190815260200160002060080160009054906101000a900473ffffffffffffffffffffffffffffffffffffffff1673ffffffffffffffffffffffffffffffffffffffff163373ffffffffffffffffffffffffffffffffffffffff1614156119e957600a60008381526020019081526020016000206005015481111561183157600a60008381526020019081526020016000206005015490505b606060005b828110156119a957611846611bef565b506000600a600086815260200190815260200160002060060154600f5461186d9190614995565b600a60008781526020019081526020016000206007015461188e9190614700565b905060005b835181101561194d57818482815181106118d6577f4e487b7100000000000000000000000000000000000000000000000000000000600052603260045260246000fd5b60200260200101511415611939576118ec611bef565b50600a600087815260200190815260200160002060060154600f546119119190614995565b600a6000888152602001908152602001600020600701546119329190614700565b9150600090505b6001816119469190614700565b9050611893565b5080838381518110611988577f4e487b7100000000000000000000000000000000000000000000000000000000600052603260045260246000fd5b602002602001018181525050506001816119a29190614700565b9050611836565b507fafe13e5a57d6283d2aac47a26860c3c84d500c7b62dc0a13783905960deb09c683826040516119db9291906145cd565b60405180910390a150611a21565b7f33a48753340fd583ebcc9cf06882370187ec4acf87353fb1375b22752eebe3fc82604051611a1891906145b2565b60405180910390a15b5050565b611a37611a3061217c565b8383612744565b5050565b611a4c611a4661217c565b8361223d565b611a8b576040517f08c379a0000000000000000000000000000000000000000000000000000000008152600401611a8290614552565b60405180910390fd5b611a97848484846128b1565b50505050565b6060611aa882612110565b611ae7576040517f08c379a0000000000000000000000000000000000000000000000000000000008152600401611ade90614492565b60405180910390fd5b6000600660008481526020019081526020016000208054611b07906148d5565b80601f0160208091040260200160405190810160405280929190818152602001828054611b33906148d5565b8015611b805780601f10611b5557610100808354040283529160200191611b80565b820191906000526020600020905b815481529060010190602001808311611b6357829003601f168201915b505050505090506000611b9161290d565b9050600081511415611ba7578192505050611bea565b600082511115611bdc578082604051602001611bc4929190613f4e565b60405160208183030381529060405292505050611bea565b611be584612924565b925050505b919050565b6000600e547f000000000000000000000000000000000000000000000000000000000000000073ffffffffffffffffffffffffffffffffffffffff166370a08231306040518263ffffffff1660e01b8152600401611c4d9190614070565b60206040518083038186803b158015611c6557600080fd5b505afa158015611c79573d6000803e3d6000fd5b505050506040513d601f19601f82011682018060405250810190611c9d91906138a8565b11611cdd576040517f08c379a0000000000000000000000000000000000000000000000000000000008152600401611cd4906143b2565b60405180910390fd5b611ceb600d54600e546129cb565b905090565b600080600190506000611d036009612b2d565b1115611d5657600a6000611d176009612b2d565b815260200190815260200160002060060154600a6000611d376009612b2d565b815260200190815260200160002060070154611d539190614700565b90505b611d606009612b3b565b6000611d6c6009612b2d565b90506040518061012001604052808a8152602001898152602001888152602001878152602001868152602001600081526020018581526020018381526020013373ffffffffffffffffffffffffffffffffffffffff16815250600a60008381526020019081526020016000206000820151816000019080519060200190611df4929190613305565b506020820151816001019080519060200190611e11929190613305565b506040820151816002019080519060200190611e2e929190613305565b506060820151816003019080519060200190611e4b929190613305565b506080820151816004019080519060200190611e68929190613305565b5060a0820151816005015560c0820151816006015560e082015181600701556101008201518160080160006101000a81548173ffffffffffffffffffffffffffffffffffffffff021916908373ffffffffffffffffffffffffffffffffffffffff1602179055509050507f7cfc5a0c32fcbc6c04d58abc530b3d5c69357bcc294a720a317e79285ad97d543382604051611f039291906140d7565b60405180910390a180925050509695505050505050565b6000600560008473ffffffffffffffffffffffffffffffffffffffff1673ffffffffffffffffffffffffffffffffffffffff16815260200190815260200160002060008373ffffffffffffffffffffffffffffffffffffffff1673ffffffffffffffffffffffffffffffffffffffff16815260200190815260200160002060009054906101000a900460ff16905092915050565b611fb661217c565b73ffffffffffffffffffffffffffffffffffffffff16611fd4611637565b73ffffffffffffffffffffffffffffffffffffffff161461202a576040517f08c379a0000000000000000000000000000000000000000000000000000000008152600401612021906144d2565b60405180910390fd5b600073ffffffffffffffffffffffffffffffffffffffff168173ffffffffffffffffffffffffffffffffffffffff16141561209a576040517f08c379a000000000000000000000000000000000000000000000000000000000815260040161209190614312565b60405180910390fd5b6120a381612673565b50565b60007f01ffc9a7000000000000000000000000000000000000000000000000000000007bffffffffffffffffffffffffffffffffffffffffffffffffffffffff1916827bffffffffffffffffffffffffffffffffffffffffffffffffffffffff1916149050919050565b60008073ffffffffffffffffffffffffffffffffffffffff166002600084815260200190815260200160002060009054906101000a900473ffffffffffffffffffffffffffffffffffffffff1673ffffffffffffffffffffffffffffffffffffffff1614159050919050565b600033905090565b816004600083815260200190815260200160002060006101000a81548173ffffffffffffffffffffffffffffffffffffffff021916908373ffffffffffffffffffffffffffffffffffffffff160217905550808273ffffffffffffffffffffffffffffffffffffffff166121f783611445565b73ffffffffffffffffffffffffffffffffffffffff167f8c5be1e5ebec7d5bd14f71427d1e84f3dd0314c0f7b2291e5b200ac8c7c3b92560405160405180910390a45050565b600061224882612110565b612287576040517f08c379a000000000000000000000000000000000000000000000000000000000815260040161227e906143d2565b60405180910390fd5b600061229283611445565b90508073ffffffffffffffffffffffffffffffffffffffff168473ffffffffffffffffffffffffffffffffffffffff16148061230157508373ffffffffffffffffffffffffffffffffffffffff166122e9846107c3565b73ffffffffffffffffffffffffffffffffffffffff16145b8061231257506123118185611f1a565b5b91505092915050565b8273ffffffffffffffffffffffffffffffffffffffff1661233b82611445565b73ffffffffffffffffffffffffffffffffffffffff1614612391576040517f08c379a000000000000000000000000000000000000000000000000000000000815260040161238890614332565b60405180910390fd5b600073ffffffffffffffffffffffffffffffffffffffff168273ffffffffffffffffffffffffffffffffffffffff161415612401576040517f08c379a00000000000000000000000000000000000000000000000000000000081526004016123f890614372565b60405180910390fd5b61240c838383612b51565b612417600082612184565b6001600360008573ffffffffffffffffffffffffffffffffffffffff1673ffffffffffffffffffffffffffffffffffffffff168152602001908152602001600020600082825461246791906147e1565b925050819055506001600360008473ffffffffffffffffffffffffffffffffffffffff1673ffffffffffffffffffffffffffffffffffffffff16815260200190815260200160002060008282546124be9190614700565b92505081905550816002600083815260200190815260200160002060006101000a81548173ffffffffffffffffffffffffffffffffffffffff021916908373ffffffffffffffffffffffffffffffffffffffff160217905550808273ffffffffffffffffffffffffffffffffffffffff168473ffffffffffffffffffffffffffffffffffffffff167fddf252ad1be2c89b69c2b068fc378daa952ba7f163c4a11628f55a4df523b3ef60405160405180910390a461257d838383612b56565b505050565b61259c828260405180602001604052806000815250612b5b565b5050565b60606125d48787878786886040516020016125c096959493929190613f72565b604051602081830303815290604052612bb6565b6040516020016125e4919061404e565b60405160208183030381529060405290509695505050505050565b61260882612110565b612647576040517f08c379a000000000000000000000000000000000000000000000000000000000815260040161263e90614452565b60405180910390fd5b8060066000848152602001908152602001600020908051906020019061266e929190613305565b505050565b6000600860009054906101000a900473ffffffffffffffffffffffffffffffffffffffff16905081600860006101000a81548173ffffffffffffffffffffffffffffffffffffffff021916908373ffffffffffffffffffffffffffffffffffffffff1602179055508173ffffffffffffffffffffffffffffffffffffffff168173ffffffffffffffffffffffffffffffffffffffff167f8be0079c531659141344cd1fd0a4f28419497f9722a3daafe3b4186f6b6457e060405160405180910390a35050565b80600f819055505050565b8173ffffffffffffffffffffffffffffffffffffffff168373ffffffffffffffffffffffffffffffffffffffff1614156127b3576040517f08c379a00000000000000000000000000000000000000000000000000000000081526004016127aa90614392565b60405180910390fd5b80600560008573ffffffffffffffffffffffffffffffffffffffff1673ffffffffffffffffffffffffffffffffffffffff16815260200190815260200160002060008473ffffffffffffffffffffffffffffffffffffffff1673ffffffffffffffffffffffffffffffffffffffff16815260200190815260200160002060006101000a81548160ff0219169083151502179055508173ffffffffffffffffffffffffffffffffffffffff168373ffffffffffffffffffffffffffffffffffffffff167f17307eab39ab6107e8899845ad3d59bd9653f200f220920489ca2b5937696c31836040516128a4919061417c565b60405180910390a3505050565b6128bc84848461231b565b6128c884848484612d55565b612907576040517f08c379a00000000000000000000000000000000000000000000000000000000081526004016128fe906142f2565b60405180910390fd5b50505050565b606060405180602001604052806000815250905090565b606061292f82612110565b61296e576040517f08c379a0000000000000000000000000000000000000000000000000000000008152600401612965906144f2565b60405180910390fd5b600061297861290d565b9050600081511161299857604051806020016040528060008152506129c3565b806129a284612eec565b6040516020016129b3929190613f4e565b6040516020818303038152906040525b915050919050565b60007f000000000000000000000000000000000000000000000000000000000000000073ffffffffffffffffffffffffffffffffffffffff16634000aea07f000000000000000000000000000000000000000000000000000000000000000084866000604051602001612a3f9291906141b2565b6040516020818303038152906040526040518463ffffffff1660e01b8152600401612a6c93929190614100565b602060405180830381600087803b158015612a8657600080fd5b505af1158015612a9a573d6000803e3d6000fd5b505050506040513d601f19601f82011682018060405250810190612abe91906136c7565b506000612ae1846000306007600089815260200190815260200160002054613099565b905060016007600086815260200190815260200160002054612b039190614700565b6007600086815260200190815260200160002081905550612b2484826130d5565b91505092915050565b600081600001549050919050565b6001816000016000828254019250508190555050565b505050565b505050565b612b658383613108565b612b726000848484612d55565b612bb1576040517f08c379a0000000000000000000000000000000000000000000000000000000008152600401612ba8906142f2565b60405180910390fd5b505050565b6060600082511415612bd957604051806020016040528060008152509050612d50565b60006040518060600160405280604081526020016153ba6040913990506000600360028551612c089190614700565b612c129190614756565b6004612c1e9190614787565b90506000602082612c2f9190614700565b67ffffffffffffffff811115612c6e577f4e487b7100000000000000000000000000000000000000000000000000000000600052604160045260246000fd5b6040519080825280601f01601f191660200182016040528015612ca05781602001600182028036833780820191505090505b509050818152600183018586518101602084015b81831015612d0f576003830192508251603f8160121c168501518253600182019150603f81600c1c168501518253600182019150603f8160061c168501518253600182019150603f8116850151825360018201915050612cb4565b600389510660018114612d295760028114612d3957612d44565b613d3d60f01b6002830352612d44565b603d60f81b60018303525b50505050508093505050505b919050565b6000612d768473ffffffffffffffffffffffffffffffffffffffff166132e2565b15612edf578373ffffffffffffffffffffffffffffffffffffffff1663150b7a02612d9f61217c565b8786866040518563ffffffff1660e01b8152600401612dc1949392919061408b565b602060405180830381600087803b158015612ddb57600080fd5b505af1925050508015612e0c57506040513d601f19601f82011682018060405250810190612e099190613755565b60015b612e8f573d8060008114612e3c576040519150601f19603f3d011682016040523d82523d6000602084013e612e41565b606091505b50600081511415612e87576040517f08c379a0000000000000000000000000000000000000000000000000000000008152600401612e7e906142f2565b60405180910390fd5b805181602001fd5b63150b7a0260e01b7bffffffffffffffffffffffffffffffffffffffffffffffffffffffff1916817bffffffffffffffffffffffffffffffffffffffffffffffffffffffff191614915050612ee4565b600190505b949350505050565b60606000821415612f34576040518060400160405280600181526020017f30000000000000000000000000000000000000000000000000000000000000008152509050613094565b600082905060005b60008214612f66578080612f4f90614938565b915050600a82612f5f9190614756565b9150612f3c565b60008167ffffffffffffffff811115612fa8577f4e487b7100000000000000000000000000000000000000000000000000000000600052604160045260246000fd5b6040519080825280601f01601f191660200182016040528015612fda5781602001600182028036833780820191505090505b5090505b6000851461308d57600182612ff391906147e1565b9150600a856130029190614995565b603061300e9190614700565b60f81b81838151811061304a577f4e487b7100000000000000000000000000000000000000000000000000000000600052603260045260246000fd5b60200101907effffffffffffffffffffffffffffffffffffffffffffffffffffffffffffff1916908160001a905350600a856130869190614756565b9450612fde565b8093505050505b919050565b6000848484846040516020016130b294939291906141db565b6040516020818303038152906040528051906020012060001c9050949350505050565b600082826040516020016130ea929190613f22565b60405160208183030381529060405280519060200120905092915050565b600073ffffffffffffffffffffffffffffffffffffffff168273ffffffffffffffffffffffffffffffffffffffff161415613178576040517f08c379a000000000000000000000000000000000000000000000000000000000815260040161316f90614472565b60405180910390fd5b61318181612110565b156131c1576040517f08c379a00000000000000000000000000000000000000000000000000000000081526004016131b890614352565b60405180910390fd5b6131cd60008383612b51565b6001600360008473ffffffffffffffffffffffffffffffffffffffff1673ffffffffffffffffffffffffffffffffffffffff168152602001908152602001600020600082825461321d9190614700565b92505081905550816002600083815260200190815260200160002060006101000a81548173ffffffffffffffffffffffffffffffffffffffff021916908373ffffffffffffffffffffffffffffffffffffffff160217905550808273ffffffffffffffffffffffffffffffffffffffff16600073ffffffffffffffffffffffffffffffffffffffff167fddf252ad1be2c89b69c2b068fc378daa952ba7f163c4a11628f55a4df523b3ef60405160405180910390a46132de60008383612b56565b5050565b6000808273ffffffffffffffffffffffffffffffffffffffff163b119050919050565b828054613311906148d5565b90600052602060002090601f016020900481019282613333576000855561337a565b82601f1061334c57805160ff191683800117855561337a565b8280016001018555821561337a579182015b8281111561337957825182559160200191906001019061335e565b5b509050613387919061338b565b5090565b5b808211156133a457600081600090555060010161338c565b5090565b60006133bb6133b684614622565b6145fd565b9050828152602081018484840111156133d357600080fd5b6133de848285614893565b509392505050565b60006133f96133f484614653565b6145fd565b90508281526020810184848401111561341157600080fd5b61341c848285614893565b509392505050565b60008135905061343381615346565b92915050565b6000813590506134488161535d565b92915050565b60008151905061345d8161535d565b92915050565b60008135905061347281615374565b92915050565b6000813590506134878161538b565b92915050565b60008151905061349c8161538b565b92915050565b600082601f8301126134b357600080fd5b81356134c38482602086016133a8565b91505092915050565b600082601f8301126134dd57600080fd5b81356134ed8482602086016133e6565b91505092915050565b600081359050613505816153a2565b92915050565b60008151905061351a816153a2565b92915050565b60006020828403121561353257600080fd5b600061354084828501613424565b91505092915050565b6000806040838503121561355c57600080fd5b600061356a85828601613424565b925050602061357b85828601613424565b9150509250929050565b60008060006060848603121561359a57600080fd5b60006135a886828701613424565b93505060206135b986828701613424565b92505060406135ca868287016134f6565b9150509250925092565b600080600080608085870312156135ea57600080fd5b60006135f887828801613424565b945050602061360987828801613424565b935050604061361a878288016134f6565b925050606085013567ffffffffffffffff81111561363757600080fd5b613643878288016134a2565b91505092959194509250565b6000806040838503121561366257600080fd5b600061367085828601613424565b925050602061368185828601613439565b9150509250929050565b6000806040838503121561369e57600080fd5b60006136ac85828601613424565b92505060206136bd858286016134f6565b9150509250929050565b6000602082840312156136d957600080fd5b60006136e78482850161344e565b91505092915050565b6000806040838503121561370357600080fd5b600061371185828601613463565b9250506020613722858286016134f6565b9150509250929050565b60006020828403121561373e57600080fd5b600061374c84828501613478565b91505092915050565b60006020828403121561376757600080fd5b60006137758482850161348d565b91505092915050565b60008060008060008060c0878903121561379757600080fd5b600087013567ffffffffffffffff8111156137b157600080fd5b6137bd89828a016134cc565b965050602087013567ffffffffffffffff8111156137da57600080fd5b6137e689828a016134cc565b955050604087013567ffffffffffffffff81111561380357600080fd5b61380f89828a016134cc565b945050606087013567ffffffffffffffff81111561382c57600080fd5b61383889828a016134cc565b935050608087013567ffffffffffffffff81111561385557600080fd5b61386189828a016134cc565b92505060a061387289828a016134f6565b9150509295509295509295565b60006020828403121561389157600080fd5b600061389f848285016134f6565b91505092915050565b6000602082840312156138ba57600080fd5b60006138c88482850161350b565b91505092915050565b600080604083850312156138e457600080fd5b60006138f2858286016134f6565b9250506020613903858286016134f6565b9150509250929050565b60006139198383613eed565b60208301905092915050565b61392e81614815565b82525050565b600061393f82614694565b61394981856146c2565b935061395483614684565b8060005b8381101561398557815161396c888261390d565b9750613977836146b5565b925050600181019050613958565b5085935050505092915050565b61399b81614827565b82525050565b6139aa81614833565b82525050565b6139c16139bc82614833565b614981565b82525050565b60006139d28261469f565b6139dc81856146d3565b93506139ec8185602086016148a2565b6139f581614a82565b840191505092915050565b6000613a0b826146aa565b613a1581856146e4565b9350613a258185602086016148a2565b613a2e81614a82565b840191505092915050565b6000613a44826146aa565b613a4e81856146f5565b9350613a5e8185602086016148a2565b80840191505092915050565b6000613a776005836146f5565b9150613a8282614a93565b600582019050919050565b6000613a9a6009836146f5565b9150613aa582614abc565b600982019050919050565b6000613abd6032836146e4565b9150613ac882614ae5565b604082019050919050565b6000613ae06026836146e4565b9150613aeb82614b34565b604082019050919050565b6000613b036025836146e4565b9150613b0e82614b83565b604082019050919050565b6000613b26601c836146e4565b9150613b3182614bd2565b602082019050919050565b6000613b496021836146f5565b9150613b5482614bfb565b602182019050919050565b6000613b6c6069836146f5565b9150613b7782614c4a565b606982019050919050565b6000613b8f6024836146e4565b9150613b9a82614ce5565b604082019050919050565b6000613bb26019836146e4565b9150613bbd82614d34565b602082019050919050565b6000613bd5602b836146e4565b9150613be082614d5d565b604082019050919050565b6000613bf8602b836146f5565b9150613c0382614dac565b602b82019050919050565b6000613c1b602c836146e4565b9150613c2682614dfb565b604082019050919050565b6000613c3e603a836146f5565b9150613c4982614e4a565b603a82019050919050565b6000613c616038836146e4565b9150613c6c82614e99565b604082019050919050565b6000613c84602a836146e4565b9150613c8f82614ee8565b604082019050919050565b6000613ca76029836146e4565b9150613cb282614f37565b604082019050919050565b6000613cca602e836146e4565b9150613cd582614f86565b604082019050919050565b6000613ced6002836146f5565b9150613cf882614fd5565b600282019050919050565b6000613d106020836146e4565b9150613d1b82614ffe565b602082019050919050565b6000613d336031836146e4565b9150613d3e82615027565b604082019050919050565b6000613d56602c836146e4565b9150613d6182615076565b604082019050919050565b6000613d796020836146e4565b9150613d84826150c5565b602082019050919050565b6000613d9c602f836146e4565b9150613da7826150ee565b604082019050919050565b6000613dbf601f836146e4565b9150613dca8261513d565b602082019050919050565b6000613de26021836146e4565b9150613ded82615166565b604082019050919050565b6000613e056021836146f5565b9150613e10826151b5565b602182019050919050565b6000613e28601d836146f5565b9150613e3382615204565b601d82019050919050565b6000613e4b6004836146f5565b9150613e568261522d565b600482019050919050565b6000613e6e6031836146e4565b9150613e7982615256565b604082019050919050565b6000613e91602f836146f5565b9150613e9c826152a5565b602f82019050919050565b6000613eb46010836146e4565b9150613ebf826152f4565b602082019050919050565b6000613ed7600d836146e4565b9150613ee28261531d565b602082019050919050565b613ef681614889565b82525050565b613f0581614889565b82525050565b613f1c613f1782614889565b61498b565b82525050565b6000613f2e82856139b0565b602082019150613f3e8284613f0b565b6020820191508190509392505050565b6000613f5a8285613a39565b9150613f668284613a39565b91508190509392505050565b6000613f7d82613a8d565b9150613f898289613a39565b9150613f9482613b5f565b9150613f9f82613c31565b9150613fab8288613a39565b9150613fb682613e3e565b9150613fc182613b3c565b9150613fcd8287613a39565b9150613fd882613e3e565b9150613fe382613df8565b9150613fef8286613a39565b9150613ffa82613e3e565b915061400582613beb565b91506140118285613a39565b915061401c82613a6a565b915061402782613e84565b91506140338284613a39565b915061403e82613ce0565b9150819050979650505050505050565b600061405982613e1b565b91506140658284613a39565b915081905092915050565b60006020820190506140856000830184613925565b92915050565b60006080820190506140a06000830187613925565b6140ad6020830186613925565b6140ba6040830185613efc565b81810360608301526140cc81846139c7565b905095945050505050565b60006040820190506140ec6000830185613925565b6140f96020830184613efc565b9392505050565b60006060820190506141156000830186613925565b6141226020830185613efc565b818103604083015261413481846139c7565b9050949350505050565b60006060820190506141536000830186613925565b6141606020830185613efc565b81810360408301526141728184613a00565b9050949350505050565b60006020820190506141916000830184613992565b92915050565b60006020820190506141ac60008301846139a1565b92915050565b60006040820190506141c760008301856139a1565b6141d46020830184613efc565b9392505050565b60006080820190506141f060008301876139a1565b6141fd6020830186613efc565b61420a6040830185613925565b6142176060830184613efc565b95945050505050565b6000602082019050818103600083015261423a8184613a00565b905092915050565b600061012082019050818103600083015261425d818c613a00565b90508181036020830152614271818b613a00565b90508181036040830152614285818a613a00565b905081810360608301526142998189613a00565b905081810360808301526142ad8188613a00565b90506142bc60a0830187613efc565b6142c960c0830186613efc565b6142d660e0830185613efc565b6142e4610100830184613925565b9a9950505050505050505050565b6000602082019050818103600083015261430b81613ab0565b9050919050565b6000602082019050818103600083015261432b81613ad3565b9050919050565b6000602082019050818103600083015261434b81613af6565b9050919050565b6000602082019050818103600083015261436b81613b19565b9050919050565b6000602082019050818103600083015261438b81613b82565b9050919050565b600060208201905081810360008301526143ab81613ba5565b9050919050565b600060208201905081810360008301526143cb81613bc8565b9050919050565b600060208201905081810360008301526143eb81613c0e565b9050919050565b6000602082019050818103600083015261440b81613c54565b9050919050565b6000602082019050818103600083015261442b81613c77565b9050919050565b6000602082019050818103600083015261444b81613c9a565b9050919050565b6000602082019050818103600083015261446b81613cbd565b9050919050565b6000602082019050818103600083015261448b81613d03565b9050919050565b600060208201905081810360008301526144ab81613d26565b9050919050565b600060208201905081810360008301526144cb81613d49565b9050919050565b600060208201905081810360008301526144eb81613d6c565b9050919050565b6000602082019050818103600083015261450b81613d8f565b9050919050565b6000602082019050818103600083015261452b81613db2565b9050919050565b6000602082019050818103600083015261454b81613dd5565b9050919050565b6000602082019050818103600083015261456b81613e61565b9050919050565b6000602082019050818103600083015261458b81613ea7565b9050919050565b600060208201905081810360008301526145ab81613eca565b9050919050565b60006020820190506145c76000830184613efc565b92915050565b60006040820190506145e26000830185613efc565b81810360208301526145f48184613934565b90509392505050565b6000614607614618565b90506146138282614907565b919050565b6000604051905090565b600067ffffffffffffffff82111561463d5761463c614a53565b5b61464682614a82565b9050602081019050919050565b600067ffffffffffffffff82111561466e5761466d614a53565b5b61467782614a82565b9050602081019050919050565b6000819050602082019050919050565b600081519050919050565b600081519050919050565b600081519050919050565b6000602082019050919050565b600082825260208201905092915050565b600082825260208201905092915050565b600082825260208201905092915050565b600081905092915050565b600061470b82614889565b915061471683614889565b9250827fffffffffffffffffffffffffffffffffffffffffffffffffffffffffffffffff0382111561474b5761474a6149c6565b5b828201905092915050565b600061476182614889565b915061476c83614889565b92508261477c5761477b6149f5565b5b828204905092915050565b600061479282614889565b915061479d83614889565b9250817fffffffffffffffffffffffffffffffffffffffffffffffffffffffffffffffff04831182151516156147d6576147d56149c6565b5b828202905092915050565b60006147ec82614889565b91506147f783614889565b92508282101561480a576148096149c6565b5b828203905092915050565b600061482082614869565b9050919050565b60008115159050919050565b6000819050919050565b60007fffffffff0000000000000000000000000000000000000000000000000000000082169050919050565b600073ffffffffffffffffffffffffffffffffffffffff82169050919050565b6000819050919050565b82818337600083830152505050565b60005b838110156148c05780820151818401526020810190506148a5565b838111156148cf576000848401525b50505050565b600060028204905060018216806148ed57607f821691505b6020821081141561490157614900614a24565b5b50919050565b61491082614a82565b810181811067ffffffffffffffff8211171561492f5761492e614a53565b5b80604052505050565b600061494382614889565b91507fffffffffffffffffffffffffffffffffffffffffffffffffffffffffffffffff821415614976576149756149c6565b5b600182019050919050565b6000819050919050565b6000819050919050565b60006149a082614889565b91506149ab83614889565b9250826149bb576149ba6149f5565b5b828206905092915050565b7f4e487b7100000000000000000000000000000000000000000000000000000000600052601160045260246000fd5b7f4e487b7100000000000000000000000000000000000000000000000000000000600052601260045260246000fd5b7f4e487b7100000000000000000000000000000000000000000000000000000000600052602260045260246000fd5b7f4e487b7100000000000000000000000000000000000000000000000000000000600052604160045260246000fd5b6000601f19601f8301169050919050565b7f227d20205d000000000000000000000000000000000000000000000000000000600082015250565b7f7b226e616d65223a220000000000000000000000000000000000000000000000600082015250565b7f4552433732313a207472616e7366657220746f206e6f6e20455243373231526560008201527f63656976657220696d706c656d656e7465720000000000000000000000000000602082015250565b7f4f776e61626c653a206e6577206f776e657220697320746865207a65726f206160008201527f6464726573730000000000000000000000000000000000000000000000000000602082015250565b7f4552433732313a207472616e736665722066726f6d20696e636f72726563742060008201527f6f776e6572000000000000000000000000000000000000000000000000000000602082015250565b7f4552433732313a20746f6b656e20616c7265616479206d696e74656400000000600082015250565b7f7b2274726169745f74797065223a202244617465222c202276616c7565223a2060008201527f2200000000000000000000000000000000000000000000000000000000000000602082015250565b7f204e465469636b6574222c20226465736372697074696f6e223a20224120746960008201527f636b65742073656375726564206f6e2074686520706f6c79676f6e20626c6f6360208201527f6b636861696e2c2067656e65726174656420627920746865204e465469636b6560408201527f7473207465616d2e220000000000000000000000000000000000000000000000606082015250565b7f4552433732313a207472616e7366657220746f20746865207a65726f2061646460008201527f7265737300000000000000000000000000000000000000000000000000000000602082015250565b7f4552433732313a20617070726f766520746f2063616c6c657200000000000000600082015250565b7f4e6f7420656e6f756768204c494e4b202d2066696c6c20636f6e74726163742060008201527f7769746820666175636574000000000000000000000000000000000000000000602082015250565b7f7b2274726169745f74797065223a202257696e6e696e67205469636b65743f2260008201527f2c2276616c7565223a2022000000000000000000000000000000000000000000602082015250565b7f4552433732313a206f70657261746f7220717565727920666f72206e6f6e657860008201527f697374656e7420746f6b656e0000000000000000000000000000000000000000602082015250565b7f222c202261747472696275746573223a205b207b2274726169745f747970652260008201527f3a202256656e646f72204e616d65222c2276616c7565223a2022000000000000602082015250565b7f4552433732313a20617070726f76652063616c6c6572206973206e6f74206f7760008201527f6e6572206e6f7220617070726f76656420666f7220616c6c0000000000000000602082015250565b7f4552433732313a2062616c616e636520717565727920666f7220746865207a6560008201527f726f206164647265737300000000000000000000000000000000000000000000602082015250565b7f4552433732313a206f776e657220717565727920666f72206e6f6e657869737460008201527f656e7420746f6b656e0000000000000000000000000000000000000000000000602082015250565b7f45524337323155524953746f726167653a2055524920736574206f66206e6f6e60008201527f6578697374656e7420746f6b656e000000000000000000000000000000000000602082015250565b7f227d000000000000000000000000000000000000000000000000000000000000600082015250565b7f4552433732313a206d696e7420746f20746865207a65726f2061646472657373600082015250565b7f45524337323155524953746f726167653a2055524920717565727920666f722060008201527f6e6f6e6578697374656e7420746f6b656e000000000000000000000000000000602082015250565b7f4552433732313a20617070726f76656420717565727920666f72206e6f6e657860008201527f697374656e7420746f6b656e0000000000000000000000000000000000000000602082015250565b7f4f776e61626c653a2063616c6c6572206973206e6f7420746865206f776e6572600082015250565b7f4552433732314d657461646174613a2055524920717565727920666f72206e6f60008201527f6e6578697374656e7420746f6b656e0000000000000000000000000000000000602082015250565b7f4f6e6c7920565246436f6f7264696e61746f722063616e2066756c66696c6c00600082015250565b7f4552433732313a20617070726f76616c20746f2063757272656e74206f776e6560008201527f7200000000000000000000000000000000000000000000000000000000000000602082015250565b7f7b2274726169745f74797065223a202254696d65222c202276616c7565223a2060008201527f2200000000000000000000000000000000000000000000000000000000000000602082015250565b7f646174613a6170706c69636174696f6e2f6a736f6e3b6261736536342c000000600082015250565b7f227d2c2000000000000000000000000000000000000000000000000000000000600082015250565b7f4552433732313a207472616e736665722063616c6c6572206973206e6f74206f60008201527f776e6572206e6f7220617070726f766564000000000000000000000000000000602082015250565b7f2c2022696d61676522203a202268747470733a2f2f676174657761792e70696e60008201527f6174612e636c6f75642f697066732f0000000000000000000000000000000000602082015250565b7f5469636b65747320536f6c64204f757400000000000000000000000000000000600082015250565b7f496e76616c6964204576656e7400000000000000000000000000000000000000600082015250565b61534f81614815565b811461535a57600080fd5b50565b61536681614827565b811461537157600080fd5b50565b61537d81614833565b811461538857600080fd5b50565b6153948161483d565b811461539f57600080fd5b50565b6153ab81614889565b81146153b657600080fd5b5056fe4142434445464748494a4b4c4d4e4f505152535455565758595a6162636465666768696a6b6c6d6e6f707172737475767778797a303132333435363738392b2fa264697066735822122083bec62f43aec09f9a8a74e34c5d82c460190ce017626d0ef1a2c34ec6906d2864736f6c63430008010033",
  "linkReferences": {},
  "deployedLinkReferences": {}
}