{
  "_format": "hh-sol-artifact-1",
  "contractName": "NFTickets",
  "sourceName": "contracts/NFTickets.sol",
  "abi": [
    {
      "inputs": [],
      "stateMutability": "nonpayable",
      "type": "constructor"
    },
    {
      "anonymous": false,
      "inputs": [
        {
          "indexed": true,
          "internalType": "address",
          "name": "owner",
          "type": "address"
        },
        {
          "indexed": true,
          "internalType": "address",
          "name": "approved",
          "type": "address"
        },
        {
          "indexed": true,
          "internalType": "uint256",
          "name": "tokenId",
          "type": "uint256"
        }
      ],
      "name": "Approval",
      "type": "event"
    },
    {
      "anonymous": false,
      "inputs": [
        {
          "indexed": true,
          "internalType": "address",
          "name": "owner",
          "type": "address"
        },
        {
          "indexed": true,
          "internalType": "address",
          "name": "operator",
          "type": "address"
        },
        {
          "indexed": false,
          "internalType": "bool",
          "name": "approved",
          "type": "bool"
        }
      ],
      "name": "ApprovalForAll",
      "type": "event"
    },
    {
      "anonymous": false,
      "inputs": [
        {
          "indexed": true,
          "internalType": "address",
          "name": "previousOwner",
          "type": "address"
        },
        {
          "indexed": true,
          "internalType": "address",
          "name": "newOwner",
          "type": "address"
        }
      ],
      "name": "OwnershipTransferred",
      "type": "event"
    },
    {
      "anonymous": false,
      "inputs": [
        {
          "indexed": true,
          "internalType": "address",
          "name": "from",
          "type": "address"
        },
        {
          "indexed": true,
          "internalType": "address",
          "name": "to",
          "type": "address"
        },
        {
          "indexed": true,
          "internalType": "uint256",
          "name": "tokenId",
          "type": "uint256"
        }
      ],
      "name": "Transfer",
      "type": "event"
    },
    {
      "anonymous": false,
      "inputs": [
        {
          "indexed": false,
          "internalType": "address",
          "name": "owner",
          "type": "address"
        },
        {
          "indexed": false,
          "internalType": "uint256",
          "name": "eventID",
          "type": "uint256"
        }
      ],
      "name": "eventInitialized",
      "type": "event"
    },
    {
      "anonymous": false,
      "inputs": [
        {
          "indexed": false,
          "internalType": "address",
          "name": "sender",
          "type": "address"
        },
        {
          "indexed": false,
          "internalType": "uint256",
          "name": "tokenId",
          "type": "uint256"
        }
      ],
      "name": "minted",
      "type": "event"
    },
    {
      "inputs": [
        {
          "internalType": "address",
          "name": "to",
          "type": "address"
        },
        {
          "internalType": "uint256",
          "name": "tokenId",
          "type": "uint256"
        }
      ],
      "name": "approve",
      "outputs": [],
      "stateMutability": "nonpayable",
      "type": "function"
    },
    {
      "inputs": [
        {
          "internalType": "address",
          "name": "owner",
          "type": "address"
        }
      ],
      "name": "balanceOf",
      "outputs": [
        {
          "internalType": "uint256",
          "name": "",
          "type": "uint256"
        }
      ],
      "stateMutability": "view",
      "type": "function"
    },
    {
      "inputs": [
        {
          "internalType": "uint256",
          "name": "",
          "type": "uint256"
        }
      ],
      "name": "events",
      "outputs": [
        {
          "internalType": "string",
          "name": "eventName",
          "type": "string"
        },
        {
          "internalType": "uint256",
          "name": "remainingTickets",
          "type": "uint256"
        },
        {
          "internalType": "uint256",
          "name": "maxCapacity",
          "type": "uint256"
        }
      ],
      "stateMutability": "view",
      "type": "function"
    },
    {
      "inputs": [
        {
          "internalType": "uint256",
          "name": "tokenId",
          "type": "uint256"
        }
      ],
      "name": "getApproved",
      "outputs": [
        {
          "internalType": "address",
          "name": "",
          "type": "address"
        }
      ],
      "stateMutability": "view",
      "type": "function"
    },
    {
      "inputs": [
        {
          "internalType": "string",
          "name": "eventName",
          "type": "string"
        },
        {
          "internalType": "uint256",
          "name": "maxCapacity",
          "type": "uint256"
        }
      ],
      "name": "initEvent",
      "outputs": [
        {
          "internalType": "uint256",
          "name": "",
          "type": "uint256"
        }
      ],
      "stateMutability": "nonpayable",
      "type": "function"
    },
    {
      "inputs": [
        {
          "internalType": "address",
          "name": "owner",
          "type": "address"
        },
        {
          "internalType": "address",
          "name": "operator",
          "type": "address"
        }
      ],
      "name": "isApprovedForAll",
      "outputs": [
        {
          "internalType": "bool",
          "name": "",
          "type": "bool"
        }
      ],
      "stateMutability": "view",
      "type": "function"
    },
    {
      "inputs": [
        {
          "internalType": "uint256",
          "name": "eventID",
          "type": "uint256"
        },
        {
          "internalType": "string",
          "name": "tokenURI",
          "type": "string"
        }
      ],
      "name": "mintNFT",
      "outputs": [
        {
          "internalType": "uint256",
          "name": "",
          "type": "uint256"
        }
      ],
      "stateMutability": "nonpayable",
      "type": "function"
    },
    {
      "inputs": [],
      "name": "name",
      "outputs": [
        {
          "internalType": "string",
          "name": "",
          "type": "string"
        }
      ],
      "stateMutability": "view",
      "type": "function"
    },
    {
      "inputs": [],
      "name": "owner",
      "outputs": [
        {
          "internalType": "address",
          "name": "",
          "type": "address"
        }
      ],
      "stateMutability": "view",
      "type": "function"
    },
    {
      "inputs": [
        {
          "internalType": "uint256",
          "name": "tokenId",
          "type": "uint256"
        }
      ],
      "name": "ownerOf",
      "outputs": [
        {
          "internalType": "address",
          "name": "",
          "type": "address"
        }
      ],
      "stateMutability": "view",
      "type": "function"
    },
    {
      "inputs": [],
      "name": "renounceOwnership",
      "outputs": [],
      "stateMutability": "nonpayable",
      "type": "function"
    },
    {
      "inputs": [
        {
          "internalType": "address",
          "name": "from",
          "type": "address"
        },
        {
          "internalType": "address",
          "name": "to",
          "type": "address"
        },
        {
          "internalType": "uint256",
          "name": "tokenId",
          "type": "uint256"
        }
      ],
      "name": "safeTransferFrom",
      "outputs": [],
      "stateMutability": "nonpayable",
      "type": "function"
    },
    {
      "inputs": [
        {
          "internalType": "address",
          "name": "from",
          "type": "address"
        },
        {
          "internalType": "address",
          "name": "to",
          "type": "address"
        },
        {
          "internalType": "uint256",
          "name": "tokenId",
          "type": "uint256"
        },
        {
          "internalType": "bytes",
          "name": "_data",
          "type": "bytes"
        }
      ],
      "name": "safeTransferFrom",
      "outputs": [],
      "stateMutability": "nonpayable",
      "type": "function"
    },
    {
      "inputs": [
        {
          "internalType": "address",
          "name": "operator",
          "type": "address"
        },
        {
          "internalType": "bool",
          "name": "approved",
          "type": "bool"
        }
      ],
      "name": "setApprovalForAll",
      "outputs": [],
      "stateMutability": "nonpayable",
      "type": "function"
    },
    {
      "inputs": [
        {
          "internalType": "bytes4",
          "name": "interfaceId",
          "type": "bytes4"
        }
      ],
      "name": "supportsInterface",
      "outputs": [
        {
          "internalType": "bool",
          "name": "",
          "type": "bool"
        }
      ],
      "stateMutability": "view",
      "type": "function"
    },
    {
      "inputs": [],
      "name": "symbol",
      "outputs": [
        {
          "internalType": "string",
          "name": "",
          "type": "string"
        }
      ],
      "stateMutability": "view",
      "type": "function"
    },
    {
      "inputs": [
        {
          "internalType": "uint256",
          "name": "",
          "type": "uint256"
        }
      ],
      "name": "ticketMap",
      "outputs": [
        {
          "internalType": "address",
          "name": "",
          "type": "address"
        }
      ],
      "stateMutability": "view",
      "type": "function"
    },
    {
      "inputs": [
        {
          "internalType": "uint256",
          "name": "tokenId",
          "type": "uint256"
        }
      ],
      "name": "tokenURI",
      "outputs": [
        {
          "internalType": "string",
          "name": "",
          "type": "string"
        }
      ],
      "stateMutability": "view",
      "type": "function"
    },
    {
      "inputs": [
        {
          "internalType": "address",
          "name": "from",
          "type": "address"
        },
        {
          "internalType": "address",
          "name": "to",
          "type": "address"
        },
        {
          "internalType": "uint256",
          "name": "tokenId",
          "type": "uint256"
        }
      ],
      "name": "transferFrom",
      "outputs": [],
      "stateMutability": "nonpayable",
      "type": "function"
    },
    {
      "inputs": [
        {
          "internalType": "address",
          "name": "newOwner",
          "type": "address"
        }
      ],
      "name": "transferOwnership",
      "outputs": [],
      "stateMutability": "nonpayable",
      "type": "function"
    }
  ],
  "bytecode": "0x60806040523480156200001157600080fd5b506040518060400160405280600881526020017f4e465469636b65740000000000000000000000000000000000000000000000008152506040518060400160405280600381526020017f4e46540000000000000000000000000000000000000000000000000000000000815250816000908051906020019062000096929190620001a6565b508060019080519060200190620000af929190620001a6565b505050620000d2620000c6620000d860201b60201c565b620000e060201b60201c565b620002bb565b600033905090565b6000600760009054906101000a900473ffffffffffffffffffffffffffffffffffffffff16905081600760006101000a81548173ffffffffffffffffffffffffffffffffffffffff021916908373ffffffffffffffffffffffffffffffffffffffff1602179055508173ffffffffffffffffffffffffffffffffffffffff168173ffffffffffffffffffffffffffffffffffffffff167f8be0079c531659141344cd1fd0a4f28419497f9722a3daafe3b4186f6b6457e060405160405180910390a35050565b828054620001b49062000256565b90600052602060002090601f016020900481019282620001d8576000855562000224565b82601f10620001f357805160ff191683800117855562000224565b8280016001018555821562000224579182015b828111156200022357825182559160200191906001019062000206565b5b50905062000233919062000237565b5090565b5b808211156200025257600081600090555060010162000238565b5090565b600060028204905060018216806200026f57607f821691505b602082108114156200028657620002856200028c565b5b50919050565b7f4e487b7100000000000000000000000000000000000000000000000000000000600052602260045260246000fd5b6133d480620002cb6000396000f3fe608060405234801561001057600080fd5b506004361061012c5760003560e01c806370a08231116100ad578063a22cb46511610071578063a22cb4651461036b578063b88d4fde14610387578063c87b56dd146103a3578063e985e9c5146103d3578063f2fde38b146104035761012c565b806370a08231146102c5578063715018a6146102f55780638da5cb5b146102ff57806394a7ccb21461031d57806395d89b411461034d5761012c565b80631a0c8fa0116100f45780631a0c8fa0146101fd57806323b872dd1461022d57806342842e0e14610249578063500e3cbd146102655780636352211e146102955761012c565b806301ffc9a71461013157806306fdde0314610161578063081812fc1461017f578063095ea7b3146101af5780630b791430146101cb575b600080fd5b61014b60048036038101906101469190612274565b61041f565b6040516101589190612791565b60405180910390f35b610169610501565b60405161017691906127ac565b60405180910390f35b6101996004803603810190610194919061231a565b610593565b6040516101a69190612701565b60405180910390f35b6101c960048036038101906101c49190612238565b610618565b005b6101e560048036038101906101e0919061231a565b610730565b6040516101f4939291906127ce565b60405180910390f35b61021760048036038101906102129190612343565b6107e2565b6040516102249190612a4c565b60405180910390f35b61024760048036038101906102429190612132565b6108f6565b005b610263600480360381019061025e9190612132565b610956565b005b61027f600480360381019061027a919061231a565b610976565b60405161028c9190612701565b60405180910390f35b6102af60048036038101906102aa919061231a565b6109a9565b6040516102bc9190612701565b60405180910390f35b6102df60048036038101906102da91906120cd565b610a5b565b6040516102ec9190612a4c565b60405180910390f35b6102fd610b13565b005b610307610b9b565b6040516103149190612701565b60405180910390f35b610337600480360381019061033291906122c6565b610bc5565b6040516103449190612a4c565b60405180910390f35b610355610c84565b60405161036291906127ac565b60405180910390f35b610385600480360381019061038091906121fc565b610d16565b005b6103a1600480360381019061039c9190612181565b610d2c565b005b6103bd60048036038101906103b8919061231a565b610d8e565b6040516103ca91906127ac565b60405180910390f35b6103ed60048036038101906103e891906120f6565b610ee0565b6040516103fa9190612791565b60405180910390f35b61041d600480360381019061041891906120cd565b610f74565b005b60007f80ac58cd000000000000000000000000000000000000000000000000000000007bffffffffffffffffffffffffffffffffffffffffffffffffffffffff1916827bffffffffffffffffffffffffffffffffffffffffffffffffffffffff191614806104ea57507f5b5e139f000000000000000000000000000000000000000000000000000000007bffffffffffffffffffffffffffffffffffffffffffffffffffffffff1916827bffffffffffffffffffffffffffffffffffffffffffffffffffffffff1916145b806104fa57506104f98261106c565b5b9050919050565b60606000805461051090612ca2565b80601f016020809104026020016040519081016040528092919081815260200182805461053c90612ca2565b80156105895780601f1061055e57610100808354040283529160200191610589565b820191906000526020600020905b81548152906001019060200180831161056c57829003601f168201915b5050505050905090565b600061059e826110d6565b6105dd576040517f08c379a00000000000000000000000000000000000000000000000000000000081526004016105d4906129ac565b60405180910390fd5b6004600083815260200190815260200160002060009054906101000a900473ffffffffffffffffffffffffffffffffffffffff169050919050565b6000610623826109a9565b90508073ffffffffffffffffffffffffffffffffffffffff168373ffffffffffffffffffffffffffffffffffffffff161415610694576040517f08c379a000000000000000000000000000000000000000000000000000000000815260040161068b90612a0c565b60405180910390fd5b8073ffffffffffffffffffffffffffffffffffffffff166106b3611142565b73ffffffffffffffffffffffffffffffffffffffff1614806106e257506106e1816106dc611142565b610ee0565b5b610721576040517f08c379a0000000000000000000000000000000000000000000000000000000008152600401610718906128ec565b60405180910390fd5b61072b838361114a565b505050565b600a60205280600052604060002060009150905080600001805461075390612ca2565b80601f016020809104026020016040519081016040528092919081815260200182805461077f90612ca2565b80156107cc5780601f106107a1576101008083540402835291602001916107cc565b820191906000526020600020905b8154815290600101906020018083116107af57829003601f168201915b5050505050908060010154908060020154905083565b600080600090506000600a60008681526020019081526020016000206001015411156108ec576108126008611203565b61081c6008611219565b90506001600a600086815260200190815260200160002060010160008282546108459190612bb8565b9250508190555033600b600083815260200190815260200160002060006101000a81548173ffffffffffffffffffffffffffffffffffffffff021916908373ffffffffffffffffffffffffffffffffffffffff1602179055506108a83382611227565b6108b28184611245565b7fb7656808f0e04b4af7a20f7ef1caa7669f0d781f1ca4cba31a3ba467880766c933826040516108e3929190612768565b60405180910390a15b8091505092915050565b610907610901611142565b826112b9565b610946576040517f08c379a000000000000000000000000000000000000000000000000000000000815260040161093d90612a2c565b60405180910390fd5b610951838383611397565b505050565b61097183838360405180602001604052806000815250610d2c565b505050565b600b6020528060005260406000206000915054906101000a900473ffffffffffffffffffffffffffffffffffffffff1681565b6000806002600084815260200190815260200160002060009054906101000a900473ffffffffffffffffffffffffffffffffffffffff169050600073ffffffffffffffffffffffffffffffffffffffff168173ffffffffffffffffffffffffffffffffffffffff161415610a52576040517f08c379a0000000000000000000000000000000000000000000000000000000008152600401610a499061292c565b60405180910390fd5b80915050919050565b60008073ffffffffffffffffffffffffffffffffffffffff168273ffffffffffffffffffffffffffffffffffffffff161415610acc576040517f08c379a0000000000000000000000000000000000000000000000000000000008152600401610ac39061290c565b60405180910390fd5b600360008373ffffffffffffffffffffffffffffffffffffffff1673ffffffffffffffffffffffffffffffffffffffff168152602001908152602001600020549050919050565b610b1b611142565b73ffffffffffffffffffffffffffffffffffffffff16610b39610b9b565b73ffffffffffffffffffffffffffffffffffffffff1614610b8f576040517f08c379a0000000000000000000000000000000000000000000000000000000008152600401610b86906129cc565b60405180910390fd5b610b9960006115fe565b565b6000600760009054906101000a900473ffffffffffffffffffffffffffffffffffffffff16905090565b6000610bd16009611203565b6000610bdd6009611219565b9050604051806060016040528085815260200184815260200184815250600a60008381526020019081526020016000206000820151816000019080519060200190610c29929190611ef1565b5060208201518160010155604082015181600201559050507f7cfc5a0c32fcbc6c04d58abc530b3d5c69357bcc294a720a317e79285ad97d543382604051610c72929190612768565b60405180910390a18091505092915050565b606060018054610c9390612ca2565b80601f0160208091040260200160405190810160405280929190818152602001828054610cbf90612ca2565b8015610d0c5780601f10610ce157610100808354040283529160200191610d0c565b820191906000526020600020905b815481529060010190602001808311610cef57829003601f168201915b5050505050905090565b610d28610d21611142565b83836116c4565b5050565b610d3d610d37611142565b836112b9565b610d7c576040517f08c379a0000000000000000000000000000000000000000000000000000000008152600401610d7390612a2c565b60405180910390fd5b610d8884848484611831565b50505050565b6060610d99826110d6565b610dd8576040517f08c379a0000000000000000000000000000000000000000000000000000000008152600401610dcf9061298c565b60405180910390fd5b6000600660008481526020019081526020016000208054610df890612ca2565b80601f0160208091040260200160405190810160405280929190818152602001828054610e2490612ca2565b8015610e715780601f10610e4657610100808354040283529160200191610e71565b820191906000526020600020905b815481529060010190602001808311610e5457829003601f168201915b505050505090506000610e8261188d565b9050600081511415610e98578192505050610edb565b600082511115610ecd578082604051602001610eb59291906126dd565b60405160208183030381529060405292505050610edb565b610ed6846118a4565b925050505b919050565b6000600560008473ffffffffffffffffffffffffffffffffffffffff1673ffffffffffffffffffffffffffffffffffffffff16815260200190815260200160002060008373ffffffffffffffffffffffffffffffffffffffff1673ffffffffffffffffffffffffffffffffffffffff16815260200190815260200160002060009054906101000a900460ff16905092915050565b610f7c611142565b73ffffffffffffffffffffffffffffffffffffffff16610f9a610b9b565b73ffffffffffffffffffffffffffffffffffffffff1614610ff0576040517f08c379a0000000000000000000000000000000000000000000000000000000008152600401610fe7906129cc565b60405180910390fd5b600073ffffffffffffffffffffffffffffffffffffffff168173ffffffffffffffffffffffffffffffffffffffff161415611060576040517f08c379a00000000000000000000000000000000000000000000000000000000081526004016110579061282c565b60405180910390fd5b611069816115fe565b50565b60007f01ffc9a7000000000000000000000000000000000000000000000000000000007bffffffffffffffffffffffffffffffffffffffffffffffffffffffff1916827bffffffffffffffffffffffffffffffffffffffffffffffffffffffff1916149050919050565b60008073ffffffffffffffffffffffffffffffffffffffff166002600084815260200190815260200160002060009054906101000a900473ffffffffffffffffffffffffffffffffffffffff1673ffffffffffffffffffffffffffffffffffffffff1614159050919050565b600033905090565b816004600083815260200190815260200160002060006101000a81548173ffffffffffffffffffffffffffffffffffffffff021916908373ffffffffffffffffffffffffffffffffffffffff160217905550808273ffffffffffffffffffffffffffffffffffffffff166111bd836109a9565b73ffffffffffffffffffffffffffffffffffffffff167f8c5be1e5ebec7d5bd14f71427d1e84f3dd0314c0f7b2291e5b200ac8c7c3b92560405160405180910390a45050565b6001816000016000828254019250508190555050565b600081600001549050919050565b61124182826040518060200160405280600081525061194b565b5050565b61124e826110d6565b61128d576040517f08c379a00000000000000000000000000000000000000000000000000000000081526004016112849061294c565b60405180910390fd5b806006600084815260200190815260200160002090805190602001906112b4929190611ef1565b505050565b60006112c4826110d6565b611303576040517f08c379a00000000000000000000000000000000000000000000000000000000081526004016112fa906128cc565b60405180910390fd5b600061130e836109a9565b90508073ffffffffffffffffffffffffffffffffffffffff168473ffffffffffffffffffffffffffffffffffffffff16148061137d57508373ffffffffffffffffffffffffffffffffffffffff1661136584610593565b73ffffffffffffffffffffffffffffffffffffffff16145b8061138e575061138d8185610ee0565b5b91505092915050565b8273ffffffffffffffffffffffffffffffffffffffff166113b7826109a9565b73ffffffffffffffffffffffffffffffffffffffff161461140d576040517f08c379a00000000000000000000000000000000000000000000000000000000081526004016114049061284c565b60405180910390fd5b600073ffffffffffffffffffffffffffffffffffffffff168273ffffffffffffffffffffffffffffffffffffffff16141561147d576040517f08c379a00000000000000000000000000000000000000000000000000000000081526004016114749061288c565b60405180910390fd5b6114888383836119a6565b61149360008261114a565b6001600360008573ffffffffffffffffffffffffffffffffffffffff1673ffffffffffffffffffffffffffffffffffffffff16815260200190815260200160002060008282546114e39190612bb8565b925050819055506001600360008473ffffffffffffffffffffffffffffffffffffffff1673ffffffffffffffffffffffffffffffffffffffff168152602001908152602001600020600082825461153a9190612b31565b92505081905550816002600083815260200190815260200160002060006101000a81548173ffffffffffffffffffffffffffffffffffffffff021916908373ffffffffffffffffffffffffffffffffffffffff160217905550808273ffffffffffffffffffffffffffffffffffffffff168473ffffffffffffffffffffffffffffffffffffffff167fddf252ad1be2c89b69c2b068fc378daa952ba7f163c4a11628f55a4df523b3ef60405160405180910390a46115f98383836119ab565b505050565b6000600760009054906101000a900473ffffffffffffffffffffffffffffffffffffffff16905081600760006101000a81548173ffffffffffffffffffffffffffffffffffffffff021916908373ffffffffffffffffffffffffffffffffffffffff1602179055508173ffffffffffffffffffffffffffffffffffffffff168173ffffffffffffffffffffffffffffffffffffffff167f8be0079c531659141344cd1fd0a4f28419497f9722a3daafe3b4186f6b6457e060405160405180910390a35050565b8173ffffffffffffffffffffffffffffffffffffffff168373ffffffffffffffffffffffffffffffffffffffff161415611733576040517f08c379a000000000000000000000000000000000000000000000000000000000815260040161172a906128ac565b60405180910390fd5b80600560008573ffffffffffffffffffffffffffffffffffffffff1673ffffffffffffffffffffffffffffffffffffffff16815260200190815260200160002060008473ffffffffffffffffffffffffffffffffffffffff1673ffffffffffffffffffffffffffffffffffffffff16815260200190815260200160002060006101000a81548160ff0219169083151502179055508173ffffffffffffffffffffffffffffffffffffffff168373ffffffffffffffffffffffffffffffffffffffff167f17307eab39ab6107e8899845ad3d59bd9653f200f220920489ca2b5937696c31836040516118249190612791565b60405180910390a3505050565b61183c848484611397565b611848848484846119b0565b611887576040517f08c379a000000000000000000000000000000000000000000000000000000000815260040161187e9061280c565b60405180910390fd5b50505050565b606060405180602001604052806000815250905090565b60606118af826110d6565b6118ee576040517f08c379a00000000000000000000000000000000000000000000000000000000081526004016118e5906129ec565b60405180910390fd5b60006118f861188d565b905060008151116119185760405180602001604052806000815250611943565b8061192284611b47565b6040516020016119339291906126dd565b6040516020818303038152906040525b915050919050565b6119558383611cf4565b61196260008484846119b0565b6119a1576040517f08c379a00000000000000000000000000000000000000000000000000000000081526004016119989061280c565b60405180910390fd5b505050565b505050565b505050565b60006119d18473ffffffffffffffffffffffffffffffffffffffff16611ece565b15611b3a578373ffffffffffffffffffffffffffffffffffffffff1663150b7a026119fa611142565b8786866040518563ffffffff1660e01b8152600401611a1c949392919061271c565b602060405180830381600087803b158015611a3657600080fd5b505af1925050508015611a6757506040513d601f19601f82011682018060405250810190611a64919061229d565b60015b611aea573d8060008114611a97576040519150601f19603f3d011682016040523d82523d6000602084013e611a9c565b606091505b50600081511415611ae2576040517f08c379a0000000000000000000000000000000000000000000000000000000008152600401611ad99061280c565b60405180910390fd5b805181602001fd5b63150b7a0260e01b7bffffffffffffffffffffffffffffffffffffffffffffffffffffffff1916817bffffffffffffffffffffffffffffffffffffffffffffffffffffffff191614915050611b3f565b600190505b949350505050565b60606000821415611b8f576040518060400160405280600181526020017f30000000000000000000000000000000000000000000000000000000000000008152509050611cef565b600082905060005b60008214611bc1578080611baa90612d05565b915050600a82611bba9190612b87565b9150611b97565b60008167ffffffffffffffff811115611c03577f4e487b7100000000000000000000000000000000000000000000000000000000600052604160045260246000fd5b6040519080825280601f01601f191660200182016040528015611c355781602001600182028036833780820191505090505b5090505b60008514611ce857600182611c4e9190612bb8565b9150600a85611c5d9190612d4e565b6030611c699190612b31565b60f81b818381518110611ca5577f4e487b7100000000000000000000000000000000000000000000000000000000600052603260045260246000fd5b60200101907effffffffffffffffffffffffffffffffffffffffffffffffffffffffffffff1916908160001a905350600a85611ce19190612b87565b9450611c39565b8093505050505b919050565b600073ffffffffffffffffffffffffffffffffffffffff168273ffffffffffffffffffffffffffffffffffffffff161415611d64576040517f08c379a0000000000000000000000000000000000000000000000000000000008152600401611d5b9061296c565b60405180910390fd5b611d6d816110d6565b15611dad576040517f08c379a0000000000000000000000000000000000000000000000000000000008152600401611da49061286c565b60405180910390fd5b611db9600083836119a6565b6001600360008473ffffffffffffffffffffffffffffffffffffffff1673ffffffffffffffffffffffffffffffffffffffff1681526020019081526020016000206000828254611e099190612b31565b92505081905550816002600083815260200190815260200160002060006101000a81548173ffffffffffffffffffffffffffffffffffffffff021916908373ffffffffffffffffffffffffffffffffffffffff160217905550808273ffffffffffffffffffffffffffffffffffffffff16600073ffffffffffffffffffffffffffffffffffffffff167fddf252ad1be2c89b69c2b068fc378daa952ba7f163c4a11628f55a4df523b3ef60405160405180910390a4611eca600083836119ab565b5050565b6000808273ffffffffffffffffffffffffffffffffffffffff163b119050919050565b828054611efd90612ca2565b90600052602060002090601f016020900481019282611f1f5760008555611f66565b82601f10611f3857805160ff1916838001178555611f66565b82800160010185558215611f66579182015b82811115611f65578251825591602001919060010190611f4a565b5b509050611f739190611f77565b5090565b5b80821115611f90576000816000905550600101611f78565b5090565b6000611fa7611fa284612a8c565b612a67565b905082815260208101848484011115611fbf57600080fd5b611fca848285612c60565b509392505050565b6000611fe5611fe084612abd565b612a67565b905082815260208101848484011115611ffd57600080fd5b612008848285612c60565b509392505050565b60008135905061201f81613342565b92915050565b60008135905061203481613359565b92915050565b60008135905061204981613370565b92915050565b60008151905061205e81613370565b92915050565b600082601f83011261207557600080fd5b8135612085848260208601611f94565b91505092915050565b600082601f83011261209f57600080fd5b81356120af848260208601611fd2565b91505092915050565b6000813590506120c781613387565b92915050565b6000602082840312156120df57600080fd5b60006120ed84828501612010565b91505092915050565b6000806040838503121561210957600080fd5b600061211785828601612010565b925050602061212885828601612010565b9150509250929050565b60008060006060848603121561214757600080fd5b600061215586828701612010565b935050602061216686828701612010565b9250506040612177868287016120b8565b9150509250925092565b6000806000806080858703121561219757600080fd5b60006121a587828801612010565b94505060206121b687828801612010565b93505060406121c7878288016120b8565b925050606085013567ffffffffffffffff8111156121e457600080fd5b6121f087828801612064565b91505092959194509250565b6000806040838503121561220f57600080fd5b600061221d85828601612010565b925050602061222e85828601612025565b9150509250929050565b6000806040838503121561224b57600080fd5b600061225985828601612010565b925050602061226a858286016120b8565b9150509250929050565b60006020828403121561228657600080fd5b60006122948482850161203a565b91505092915050565b6000602082840312156122af57600080fd5b60006122bd8482850161204f565b91505092915050565b600080604083850312156122d957600080fd5b600083013567ffffffffffffffff8111156122f357600080fd5b6122ff8582860161208e565b9250506020612310858286016120b8565b9150509250929050565b60006020828403121561232c57600080fd5b600061233a848285016120b8565b91505092915050565b6000806040838503121561235657600080fd5b6000612364858286016120b8565b925050602083013567ffffffffffffffff81111561238157600080fd5b61238d8582860161208e565b9150509250929050565b6123a081612bec565b82525050565b6123af81612bfe565b82525050565b60006123c082612aee565b6123ca8185612b04565b93506123da818560208601612c6f565b6123e381612e3b565b840191505092915050565b60006123f982612af9565b6124038185612b15565b9350612413818560208601612c6f565b61241c81612e3b565b840191505092915050565b600061243282612af9565b61243c8185612b26565b935061244c818560208601612c6f565b80840191505092915050565b6000612465603283612b15565b915061247082612e4c565b604082019050919050565b6000612488602683612b15565b915061249382612e9b565b604082019050919050565b60006124ab602583612b15565b91506124b682612eea565b604082019050919050565b60006124ce601c83612b15565b91506124d982612f39565b602082019050919050565b60006124f1602483612b15565b91506124fc82612f62565b604082019050919050565b6000612514601983612b15565b915061251f82612fb1565b602082019050919050565b6000612537602c83612b15565b915061254282612fda565b604082019050919050565b600061255a603883612b15565b915061256582613029565b604082019050919050565b600061257d602a83612b15565b915061258882613078565b604082019050919050565b60006125a0602983612b15565b91506125ab826130c7565b604082019050919050565b60006125c3602e83612b15565b91506125ce82613116565b604082019050919050565b60006125e6602083612b15565b91506125f182613165565b602082019050919050565b6000612609603183612b15565b91506126148261318e565b604082019050919050565b600061262c602c83612b15565b9150612637826131dd565b604082019050919050565b600061264f602083612b15565b915061265a8261322c565b602082019050919050565b6000612672602f83612b15565b915061267d82613255565b604082019050919050565b6000612695602183612b15565b91506126a0826132a4565b604082019050919050565b60006126b8603183612b15565b91506126c3826132f3565b604082019050919050565b6126d781612c56565b82525050565b60006126e98285612427565b91506126f58284612427565b91508190509392505050565b60006020820190506127166000830184612397565b92915050565b60006080820190506127316000830187612397565b61273e6020830186612397565b61274b60408301856126ce565b818103606083015261275d81846123b5565b905095945050505050565b600060408201905061277d6000830185612397565b61278a60208301846126ce565b9392505050565b60006020820190506127a660008301846123a6565b92915050565b600060208201905081810360008301526127c681846123ee565b905092915050565b600060608201905081810360008301526127e881866123ee565b90506127f760208301856126ce565b61280460408301846126ce565b949350505050565b6000602082019050818103600083015261282581612458565b9050919050565b600060208201905081810360008301526128458161247b565b9050919050565b600060208201905081810360008301526128658161249e565b9050919050565b60006020820190508181036000830152612885816124c1565b9050919050565b600060208201905081810360008301526128a5816124e4565b9050919050565b600060208201905081810360008301526128c581612507565b9050919050565b600060208201905081810360008301526128e58161252a565b9050919050565b600060208201905081810360008301526129058161254d565b9050919050565b6000602082019050818103600083015261292581612570565b9050919050565b6000602082019050818103600083015261294581612593565b9050919050565b60006020820190508181036000830152612965816125b6565b9050919050565b60006020820190508181036000830152612985816125d9565b9050919050565b600060208201905081810360008301526129a5816125fc565b9050919050565b600060208201905081810360008301526129c58161261f565b9050919050565b600060208201905081810360008301526129e581612642565b9050919050565b60006020820190508181036000830152612a0581612665565b9050919050565b60006020820190508181036000830152612a2581612688565b9050919050565b60006020820190508181036000830152612a45816126ab565b9050919050565b6000602082019050612a6160008301846126ce565b92915050565b6000612a71612a82565b9050612a7d8282612cd4565b919050565b6000604051905090565b600067ffffffffffffffff821115612aa757612aa6612e0c565b5b612ab082612e3b565b9050602081019050919050565b600067ffffffffffffffff821115612ad857612ad7612e0c565b5b612ae182612e3b565b9050602081019050919050565b600081519050919050565b600081519050919050565b600082825260208201905092915050565b600082825260208201905092915050565b600081905092915050565b6000612b3c82612c56565b9150612b4783612c56565b9250827fffffffffffffffffffffffffffffffffffffffffffffffffffffffffffffffff03821115612b7c57612b7b612d7f565b5b828201905092915050565b6000612b9282612c56565b9150612b9d83612c56565b925082612bad57612bac612dae565b5b828204905092915050565b6000612bc382612c56565b9150612bce83612c56565b925082821015612be157612be0612d7f565b5b828203905092915050565b6000612bf782612c36565b9050919050565b60008115159050919050565b60007fffffffff0000000000000000000000000000000000000000000000000000000082169050919050565b600073ffffffffffffffffffffffffffffffffffffffff82169050919050565b6000819050919050565b82818337600083830152505050565b60005b83811015612c8d578082015181840152602081019050612c72565b83811115612c9c576000848401525b50505050565b60006002820490506001821680612cba57607f821691505b60208210811415612cce57612ccd612ddd565b5b50919050565b612cdd82612e3b565b810181811067ffffffffffffffff82111715612cfc57612cfb612e0c565b5b80604052505050565b6000612d1082612c56565b91507fffffffffffffffffffffffffffffffffffffffffffffffffffffffffffffffff821415612d4357612d42612d7f565b5b600182019050919050565b6000612d5982612c56565b9150612d6483612c56565b925082612d7457612d73612dae565b5b828206905092915050565b7f4e487b7100000000000000000000000000000000000000000000000000000000600052601160045260246000fd5b7f4e487b7100000000000000000000000000000000000000000000000000000000600052601260045260246000fd5b7f4e487b7100000000000000000000000000000000000000000000000000000000600052602260045260246000fd5b7f4e487b7100000000000000000000000000000000000000000000000000000000600052604160045260246000fd5b6000601f19601f8301169050919050565b7f4552433732313a207472616e7366657220746f206e6f6e20455243373231526560008201527f63656976657220696d706c656d656e7465720000000000000000000000000000602082015250565b7f4f776e61626c653a206e6577206f776e657220697320746865207a65726f206160008201527f6464726573730000000000000000000000000000000000000000000000000000602082015250565b7f4552433732313a207472616e736665722066726f6d20696e636f72726563742060008201527f6f776e6572000000000000000000000000000000000000000000000000000000602082015250565b7f4552433732313a20746f6b656e20616c7265616479206d696e74656400000000600082015250565b7f4552433732313a207472616e7366657220746f20746865207a65726f2061646460008201527f7265737300000000000000000000000000000000000000000000000000000000602082015250565b7f4552433732313a20617070726f766520746f2063616c6c657200000000000000600082015250565b7f4552433732313a206f70657261746f7220717565727920666f72206e6f6e657860008201527f697374656e7420746f6b656e0000000000000000000000000000000000000000602082015250565b7f4552433732313a20617070726f76652063616c6c6572206973206e6f74206f7760008201527f6e6572206e6f7220617070726f76656420666f7220616c6c0000000000000000602082015250565b7f4552433732313a2062616c616e636520717565727920666f7220746865207a6560008201527f726f206164647265737300000000000000000000000000000000000000000000602082015250565b7f4552433732313a206f776e657220717565727920666f72206e6f6e657869737460008201527f656e7420746f6b656e0000000000000000000000000000000000000000000000602082015250565b7f45524337323155524953746f726167653a2055524920736574206f66206e6f6e60008201527f6578697374656e7420746f6b656e000000000000000000000000000000000000602082015250565b7f4552433732313a206d696e7420746f20746865207a65726f2061646472657373600082015250565b7f45524337323155524953746f726167653a2055524920717565727920666f722060008201527f6e6f6e6578697374656e7420746f6b656e000000000000000000000000000000602082015250565b7f4552433732313a20617070726f76656420717565727920666f72206e6f6e657860008201527f697374656e7420746f6b656e0000000000000000000000000000000000000000602082015250565b7f4f776e61626c653a2063616c6c6572206973206e6f7420746865206f776e6572600082015250565b7f4552433732314d657461646174613a2055524920717565727920666f72206e6f60008201527f6e6578697374656e7420746f6b656e0000000000000000000000000000000000602082015250565b7f4552433732313a20617070726f76616c20746f2063757272656e74206f776e6560008201527f7200000000000000000000000000000000000000000000000000000000000000602082015250565b7f4552433732313a207472616e736665722063616c6c6572206973206e6f74206f60008201527f776e6572206e6f7220617070726f766564000000000000000000000000000000602082015250565b61334b81612bec565b811461335657600080fd5b50565b61336281612bfe565b811461336d57600080fd5b50565b61337981612c0a565b811461338457600080fd5b50565b61339081612c56565b811461339b57600080fd5b5056fea26469706673582212200c64a84c3e637298a59d0d2775432ee241cef580fed5af0dedebd872664c82ca64736f6c63430008010033",
  "linkReferences": {},
  "deployedLinkReferences": {}
}