{
  "_format": "hh-sol-artifact-1",
  "contractName": "NFTickets",
  "sourceName": "contracts/NFTickets.sol",
  "abi": [
    {
      "inputs": [],
      "stateMutability": "nonpayable",
      "type": "constructor"
    },
    {
      "anonymous": false,
      "inputs": [
        {
          "indexed": true,
          "internalType": "address",
          "name": "owner",
          "type": "address"
        },
        {
          "indexed": true,
          "internalType": "address",
          "name": "approved",
          "type": "address"
        },
        {
          "indexed": true,
          "internalType": "uint256",
          "name": "tokenId",
          "type": "uint256"
        }
      ],
      "name": "Approval",
      "type": "event"
    },
    {
      "anonymous": false,
      "inputs": [
        {
          "indexed": true,
          "internalType": "address",
          "name": "owner",
          "type": "address"
        },
        {
          "indexed": true,
          "internalType": "address",
          "name": "operator",
          "type": "address"
        },
        {
          "indexed": false,
          "internalType": "bool",
          "name": "approved",
          "type": "bool"
        }
      ],
      "name": "ApprovalForAll",
      "type": "event"
    },
    {
      "anonymous": false,
      "inputs": [
        {
          "indexed": true,
          "internalType": "address",
          "name": "previousOwner",
          "type": "address"
        },
        {
          "indexed": true,
          "internalType": "address",
          "name": "newOwner",
          "type": "address"
        }
      ],
      "name": "OwnershipTransferred",
      "type": "event"
    },
    {
      "anonymous": false,
      "inputs": [
        {
          "indexed": true,
          "internalType": "address",
          "name": "from",
          "type": "address"
        },
        {
          "indexed": true,
          "internalType": "address",
          "name": "to",
          "type": "address"
        },
        {
          "indexed": true,
          "internalType": "uint256",
          "name": "tokenId",
          "type": "uint256"
        }
      ],
      "name": "Transfer",
      "type": "event"
    },
    {
      "anonymous": false,
      "inputs": [
        {
          "indexed": false,
          "internalType": "address",
          "name": "owner",
          "type": "address"
        },
        {
          "indexed": false,
          "internalType": "uint256",
          "name": "eventID",
          "type": "uint256"
        }
      ],
      "name": "eventInitialized",
      "type": "event"
    },
    {
      "anonymous": false,
      "inputs": [
        {
          "indexed": false,
          "internalType": "address",
          "name": "sender",
          "type": "address"
        },
        {
          "indexed": false,
          "internalType": "uint256",
          "name": "tokenId",
          "type": "uint256"
        }
      ],
      "name": "minted",
      "type": "event"
    },
    {
      "anonymous": false,
      "inputs": [
        {
          "indexed": false,
          "internalType": "uint256",
          "name": "eventID",
          "type": "uint256"
        },
        {
          "indexed": false,
          "internalType": "uint256[]",
          "name": "winningTokenIDs",
          "type": "uint256[]"
        }
      ],
      "name": "winnersPicked",
      "type": "event"
    },
    {
      "inputs": [
        {
          "internalType": "address",
          "name": "to",
          "type": "address"
        },
        {
          "internalType": "uint256",
          "name": "tokenId",
          "type": "uint256"
        }
      ],
      "name": "approve",
      "outputs": [],
      "stateMutability": "nonpayable",
      "type": "function"
    },
    {
      "inputs": [
        {
          "internalType": "address",
          "name": "owner",
          "type": "address"
        }
      ],
      "name": "balanceOf",
      "outputs": [
        {
          "internalType": "uint256",
          "name": "",
          "type": "uint256"
        }
      ],
      "stateMutability": "view",
      "type": "function"
    },
    {
      "inputs": [
        {
          "internalType": "uint256",
          "name": "tokenId",
          "type": "uint256"
        }
      ],
      "name": "getApproved",
      "outputs": [
        {
          "internalType": "address",
          "name": "",
          "type": "address"
        }
      ],
      "stateMutability": "view",
      "type": "function"
    },
    {
      "inputs": [],
      "name": "getEventList",
      "outputs": [
        {
          "components": [
            {
              "internalType": "bool",
              "name": "isEvent",
              "type": "bool"
            },
            {
              "internalType": "string",
              "name": "eventName",
              "type": "string"
            },
            {
              "internalType": "string",
              "name": "vendorName",
              "type": "string"
            },
            {
              "internalType": "string",
              "name": "date",
              "type": "string"
            },
            {
              "internalType": "string",
              "name": "time",
              "type": "string"
            },
            {
              "internalType": "string",
              "name": "imageURI",
              "type": "string"
            },
            {
              "internalType": "uint256",
              "name": "ticketsMinted",
              "type": "uint256"
            },
            {
              "internalType": "uint256",
              "name": "maxCapacity",
              "type": "uint256"
            },
            {
              "internalType": "uint256",
              "name": "startingTokenID",
              "type": "uint256"
            },
            {
              "internalType": "uint256",
              "name": "mintPrice",
              "type": "uint256"
            },
            {
              "internalType": "address",
              "name": "eventOwner",
              "type": "address"
            }
          ],
          "internalType": "struct NFTickets.eventStruct[]",
          "name": "",
          "type": "tuple[]"
        }
      ],
      "stateMutability": "view",
      "type": "function"
    },
    {
      "inputs": [],
      "name": "getRandomNumber",
      "outputs": [
        {
          "internalType": "bytes32",
          "name": "requestId",
          "type": "bytes32"
        }
      ],
      "stateMutability": "nonpayable",
      "type": "function"
    },
    {
      "inputs": [
        {
          "internalType": "address",
          "name": "owner",
          "type": "address"
        }
      ],
      "name": "getUsersTickets",
      "outputs": [
        {
          "components": [
            {
              "internalType": "address",
              "name": "owner",
              "type": "address"
            },
            {
              "internalType": "uint256",
              "name": "eventID",
              "type": "uint256"
            },
            {
              "internalType": "string",
              "name": "winner",
              "type": "string"
            }
          ],
          "internalType": "struct NFTickets.tokenStruct[]",
          "name": "",
          "type": "tuple[]"
        }
      ],
      "stateMutability": "view",
      "type": "function"
    },
    {
      "inputs": [
        {
          "internalType": "string",
          "name": "eventName",
          "type": "string"
        },
        {
          "internalType": "string",
          "name": "vendorName",
          "type": "string"
        },
        {
          "internalType": "string",
          "name": "date",
          "type": "string"
        },
        {
          "internalType": "string",
          "name": "time",
          "type": "string"
        },
        {
          "internalType": "uint256",
          "name": "maxCapacity",
          "type": "uint256"
        },
        {
          "internalType": "uint256",
          "name": "mintPrice",
          "type": "uint256"
        },
        {
          "internalType": "string",
          "name": "imageURI",
          "type": "string"
        }
      ],
      "name": "initEvent",
      "outputs": [
        {
          "internalType": "uint256",
          "name": "",
          "type": "uint256"
        }
      ],
      "stateMutability": "nonpayable",
      "type": "function"
    },
    {
      "inputs": [
        {
          "internalType": "address",
          "name": "owner",
          "type": "address"
        },
        {
          "internalType": "address",
          "name": "operator",
          "type": "address"
        }
      ],
      "name": "isApprovedForAll",
      "outputs": [
        {
          "internalType": "bool",
          "name": "",
          "type": "bool"
        }
      ],
      "stateMutability": "view",
      "type": "function"
    },
    {
      "inputs": [
        {
          "internalType": "uint256",
          "name": "eventID",
          "type": "uint256"
        }
      ],
      "name": "mintTicket",
      "outputs": [
        {
          "internalType": "uint256",
          "name": "",
          "type": "uint256"
        }
      ],
      "stateMutability": "payable",
      "type": "function"
    },
    {
      "inputs": [],
      "name": "name",
      "outputs": [
        {
          "internalType": "string",
          "name": "",
          "type": "string"
        }
      ],
      "stateMutability": "view",
      "type": "function"
    },
    {
      "inputs": [],
      "name": "owner",
      "outputs": [
        {
          "internalType": "address",
          "name": "",
          "type": "address"
        }
      ],
      "stateMutability": "view",
      "type": "function"
    },
    {
      "inputs": [
        {
          "internalType": "uint256",
          "name": "tokenId",
          "type": "uint256"
        }
      ],
      "name": "ownerOf",
      "outputs": [
        {
          "internalType": "address",
          "name": "",
          "type": "address"
        }
      ],
      "stateMutability": "view",
      "type": "function"
    },
    {
      "inputs": [],
      "name": "randomNumber",
      "outputs": [
        {
          "internalType": "uint256",
          "name": "",
          "type": "uint256"
        }
      ],
      "stateMutability": "view",
      "type": "function"
    },
    {
      "inputs": [
        {
          "internalType": "bytes32",
          "name": "requestId",
          "type": "bytes32"
        },
        {
          "internalType": "uint256",
          "name": "randomness",
          "type": "uint256"
        }
      ],
      "name": "rawFulfillRandomness",
      "outputs": [],
      "stateMutability": "nonpayable",
      "type": "function"
    },
    {
      "inputs": [],
      "name": "renounceOwnership",
      "outputs": [],
      "stateMutability": "nonpayable",
      "type": "function"
    },
    {
      "inputs": [
        {
          "internalType": "address",
          "name": "from",
          "type": "address"
        },
        {
          "internalType": "address",
          "name": "to",
          "type": "address"
        },
        {
          "internalType": "uint256",
          "name": "tokenId",
          "type": "uint256"
        }
      ],
      "name": "safeTransferFrom",
      "outputs": [],
      "stateMutability": "nonpayable",
      "type": "function"
    },
    {
      "inputs": [
        {
          "internalType": "address",
          "name": "from",
          "type": "address"
        },
        {
          "internalType": "address",
          "name": "to",
          "type": "address"
        },
        {
          "internalType": "uint256",
          "name": "tokenId",
          "type": "uint256"
        },
        {
          "internalType": "bytes",
          "name": "_data",
          "type": "bytes"
        }
      ],
      "name": "safeTransferFrom",
      "outputs": [],
      "stateMutability": "nonpayable",
      "type": "function"
    },
    {
      "inputs": [
        {
          "internalType": "address",
          "name": "operator",
          "type": "address"
        },
        {
          "internalType": "bool",
          "name": "approved",
          "type": "bool"
        }
      ],
      "name": "setApprovalForAll",
      "outputs": [],
      "stateMutability": "nonpayable",
      "type": "function"
    },
    {
      "inputs": [
        {
          "internalType": "bytes4",
          "name": "interfaceId",
          "type": "bytes4"
        }
      ],
      "name": "supportsInterface",
      "outputs": [
        {
          "internalType": "bool",
          "name": "",
          "type": "bool"
        }
      ],
      "stateMutability": "view",
      "type": "function"
    },
    {
      "inputs": [],
      "name": "symbol",
      "outputs": [
        {
          "internalType": "string",
          "name": "",
          "type": "string"
        }
      ],
      "stateMutability": "view",
      "type": "function"
    },
    {
      "inputs": [
        {
          "internalType": "uint256",
          "name": "tokenId",
          "type": "uint256"
        }
      ],
      "name": "tokenURI",
      "outputs": [
        {
          "internalType": "string",
          "name": "",
          "type": "string"
        }
      ],
      "stateMutability": "view",
      "type": "function"
    },
    {
      "inputs": [
        {
          "internalType": "address",
          "name": "from",
          "type": "address"
        },
        {
          "internalType": "address",
          "name": "to",
          "type": "address"
        },
        {
          "internalType": "uint256",
          "name": "tokenId",
          "type": "uint256"
        }
      ],
      "name": "transferFrom",
      "outputs": [],
      "stateMutability": "nonpayable",
      "type": "function"
    },
    {
      "inputs": [
        {
          "internalType": "address",
          "name": "newOwner",
          "type": "address"
        }
      ],
      "name": "transferOwnership",
      "outputs": [],
      "stateMutability": "nonpayable",
      "type": "function"
    },
    {
      "inputs": [
        {
          "internalType": "address",
          "name": "owner",
          "type": "address"
        },
        {
          "internalType": "uint256",
          "name": "tokenID",
          "type": "uint256"
        }
      ],
      "name": "verifyTicket",
      "outputs": [
        {
          "internalType": "bool",
          "name": "",
          "type": "bool"
        }
      ],
      "stateMutability": "view",
      "type": "function"
    }
  ],
  "bytecode": "0x60c06040523480156200001157600080fd5b50738c7382f9d8f56b33781fe506e897a4f1e2d1725573326c977e6efc84e512bb9c30f76e30c160ed06fb6040518060400160405280600881526020017f4e465469636b65740000000000000000000000000000000000000000000000008152506040518060400160405280600381526020017f4e465400000000000000000000000000000000000000000000000000000000008152508160009080519060200190620000c092919062000277565b508060019080519060200190620000d992919062000277565b5050508173ffffffffffffffffffffffffffffffffffffffff1660a08173ffffffffffffffffffffffffffffffffffffffff1660601b815250508073ffffffffffffffffffffffffffffffffffffffff1660808173ffffffffffffffffffffffffffffffffffffffff1660601b8152505050507f6e75b569a01ef56d18cab6a8e71e6600d6ce853834d4a5748b720d06f878b3a460001b600881905550655af3107a4000600981905550620001a362000197620001a960201b60201c565b620001b160201b60201c565b6200038c565b600033905090565b6000600b60009054906101000a900473ffffffffffffffffffffffffffffffffffffffff16905081600b60006101000a81548173ffffffffffffffffffffffffffffffffffffffff021916908373ffffffffffffffffffffffffffffffffffffffff1602179055508173ffffffffffffffffffffffffffffffffffffffff168173ffffffffffffffffffffffffffffffffffffffff167f8be0079c531659141344cd1fd0a4f28419497f9722a3daafe3b4186f6b6457e060405160405180910390a35050565b828054620002859062000327565b90600052602060002090601f016020900481019282620002a95760008555620002f5565b82601f10620002c457805160ff1916838001178555620002f5565b82800160010185558215620002f5579182015b82811115620002f4578251825591602001919060010190620002d7565b5b50905062000304919062000308565b5090565b5b808211156200032357600081600090555060010162000309565b5090565b600060028204905060018216806200034057607f821691505b602082108114156200035757620003566200035d565b5b50919050565b7f4e487b7100000000000000000000000000000000000000000000000000000000600052602260045260246000fd5b60805160601c60a05160601c6159b5620003c660003960008181611bbf0152612c880152600081816120790152612c4c01526159b56000f3fe60806040526004361061014b5760003560e01c8063715018a6116100b6578063b88d4fde1161006f578063b88d4fde146104bb578063c87b56dd146104e4578063ccbac9f514610521578063dbdff2c11461054c578063e985e9c514610577578063f2fde38b146105b45761014b565b8063715018a6146103bf5780638da5cb5b146103d657806394985ddd1461040157806395d89b411461042a578063a22cb46514610455578063a58ce16f1461047e5761014b565b806323b872dd1161010857806323b872dd14610286578063256d52f6146102af5780632bf0619a146102df57806342842e0e1461031c5780636352211e1461034557806370a08231146103825761014b565b806301ffc9a71461015057806306fdde031461018d578063081812fc146101b8578063095ea7b3146101f55780631619c6d31461021e5780631db069491461025b575b600080fd5b34801561015c57600080fd5b5061017760048036038101906101729190613ab5565b6105dd565b6040516101849190614778565b60405180910390f35b34801561019957600080fd5b506101a26106bf565b6040516101af919061481c565b60405180910390f35b3480156101c457600080fd5b506101df60048036038101906101da9190613c1d565b610751565b6040516101ec9190614666565b60405180910390f35b34801561020157600080fd5b5061021c60048036038101906102179190613a14565b6107d6565b005b34801561022a57600080fd5b5061024560048036038101906102409190613a14565b6108ee565b6040516102529190614778565b60405180910390f35b34801561026757600080fd5b5061027061096e565b60405161027d9190614734565b60405180910390f35b34801561029257600080fd5b506102ad60048036038101906102a8919061390e565b610d41565b005b6102c960048036038101906102c49190613c1d565b610da1565b6040516102d69190614b3e565b60405180910390f35b3480156102eb57600080fd5b5061030660048036038101906103019190613b07565b61167b565b6040516103139190614b3e565b60405180910390f35b34801561032857600080fd5b50610343600480360381019061033e919061390e565b611981565b005b34801561035157600080fd5b5061036c60048036038101906103679190613c1d565b6119a1565b6040516103799190614666565b60405180910390f35b34801561038e57600080fd5b506103a960048036038101906103a491906138a9565b611a53565b6040516103b69190614b3e565b60405180910390f35b3480156103cb57600080fd5b506103d4611b0b565b005b3480156103e257600080fd5b506103eb611b93565b6040516103f89190614666565b60405180910390f35b34801561040d57600080fd5b5061042860048036038101906104239190613a79565b611bbd565b005b34801561043657600080fd5b5061043f611c59565b60405161044c919061481c565b60405180910390f35b34801561046157600080fd5b5061047c600480360381019061047791906139d8565b611ceb565b005b34801561048a57600080fd5b506104a560048036038101906104a091906138a9565b611d01565b6040516104b29190614756565b60405180910390f35b3480156104c757600080fd5b506104e260048036038101906104dd919061395d565b611eb8565b005b3480156104f057600080fd5b5061050b60048036038101906105069190613c1d565b611f1a565b604051610518919061481c565b60405180910390f35b34801561052d57600080fd5b5061053661206c565b6040516105439190614b3e565b60405180910390f35b34801561055857600080fd5b50610561612072565b60405161056e9190614793565b60405180910390f35b34801561058357600080fd5b5061059e600480360381019061059991906138d2565b612173565b6040516105ab9190614778565b60405180910390f35b3480156105c057600080fd5b506105db60048036038101906105d691906138a9565b612207565b005b60007f80ac58cd000000000000000000000000000000000000000000000000000000007bffffffffffffffffffffffffffffffffffffffffffffffffffffffff1916827bffffffffffffffffffffffffffffffffffffffffffffffffffffffff191614806106a857507f5b5e139f000000000000000000000000000000000000000000000000000000007bffffffffffffffffffffffffffffffffffffffffffffffffffffffff1916827bffffffffffffffffffffffffffffffffffffffffffffffffffffffff1916145b806106b857506106b7826122ff565b5b9050919050565b6060600080546106ce90614e7b565b80601f01602080910402602001604051908101604052809291908181526020018280546106fa90614e7b565b80156107475780601f1061071c57610100808354040283529160200191610747565b820191906000526020600020905b81548152906001019060200180831161072a57829003601f168201915b5050505050905090565b600061075c82612369565b61079b576040517f08c379a000000000000000000000000000000000000000000000000000000000815260040161079290614a1e565b60405180910390fd5b6004600083815260200190815260200160002060009054906101000a900473ffffffffffffffffffffffffffffffffffffffff169050919050565b60006107e1826119a1565b90508073ffffffffffffffffffffffffffffffffffffffff168373ffffffffffffffffffffffffffffffffffffffff161415610852576040517f08c379a000000000000000000000000000000000000000000000000000000000815260040161084990614abe565b60405180910390fd5b8073ffffffffffffffffffffffffffffffffffffffff166108716123d5565b73ffffffffffffffffffffffffffffffffffffffff1614806108a0575061089f8161089a6123d5565b612173565b5b6108df576040517f08c379a00000000000000000000000000000000000000000000000000000000081526004016108d69061495e565b60405180910390fd5b6108e983836123dd565b505050565b60008273ffffffffffffffffffffffffffffffffffffffff16600e600084815260200190815260200160002060000160009054906101000a900473ffffffffffffffffffffffffffffffffffffffff1673ffffffffffffffffffffffffffffffffffffffff1614156109635760019050610968565b600090505b92915050565b6060600d805480602002602001604051908101604052809291908181526020016000905b82821015610d3857838290600052602060002090600b0201604051806101600160405290816000820160009054906101000a900460ff161515151581526020016001820180546109e190614e7b565b80601f0160208091040260200160405190810160405280929190818152602001828054610a0d90614e7b565b8015610a5a5780601f10610a2f57610100808354040283529160200191610a5a565b820191906000526020600020905b815481529060010190602001808311610a3d57829003601f168201915b50505050508152602001600282018054610a7390614e7b565b80601f0160208091040260200160405190810160405280929190818152602001828054610a9f90614e7b565b8015610aec5780601f10610ac157610100808354040283529160200191610aec565b820191906000526020600020905b815481529060010190602001808311610acf57829003601f168201915b50505050508152602001600382018054610b0590614e7b565b80601f0160208091040260200160405190810160405280929190818152602001828054610b3190614e7b565b8015610b7e5780601f10610b5357610100808354040283529160200191610b7e565b820191906000526020600020905b815481529060010190602001808311610b6157829003601f168201915b50505050508152602001600482018054610b9790614e7b565b80601f0160208091040260200160405190810160405280929190818152602001828054610bc390614e7b565b8015610c105780601f10610be557610100808354040283529160200191610c10565b820191906000526020600020905b815481529060010190602001808311610bf357829003601f168201915b50505050508152602001600582018054610c2990614e7b565b80601f0160208091040260200160405190810160405280929190818152602001828054610c5590614e7b565b8015610ca25780601f10610c7757610100808354040283529160200191610ca2565b820191906000526020600020905b815481529060010190602001808311610c8557829003601f168201915b5050505050815260200160068201548152602001600782015481526020016008820154815260200160098201548152602001600a820160009054906101000a900473ffffffffffffffffffffffffffffffffffffffff1673ffffffffffffffffffffffffffffffffffffffff1673ffffffffffffffffffffffffffffffffffffffff168152505081526020019060010190610992565b50505050905090565b610d52610d4c6123d5565b82612496565b610d91576040517f08c379a0000000000000000000000000000000000000000000000000000000008152600401610d8890614ade565b60405180910390fd5b610d9c838383612574565b505050565b600060011515600d8381548110610de1577f4e487b7100000000000000000000000000000000000000000000000000000000600052603260045260246000fd5b90600052602060002090600b020160000160009054906101000a900460ff16151514610e42576040517f08c379a0000000000000000000000000000000000000000000000000000000008152600401610e3990614b1e565b60405180910390fd5b600d8281548110610e7c577f4e487b7100000000000000000000000000000000000000000000000000000000600052603260045260246000fd5b90600052602060002090600b020160070154600d8381548110610ec8577f4e487b7100000000000000000000000000000000000000000000000000000000600052603260045260246000fd5b90600052602060002090600b02016006015410610f1a576040517f08c379a0000000000000000000000000000000000000000000000000000000008152600401610f1190614afe565b60405180910390fd5b600d8281548110610f54577f4e487b7100000000000000000000000000000000000000000000000000000000600052603260045260246000fd5b90600052602060002090600b020160090154341015610fa8576040517f08c379a0000000000000000000000000000000000000000000000000000000008152600401610f9f9061491e565b60405180910390fd5b6000600d8381548110610fe4577f4e487b7100000000000000000000000000000000000000000000000000000000600052603260045260246000fd5b90600052602060002090600b020160060154600d8481548110611030577f4e487b7100000000000000000000000000000000000000000000000000000000600052603260045260246000fd5b90600052602060002090600b02016008015461104c9190614ca6565b90506001600d848154811061108a577f4e487b7100000000000000000000000000000000000000000000000000000000600052603260045260246000fd5b90600052602060002090600b020160060160008282546110aa9190614ca6565b9250508190555060405180606001604052803373ffffffffffffffffffffffffffffffffffffffff1681526020018481526020016040518060400160405280600581526020017f66616c7365000000000000000000000000000000000000000000000000000000815250815250600e600083815260200190815260200160002060008201518160000160006101000a81548173ffffffffffffffffffffffffffffffffffffffff021916908373ffffffffffffffffffffffffffffffffffffffff16021790555060208201518160010155604082015181600201908051906020019061119792919061368e565b509050506111a533826127db565b6116108161160b600d86815481106111e6577f4e487b7100000000000000000000000000000000000000000000000000000000600052603260045260246000fd5b90600052602060002090600b0201600101805461120290614e7b565b80601f016020809104026020016040519081016040528092919081815260200182805461122e90614e7b565b801561127b5780601f106112505761010080835404028352916020019161127b565b820191906000526020600020905b81548152906001019060200180831161125e57829003601f168201915b5050505050600d87815481106112ba577f4e487b7100000000000000000000000000000000000000000000000000000000600052603260045260246000fd5b90600052602060002090600b020160020180546112d690614e7b565b80601f016020809104026020016040519081016040528092919081815260200182805461130290614e7b565b801561134f5780601f106113245761010080835404028352916020019161134f565b820191906000526020600020905b81548152906001019060200180831161133257829003601f168201915b5050505050600d888154811061138e577f4e487b7100000000000000000000000000000000000000000000000000000000600052603260045260246000fd5b90600052602060002090600b020160030180546113aa90614e7b565b80601f01602080910402602001604051908101604052809291908181526020018280546113d690614e7b565b80156114235780601f106113f857610100808354040283529160200191611423565b820191906000526020600020905b81548152906001019060200180831161140657829003601f168201915b5050505050600d8981548110611462577f4e487b7100000000000000000000000000000000000000000000000000000000600052603260045260246000fd5b90600052602060002090600b0201600401805461147e90614e7b565b80601f01602080910402602001604051908101604052809291908181526020018280546114aa90614e7b565b80156114f75780601f106114cc576101008083540402835291602001916114f7565b820191906000526020600020905b8154815290600101906020018083116114da57829003601f168201915b5050505050600d8a81548110611536577f4e487b7100000000000000000000000000000000000000000000000000000000600052603260045260246000fd5b90600052602060002090600b0201600501805461155290614e7b565b80601f016020809104026020016040519081016040528092919081815260200182805461157e90614e7b565b80156115cb5780601f106115a0576101008083540402835291602001916115cb565b820191906000526020600020905b8154815290600101906020018083116115ae57829003601f168201915b50505050506040518060400160405280600581526020017f66616c73650000000000000000000000000000000000000000000000000000008152506127f9565b612858565b600f8190806001815401808255809150506001900390600052602060002001600090919091909150557fb7656808f0e04b4af7a20f7ef1caa7669f0d781f1ca4cba31a3ba467880766c9338260405161166a9291906146cd565b60405180910390a180915050919050565b60008060019050600061168e600c6128cc565b111561174b57600d6116a0600c6128cc565b815481106116d7577f4e487b7100000000000000000000000000000000000000000000000000000000600052603260045260246000fd5b90600052602060002090600b020160070154600d6116f5600c6128cc565b8154811061172c577f4e487b7100000000000000000000000000000000000000000000000000000000600052603260045260246000fd5b90600052602060002090600b0201600801546117489190614ca6565b90505b6000611757600c6128cc565b90506040518061016001604052806001151581526020018b81526020018a815260200189815260200188815260200185815260200160008152602001878152602001838152602001600081526020013373ffffffffffffffffffffffffffffffffffffffff16815250600d82815481106117fa577f4e487b7100000000000000000000000000000000000000000000000000000000600052603260045260246000fd5b90600052602060002090600b020160008201518160000160006101000a81548160ff021916908315150217905550602082015181600101908051906020019061184492919061368e565b50604082015181600201908051906020019061186192919061368e565b50606082015181600301908051906020019061187e92919061368e565b50608082015181600401908051906020019061189b92919061368e565b5060a08201518160050190805190602001906118b892919061368e565b5060c0820151816006015560e082015181600701556101008201518160080155610120820151816009015561014082015181600a0160006101000a81548173ffffffffffffffffffffffffffffffffffffffff021916908373ffffffffffffffffffffffffffffffffffffffff160217905550905050611938600c6128da565b7f7cfc5a0c32fcbc6c04d58abc530b3d5c69357bcc294a720a317e79285ad97d5433826040516119699291906146cd565b60405180910390a18092505050979650505050505050565b61199c83838360405180602001604052806000815250611eb8565b505050565b6000806002600084815260200190815260200160002060009054906101000a900473ffffffffffffffffffffffffffffffffffffffff169050600073ffffffffffffffffffffffffffffffffffffffff168173ffffffffffffffffffffffffffffffffffffffff161415611a4a576040517f08c379a0000000000000000000000000000000000000000000000000000000008152600401611a419061499e565b60405180910390fd5b80915050919050565b60008073ffffffffffffffffffffffffffffffffffffffff168273ffffffffffffffffffffffffffffffffffffffff161415611ac4576040517f08c379a0000000000000000000000000000000000000000000000000000000008152600401611abb9061497e565b60405180910390fd5b600360008373ffffffffffffffffffffffffffffffffffffffff1673ffffffffffffffffffffffffffffffffffffffff168152602001908152602001600020549050919050565b611b136123d5565b73ffffffffffffffffffffffffffffffffffffffff16611b31611b93565b73ffffffffffffffffffffffffffffffffffffffff1614611b87576040517f08c379a0000000000000000000000000000000000000000000000000000000008152600401611b7e90614a5e565b60405180910390fd5b611b9160006128f0565b565b6000600b60009054906101000a900473ffffffffffffffffffffffffffffffffffffffff16905090565b7f000000000000000000000000000000000000000000000000000000000000000073ffffffffffffffffffffffffffffffffffffffff163373ffffffffffffffffffffffffffffffffffffffff1614611c4b576040517f08c379a0000000000000000000000000000000000000000000000000000000008152600401611c4290614a9e565b60405180910390fd5b611c5582826129b6565b5050565b606060018054611c6890614e7b565b80601f0160208091040260200160405190810160405280929190818152602001828054611c9490614e7b565b8015611ce15780601f10611cb657610100808354040283529160200191611ce1565b820191906000526020600020905b815481529060010190602001808311611cc457829003601f168201915b5050505050905090565b611cfd611cf66123d5565b83836129c1565b5050565b60608060005b600f80549050811015611eae578373ffffffffffffffffffffffffffffffffffffffff1682600f8381548110611d66577f4e487b7100000000000000000000000000000000000000000000000000000000600052603260045260246000fd5b906000526020600020015481518110611da8577f4e487b7100000000000000000000000000000000000000000000000000000000600052603260045260246000fd5b60200260200101516000015173ffffffffffffffffffffffffffffffffffffffff161415611e9a5781600f8281548110611e0b577f4e487b7100000000000000000000000000000000000000000000000000000000600052603260045260246000fd5b906000526020600020015481518110611e4d577f4e487b7100000000000000000000000000000000000000000000000000000000600052603260045260246000fd5b6020026020010151828281518110611e8e577f4e487b7100000000000000000000000000000000000000000000000000000000600052603260045260246000fd5b60200260200101819052505b600181611ea79190614ca6565b9050611d07565b5080915050919050565b611ec9611ec36123d5565b83612496565b611f08576040517f08c379a0000000000000000000000000000000000000000000000000000000008152600401611eff90614ade565b60405180910390fd5b611f1484848484612b2e565b50505050565b6060611f2582612369565b611f64576040517f08c379a0000000000000000000000000000000000000000000000000000000008152600401611f5b906149fe565b60405180910390fd5b6000600660008481526020019081526020016000208054611f8490614e7b565b80601f0160208091040260200160405190810160405280929190818152602001828054611fb090614e7b565b8015611ffd5780601f10611fd257610100808354040283529160200191611ffd565b820191906000526020600020905b815481529060010190602001808311611fe057829003601f168201915b50505050509050600061200e612b8a565b9050600081511415612024578192505050612067565b600082511115612059578082604051602001612041929190614544565b60405160208183030381529060405292505050612067565b61206284612ba1565b925050505b919050565b600a5481565b60006009547f000000000000000000000000000000000000000000000000000000000000000073ffffffffffffffffffffffffffffffffffffffff166370a08231306040518263ffffffff1660e01b81526004016120d09190614666565b60206040518083038186803b1580156120e857600080fd5b505afa1580156120fc573d6000803e3d6000fd5b505050506040513d601f19601f820116820180604052508101906121209190613c46565b11612160576040517f08c379a0000000000000000000000000000000000000000000000000000000008152600401612157906148fe565b60405180910390fd5b61216e600854600954612c48565b905090565b6000600560008473ffffffffffffffffffffffffffffffffffffffff1673ffffffffffffffffffffffffffffffffffffffff16815260200190815260200160002060008373ffffffffffffffffffffffffffffffffffffffff1673ffffffffffffffffffffffffffffffffffffffff16815260200190815260200160002060009054906101000a900460ff16905092915050565b61220f6123d5565b73ffffffffffffffffffffffffffffffffffffffff1661222d611b93565b73ffffffffffffffffffffffffffffffffffffffff1614612283576040517f08c379a000000000000000000000000000000000000000000000000000000000815260040161227a90614a5e565b60405180910390fd5b600073ffffffffffffffffffffffffffffffffffffffff168173ffffffffffffffffffffffffffffffffffffffff1614156122f3576040517f08c379a00000000000000000000000000000000000000000000000000000000081526004016122ea9061485e565b60405180910390fd5b6122fc816128f0565b50565b60007f01ffc9a7000000000000000000000000000000000000000000000000000000007bffffffffffffffffffffffffffffffffffffffffffffffffffffffff1916827bffffffffffffffffffffffffffffffffffffffffffffffffffffffff1916149050919050565b60008073ffffffffffffffffffffffffffffffffffffffff166002600084815260200190815260200160002060009054906101000a900473ffffffffffffffffffffffffffffffffffffffff1673ffffffffffffffffffffffffffffffffffffffff1614159050919050565b600033905090565b816004600083815260200190815260200160002060006101000a81548173ffffffffffffffffffffffffffffffffffffffff021916908373ffffffffffffffffffffffffffffffffffffffff160217905550808273ffffffffffffffffffffffffffffffffffffffff16612450836119a1565b73ffffffffffffffffffffffffffffffffffffffff167f8c5be1e5ebec7d5bd14f71427d1e84f3dd0314c0f7b2291e5b200ac8c7c3b92560405160405180910390a45050565b60006124a182612369565b6124e0576040517f08c379a00000000000000000000000000000000000000000000000000000000081526004016124d79061493e565b60405180910390fd5b60006124eb836119a1565b90508073ffffffffffffffffffffffffffffffffffffffff168473ffffffffffffffffffffffffffffffffffffffff16148061255a57508373ffffffffffffffffffffffffffffffffffffffff1661254284610751565b73ffffffffffffffffffffffffffffffffffffffff16145b8061256b575061256a8185612173565b5b91505092915050565b8273ffffffffffffffffffffffffffffffffffffffff16612594826119a1565b73ffffffffffffffffffffffffffffffffffffffff16146125ea576040517f08c379a00000000000000000000000000000000000000000000000000000000081526004016125e19061487e565b60405180910390fd5b600073ffffffffffffffffffffffffffffffffffffffff168273ffffffffffffffffffffffffffffffffffffffff16141561265a576040517f08c379a0000000000000000000000000000000000000000000000000000000008152600401612651906148be565b60405180910390fd5b612665838383612daa565b6126706000826123dd565b6001600360008573ffffffffffffffffffffffffffffffffffffffff1673ffffffffffffffffffffffffffffffffffffffff16815260200190815260200160002060008282546126c09190614d87565b925050819055506001600360008473ffffffffffffffffffffffffffffffffffffffff1673ffffffffffffffffffffffffffffffffffffffff16815260200190815260200160002060008282546127179190614ca6565b92505081905550816002600083815260200190815260200160002060006101000a81548173ffffffffffffffffffffffffffffffffffffffff021916908373ffffffffffffffffffffffffffffffffffffffff160217905550808273ffffffffffffffffffffffffffffffffffffffff168473ffffffffffffffffffffffffffffffffffffffff167fddf252ad1be2c89b69c2b068fc378daa952ba7f163c4a11628f55a4df523b3ef60405160405180910390a46127d6838383612e04565b505050565b6127f5828260405180602001604052806000815250612e09565b5050565b606061282d87878787868860405160200161281996959493929190614568565b604051602081830303815290604052612e64565b60405160200161283d9190614644565b60405160208183030381529060405290509695505050505050565b61286182612369565b6128a0576040517f08c379a0000000000000000000000000000000000000000000000000000000008152600401612897906149be565b60405180910390fd5b806006600084815260200190815260200160002090805190602001906128c792919061368e565b505050565b600081600001549050919050565b6001816000016000828254019250508190555050565b6000600b60009054906101000a900473ffffffffffffffffffffffffffffffffffffffff16905081600b60006101000a81548173ffffffffffffffffffffffffffffffffffffffff021916908373ffffffffffffffffffffffffffffffffffffffff1602179055508173ffffffffffffffffffffffffffffffffffffffff168173ffffffffffffffffffffffffffffffffffffffff167f8be0079c531659141344cd1fd0a4f28419497f9722a3daafe3b4186f6b6457e060405160405180910390a35050565b80600a819055505050565b8173ffffffffffffffffffffffffffffffffffffffff168373ffffffffffffffffffffffffffffffffffffffff161415612a30576040517f08c379a0000000000000000000000000000000000000000000000000000000008152600401612a27906148de565b60405180910390fd5b80600560008573ffffffffffffffffffffffffffffffffffffffff1673ffffffffffffffffffffffffffffffffffffffff16815260200190815260200160002060008473ffffffffffffffffffffffffffffffffffffffff1673ffffffffffffffffffffffffffffffffffffffff16815260200190815260200160002060006101000a81548160ff0219169083151502179055508173ffffffffffffffffffffffffffffffffffffffff168373ffffffffffffffffffffffffffffffffffffffff167f17307eab39ab6107e8899845ad3d59bd9653f200f220920489ca2b5937696c3183604051612b219190614778565b60405180910390a3505050565b612b39848484612574565b612b4584848484613003565b612b84576040517f08c379a0000000000000000000000000000000000000000000000000000000008152600401612b7b9061483e565b60405180910390fd5b50505050565b606060405180602001604052806000815250905090565b6060612bac82612369565b612beb576040517f08c379a0000000000000000000000000000000000000000000000000000000008152600401612be290614a7e565b60405180910390fd5b6000612bf5612b8a565b90506000815111612c155760405180602001604052806000815250612c40565b80612c1f8461319a565b604051602001612c30929190614544565b6040516020818303038152906040525b915050919050565b60007f000000000000000000000000000000000000000000000000000000000000000073ffffffffffffffffffffffffffffffffffffffff16634000aea07f000000000000000000000000000000000000000000000000000000000000000084866000604051602001612cbc9291906147ae565b6040516020818303038152906040526040518463ffffffff1660e01b8152600401612ce9939291906146f6565b602060405180830381600087803b158015612d0357600080fd5b505af1158015612d17573d6000803e3d6000fd5b505050506040513d601f19601f82011682018060405250810190612d3b9190613a50565b506000612d5e846000306007600089815260200190815260200160002054613347565b905060016007600086815260200190815260200160002054612d809190614ca6565b6007600086815260200190815260200160002081905550612da18482613383565b91505092915050565b612db58383836133b6565b612dc08383836133bb565b612dff576040517f08c379a0000000000000000000000000000000000000000000000000000000008152600401612df690614a3e565b60405180910390fd5b505050565b505050565b612e138383613491565b612e206000848484613003565b612e5f576040517f08c379a0000000000000000000000000000000000000000000000000000000008152600401612e569061483e565b60405180910390fd5b505050565b6060600082511415612e8757604051806020016040528060008152509050612ffe565b60006040518060600160405280604081526020016159406040913990506000600360028551612eb69190614ca6565b612ec09190614cfc565b6004612ecc9190614d2d565b90506000602082612edd9190614ca6565b67ffffffffffffffff811115612f1c577f4e487b7100000000000000000000000000000000000000000000000000000000600052604160045260246000fd5b6040519080825280601f01601f191660200182016040528015612f4e5781602001600182028036833780820191505090505b509050818152600183018586518101602084015b81831015612fbd576003830192508251603f8160121c168501518253600182019150603f81600c1c168501518253600182019150603f8160061c168501518253600182019150603f8116850151825360018201915050612f62565b600389510660018114612fd75760028114612fe757612ff2565b613d3d60f01b6002830352612ff2565b603d60f81b60018303525b50505050508093505050505b919050565b60006130248473ffffffffffffffffffffffffffffffffffffffff1661366b565b1561318d578373ffffffffffffffffffffffffffffffffffffffff1663150b7a0261304d6123d5565b8786866040518563ffffffff1660e01b815260040161306f9493929190614681565b602060405180830381600087803b15801561308957600080fd5b505af19250505080156130ba57506040513d601f19601f820116820180604052508101906130b79190613ade565b60015b61313d573d80600081146130ea576040519150601f19603f3d011682016040523d82523d6000602084013e6130ef565b606091505b50600081511415613135576040517f08c379a000000000000000000000000000000000000000000000000000000000815260040161312c9061483e565b60405180910390fd5b805181602001fd5b63150b7a0260e01b7bffffffffffffffffffffffffffffffffffffffffffffffffffffffff1916817bffffffffffffffffffffffffffffffffffffffffffffffffffffffff191614915050613192565b600190505b949350505050565b606060008214156131e2576040518060400160405280600181526020017f30000000000000000000000000000000000000000000000000000000000000008152509050613342565b600082905060005b600082146132145780806131fd90614ede565b915050600a8261320d9190614cfc565b91506131ea565b60008167ffffffffffffffff811115613256577f4e487b7100000000000000000000000000000000000000000000000000000000600052604160045260246000fd5b6040519080825280601f01601f1916602001820160405280156132885781602001600182028036833780820191505090505b5090505b6000851461333b576001826132a19190614d87565b9150600a856132b09190614f3b565b60306132bc9190614ca6565b60f81b8183815181106132f8577f4e487b7100000000000000000000000000000000000000000000000000000000600052603260045260246000fd5b60200101907effffffffffffffffffffffffffffffffffffffffffffffffffffffffffffff1916908160001a905350600a856133349190614cfc565b945061328c565b8093505050505b919050565b60008484848460405160200161336094939291906147d7565b6040516020818303038152906040528051906020012060001c9050949350505050565b60008282604051602001613398929190614518565b60405160208183030381529060405280519060200120905092915050565b505050565b600080600090508473ffffffffffffffffffffffffffffffffffffffff16600e600085815260200190815260200160002060000160009054906101000a900473ffffffffffffffffffffffffffffffffffffffff1673ffffffffffffffffffffffffffffffffffffffff1614156134865783600e600085815260200190815260200160002060000160006101000a81548173ffffffffffffffffffffffffffffffffffffffff021916908373ffffffffffffffffffffffffffffffffffffffff160217905550600190505b809150509392505050565b600073ffffffffffffffffffffffffffffffffffffffff168273ffffffffffffffffffffffffffffffffffffffff161415613501576040517f08c379a00000000000000000000000000000000000000000000000000000000081526004016134f8906149de565b60405180910390fd5b61350a81612369565b1561354a576040517f08c379a00000000000000000000000000000000000000000000000000000000081526004016135419061489e565b60405180910390fd5b61355660008383612daa565b6001600360008473ffffffffffffffffffffffffffffffffffffffff1673ffffffffffffffffffffffffffffffffffffffff16815260200190815260200160002060008282546135a69190614ca6565b92505081905550816002600083815260200190815260200160002060006101000a81548173ffffffffffffffffffffffffffffffffffffffff021916908373ffffffffffffffffffffffffffffffffffffffff160217905550808273ffffffffffffffffffffffffffffffffffffffff16600073ffffffffffffffffffffffffffffffffffffffff167fddf252ad1be2c89b69c2b068fc378daa952ba7f163c4a11628f55a4df523b3ef60405160405180910390a461366760008383612e04565b5050565b6000808273ffffffffffffffffffffffffffffffffffffffff163b119050919050565b82805461369a90614e7b565b90600052602060002090601f0160209004810192826136bc5760008555613703565b82601f106136d557805160ff1916838001178555613703565b82800160010185558215613703579182015b828111156137025782518255916020019190600101906136e7565b5b5090506137109190613714565b5090565b5b8082111561372d576000816000905550600101613715565b5090565b600061374461373f84614b7e565b614b59565b90508281526020810184848401111561375c57600080fd5b613767848285614e39565b509392505050565b600061378261377d84614baf565b614b59565b90508281526020810184848401111561379a57600080fd5b6137a5848285614e39565b509392505050565b6000813590506137bc816158cc565b92915050565b6000813590506137d1816158e3565b92915050565b6000815190506137e6816158e3565b92915050565b6000813590506137fb816158fa565b92915050565b60008135905061381081615911565b92915050565b60008151905061382581615911565b92915050565b600082601f83011261383c57600080fd5b813561384c848260208601613731565b91505092915050565b600082601f83011261386657600080fd5b813561387684826020860161376f565b91505092915050565b60008135905061388e81615928565b92915050565b6000815190506138a381615928565b92915050565b6000602082840312156138bb57600080fd5b60006138c9848285016137ad565b91505092915050565b600080604083850312156138e557600080fd5b60006138f3858286016137ad565b9250506020613904858286016137ad565b9150509250929050565b60008060006060848603121561392357600080fd5b6000613931868287016137ad565b9350506020613942868287016137ad565b92505060406139538682870161387f565b9150509250925092565b6000806000806080858703121561397357600080fd5b6000613981878288016137ad565b9450506020613992878288016137ad565b93505060406139a38782880161387f565b925050606085013567ffffffffffffffff8111156139c057600080fd5b6139cc8782880161382b565b91505092959194509250565b600080604083850312156139eb57600080fd5b60006139f9858286016137ad565b9250506020613a0a858286016137c2565b9150509250929050565b60008060408385031215613a2757600080fd5b6000613a35858286016137ad565b9250506020613a468582860161387f565b9150509250929050565b600060208284031215613a6257600080fd5b6000613a70848285016137d7565b91505092915050565b60008060408385031215613a8c57600080fd5b6000613a9a858286016137ec565b9250506020613aab8582860161387f565b9150509250929050565b600060208284031215613ac757600080fd5b6000613ad584828501613801565b91505092915050565b600060208284031215613af057600080fd5b6000613afe84828501613816565b91505092915050565b600080600080600080600060e0888a031215613b2257600080fd5b600088013567ffffffffffffffff811115613b3c57600080fd5b613b488a828b01613855565b975050602088013567ffffffffffffffff811115613b6557600080fd5b613b718a828b01613855565b965050604088013567ffffffffffffffff811115613b8e57600080fd5b613b9a8a828b01613855565b955050606088013567ffffffffffffffff811115613bb757600080fd5b613bc38a828b01613855565b9450506080613bd48a828b0161387f565b93505060a0613be58a828b0161387f565b92505060c088013567ffffffffffffffff811115613c0257600080fd5b613c0e8a828b01613855565b91505092959891949750929550565b600060208284031215613c2f57600080fd5b6000613c3d8482850161387f565b91505092915050565b600060208284031215613c5857600080fd5b6000613c6684828501613894565b91505092915050565b6000613c7b8383614388565b905092915050565b6000613c8f8383614493565b905092915050565b613ca081614dbb565b82525050565b613caf81614dbb565b82525050565b6000613cc082614c00565b613cca8185614c46565b935083602082028501613cdc85614be0565b8060005b85811015613d185784840389528151613cf98582613c6f565b9450613d0483614c2c565b925060208a01995050600181019050613ce0565b50829750879550505050505092915050565b6000613d3582614c0b565b613d3f8185614c57565b935083602082028501613d5185614bf0565b8060005b85811015613d8d5784840389528151613d6e8582613c83565b9450613d7983614c39565b925060208a01995050600181019050613d55565b50829750879550505050505092915050565b613da881614dcd565b82525050565b613db781614dcd565b82525050565b613dc681614dd9565b82525050565b613ddd613dd882614dd9565b614f27565b82525050565b6000613dee82614c16565b613df88185614c68565b9350613e08818560208601614e48565b613e1181615028565b840191505092915050565b6000613e2782614c21565b613e318185614c79565b9350613e41818560208601614e48565b613e4a81615028565b840191505092915050565b6000613e6082614c21565b613e6a8185614c8a565b9350613e7a818560208601614e48565b613e8381615028565b840191505092915050565b6000613e9982614c21565b613ea38185614c9b565b9350613eb3818560208601614e48565b80840191505092915050565b6000613ecc600583614c9b565b9150613ed782615039565b600582019050919050565b6000613eef600983614c9b565b9150613efa82615062565b600982019050919050565b6000613f12603283614c8a565b9150613f1d8261508b565b604082019050919050565b6000613f35602683614c8a565b9150613f40826150da565b604082019050919050565b6000613f58602083614c9b565b9150613f6382615129565b602082019050919050565b6000613f7b603a83614c9b565b9150613f8682615152565b603a82019050919050565b6000613f9e602583614c8a565b9150613fa9826151a1565b604082019050919050565b6000613fc1601c83614c8a565b9150613fcc826151f0565b602082019050919050565b6000613fe4600b83614c9b565b9150613fef82615219565b600b82019050919050565b6000614007602483614c8a565b915061401282615242565b604082019050919050565b600061402a601983614c8a565b915061403582615291565b602082019050919050565b600061404d602b83614c8a565b9150614058826152ba565b604082019050919050565b6000614070601583614c8a565b915061407b82615309565b602082019050919050565b6000614093602b83614c9b565b915061409e82615332565b602b82019050919050565b60006140b6602c83614c8a565b91506140c182615381565b604082019050919050565b60006140d9602083614c9b565b91506140e4826153d0565b602082019050919050565b60006140fc603883614c8a565b9150614107826153f9565b604082019050919050565b600061411f602a83614c8a565b915061412a82615448565b604082019050919050565b6000614142602983614c8a565b915061414d82615497565b604082019050919050565b6000614165602e83614c8a565b9150614170826154e6565b604082019050919050565b6000614188606883614c9b565b915061419382615535565b606882019050919050565b60006141ab600283614c9b565b91506141b6826155d0565b600282019050919050565b60006141ce602083614c8a565b91506141d9826155f9565b602082019050919050565b60006141f1603183614c8a565b91506141fc82615622565b604082019050919050565b6000614214602c83614c8a565b915061421f82615671565b604082019050919050565b6000614237601f83614c8a565b9150614242826156c0565b602082019050919050565b600061425a602083614c8a565b9150614265826156e9565b602082019050919050565b600061427d602f83614c8a565b915061428882615712565b604082019050919050565b60006142a0601f83614c8a565b91506142ab82615761565b602082019050919050565b60006142c3602183614c8a565b91506142ce8261578a565b604082019050919050565b60006142e6601d83614c9b565b91506142f1826157d9565b601d82019050919050565b6000614309600483614c9b565b915061431482615802565b600482019050919050565b600061432c603183614c8a565b91506143378261582b565b604082019050919050565b600061434f601083614c8a565b915061435a8261587a565b602082019050919050565b6000614372600d83614c8a565b915061437d826158a3565b602082019050919050565b6000610160830160008301516143a16000860182613d9f565b50602083015184820360208601526143b98282613e1c565b915050604083015184820360408601526143d38282613e1c565b915050606083015184820360608601526143ed8282613e1c565b915050608083015184820360808601526144078282613e1c565b91505060a083015184820360a08601526144218282613e1c565b91505060c083015161443660c08601826144e3565b5060e083015161444960e08601826144e3565b5061010083015161445e6101008601826144e3565b506101208301516144736101208601826144e3565b50610140830151614488610140860182613c97565b508091505092915050565b60006060830160008301516144ab6000860182613c97565b5060208301516144be60208601826144e3565b50604083015184820360408601526144d68282613e1c565b9150508091505092915050565b6144ec81614e2f565b82525050565b6144fb81614e2f565b82525050565b61451261450d82614e2f565b614f31565b82525050565b60006145248285613dcc565b6020820191506145348284614501565b6020820191508190509392505050565b60006145508285613e8e565b915061455c8284613e8e565b91508190509392505050565b600061457382613ee2565b915061457f8289613e8e565b915061458a8261417b565b915061459582613f6e565b91506145a18288613e8e565b91506145ac826142fc565b91506145b7826140cc565b91506145c38287613e8e565b91506145ce826142fc565b91506145d982613f4b565b91506145e58286613e8e565b91506145f0826142fc565b91506145fb82614086565b91506146078285613e8e565b915061461282613ebf565b915061461d82613fd7565b91506146298284613e8e565b91506146348261419e565b9150819050979650505050505050565b600061464f826142d9565b915061465b8284613e8e565b915081905092915050565b600060208201905061467b6000830184613ca6565b92915050565b60006080820190506146966000830187613ca6565b6146a36020830186613ca6565b6146b060408301856144f2565b81810360608301526146c28184613de3565b905095945050505050565b60006040820190506146e26000830185613ca6565b6146ef60208301846144f2565b9392505050565b600060608201905061470b6000830186613ca6565b61471860208301856144f2565b818103604083015261472a8184613de3565b9050949350505050565b6000602082019050818103600083015261474e8184613cb5565b905092915050565b600060208201905081810360008301526147708184613d2a565b905092915050565b600060208201905061478d6000830184613dae565b92915050565b60006020820190506147a86000830184613dbd565b92915050565b60006040820190506147c36000830185613dbd565b6147d060208301846144f2565b9392505050565b60006080820190506147ec6000830187613dbd565b6147f960208301866144f2565b6148066040830185613ca6565b61481360608301846144f2565b95945050505050565b600060208201905081810360008301526148368184613e55565b905092915050565b6000602082019050818103600083015261485781613f05565b9050919050565b6000602082019050818103600083015261487781613f28565b9050919050565b6000602082019050818103600083015261489781613f91565b9050919050565b600060208201905081810360008301526148b781613fb4565b9050919050565b600060208201905081810360008301526148d781613ffa565b9050919050565b600060208201905081810360008301526148f78161401d565b9050919050565b6000602082019050818103600083015261491781614040565b9050919050565b6000602082019050818103600083015261493781614063565b9050919050565b60006020820190508181036000830152614957816140a9565b9050919050565b60006020820190508181036000830152614977816140ef565b9050919050565b6000602082019050818103600083015261499781614112565b9050919050565b600060208201905081810360008301526149b781614135565b9050919050565b600060208201905081810360008301526149d781614158565b9050919050565b600060208201905081810360008301526149f7816141c1565b9050919050565b60006020820190508181036000830152614a17816141e4565b9050919050565b60006020820190508181036000830152614a3781614207565b9050919050565b60006020820190508181036000830152614a578161422a565b9050919050565b60006020820190508181036000830152614a778161424d565b9050919050565b60006020820190508181036000830152614a9781614270565b9050919050565b60006020820190508181036000830152614ab781614293565b9050919050565b60006020820190508181036000830152614ad7816142b6565b9050919050565b60006020820190508181036000830152614af78161431f565b9050919050565b60006020820190508181036000830152614b1781614342565b9050919050565b60006020820190508181036000830152614b3781614365565b9050919050565b6000602082019050614b5360008301846144f2565b92915050565b6000614b63614b74565b9050614b6f8282614ead565b919050565b6000604051905090565b600067ffffffffffffffff821115614b9957614b98614ff9565b5b614ba282615028565b9050602081019050919050565b600067ffffffffffffffff821115614bca57614bc9614ff9565b5b614bd382615028565b9050602081019050919050565b6000819050602082019050919050565b6000819050602082019050919050565b600081519050919050565b600081519050919050565b600081519050919050565b600081519050919050565b6000602082019050919050565b6000602082019050919050565b600082825260208201905092915050565b600082825260208201905092915050565b600082825260208201905092915050565b600082825260208201905092915050565b600082825260208201905092915050565b600081905092915050565b6000614cb182614e2f565b9150614cbc83614e2f565b9250827fffffffffffffffffffffffffffffffffffffffffffffffffffffffffffffffff03821115614cf157614cf0614f6c565b5b828201905092915050565b6000614d0782614e2f565b9150614d1283614e2f565b925082614d2257614d21614f9b565b5b828204905092915050565b6000614d3882614e2f565b9150614d4383614e2f565b9250817fffffffffffffffffffffffffffffffffffffffffffffffffffffffffffffffff0483118215151615614d7c57614d7b614f6c565b5b828202905092915050565b6000614d9282614e2f565b9150614d9d83614e2f565b925082821015614db057614daf614f6c565b5b828203905092915050565b6000614dc682614e0f565b9050919050565b60008115159050919050565b6000819050919050565b60007fffffffff0000000000000000000000000000000000000000000000000000000082169050919050565b600073ffffffffffffffffffffffffffffffffffffffff82169050919050565b6000819050919050565b82818337600083830152505050565b60005b83811015614e66578082015181840152602081019050614e4b565b83811115614e75576000848401525b50505050565b60006002820490506001821680614e9357607f821691505b60208210811415614ea757614ea6614fca565b5b50919050565b614eb682615028565b810181811067ffffffffffffffff82111715614ed557614ed4614ff9565b5b80604052505050565b6000614ee982614e2f565b91507fffffffffffffffffffffffffffffffffffffffffffffffffffffffffffffffff821415614f1c57614f1b614f6c565b5b600182019050919050565b6000819050919050565b6000819050919050565b6000614f4682614e2f565b9150614f5183614e2f565b925082614f6157614f60614f9b565b5b828206905092915050565b7f4e487b7100000000000000000000000000000000000000000000000000000000600052601160045260246000fd5b7f4e487b7100000000000000000000000000000000000000000000000000000000600052601260045260246000fd5b7f4e487b7100000000000000000000000000000000000000000000000000000000600052602260045260246000fd5b7f4e487b7100000000000000000000000000000000000000000000000000000000600052604160045260246000fd5b6000601f19601f8301169050919050565b7f227d20205d000000000000000000000000000000000000000000000000000000600082015250565b7f7b226e616d65223a220000000000000000000000000000000000000000000000600082015250565b7f4552433732313a207472616e7366657220746f206e6f6e20455243373231526560008201527f63656976657220696d706c656d656e7465720000000000000000000000000000602082015250565b7f4f776e61626c653a206e6577206f776e657220697320746865207a65726f206160008201527f6464726573730000000000000000000000000000000000000000000000000000602082015250565b7f7b2274726169745f74797065223a202254696d65222c2276616c7565223a2022600082015250565b7f222c202261747472696275746573223a205b207b2274726169745f747970652260008201527f3a2056656e646f72204e616d6522222c2276616c7565223a2022000000000000602082015250565b7f4552433732313a207472616e736665722066726f6d20696e636f72726563742060008201527f6f776e6572000000000000000000000000000000000000000000000000000000602082015250565b7f4552433732313a20746f6b656e20616c7265616479206d696e74656400000000600082015250565b7f2c2022696d616765223a22000000000000000000000000000000000000000000600082015250565b7f4552433732313a207472616e7366657220746f20746865207a65726f2061646460008201527f7265737300000000000000000000000000000000000000000000000000000000602082015250565b7f4552433732313a20617070726f766520746f2063616c6c657200000000000000600082015250565b7f4e6f7420656e6f756768204c494e4b202d2066696c6c20636f6e74726163742060008201527f7769746820666175636574000000000000000000000000000000000000000000602082015250565b7f5469636b6574207072696365206e6f74206d6574210000000000000000000000600082015250565b7f7b2274726169745f74797065223a202257696e6e696e67205469636b65743f2260008201527f2c2276616c7565223a2022000000000000000000000000000000000000000000602082015250565b7f4552433732313a206f70657261746f7220717565727920666f72206e6f6e657860008201527f697374656e7420746f6b656e0000000000000000000000000000000000000000602082015250565b7f7b2274726169745f74797065223a202244617465222c2276616c7565223a2022600082015250565b7f4552433732313a20617070726f76652063616c6c6572206973206e6f74206f7760008201527f6e6572206e6f7220617070726f76656420666f7220616c6c0000000000000000602082015250565b7f4552433732313a2062616c616e636520717565727920666f7220746865207a6560008201527f726f206164647265737300000000000000000000000000000000000000000000602082015250565b7f4552433732313a206f776e657220717565727920666f72206e6f6e657869737460008201527f656e7420746f6b656e0000000000000000000000000000000000000000000000602082015250565b7f45524337323155524953746f726167653a2055524920736574206f66206e6f6e60008201527f6578697374656e7420746f6b656e000000000000000000000000000000000000602082015250565b7f204e465469636b6574222c20226465736372697074696f6e223a20412074696360008201527f6b65742073656375726564206f6e2074686520706f6c79676f6e20626c6f636b60208201527f636861696e2c2067656e65726174656420627920746865204e465469636b657460408201527f73207465616d2e22000000000000000000000000000000000000000000000000606082015250565b7f227d000000000000000000000000000000000000000000000000000000000000600082015250565b7f4552433732313a206d696e7420746f20746865207a65726f2061646472657373600082015250565b7f45524337323155524953746f726167653a2055524920717565727920666f722060008201527f6e6f6e6578697374656e7420746f6b656e000000000000000000000000000000602082015250565b7f4552433732313a20617070726f76656420717565727920666f72206e6f6e657860008201527f697374656e7420746f6b656e0000000000000000000000000000000000000000602082015250565b7f4f776e657273686970204572726f722c2043616e2774207472616e7366657200600082015250565b7f4f776e61626c653a2063616c6c6572206973206e6f7420746865206f776e6572600082015250565b7f4552433732314d657461646174613a2055524920717565727920666f72206e6f60008201527f6e6578697374656e7420746f6b656e0000000000000000000000000000000000602082015250565b7f4f6e6c7920565246436f6f7264696e61746f722063616e2066756c66696c6c00600082015250565b7f4552433732313a20617070726f76616c20746f2063757272656e74206f776e6560008201527f7200000000000000000000000000000000000000000000000000000000000000602082015250565b7f646174613a6170706c69636174696f6e2f6a736f6e3b6261736536342c000000600082015250565b7f227d2c2000000000000000000000000000000000000000000000000000000000600082015250565b7f4552433732313a207472616e736665722063616c6c6572206973206e6f74206f60008201527f776e6572206e6f7220617070726f766564000000000000000000000000000000602082015250565b7f5469636b65747320536f6c64204f757400000000000000000000000000000000600082015250565b7f496e76616c6964204576656e7400000000000000000000000000000000000000600082015250565b6158d581614dbb565b81146158e057600080fd5b50565b6158ec81614dcd565b81146158f757600080fd5b50565b61590381614dd9565b811461590e57600080fd5b50565b61591a81614de3565b811461592557600080fd5b50565b61593181614e2f565b811461593c57600080fd5b5056fe4142434445464748494a4b4c4d4e4f505152535455565758595a6162636465666768696a6b6c6d6e6f707172737475767778797a303132333435363738392b2fa2646970667358221220d4417d5787442bf65e72fa2171b683439a9173b4fe9f8d094fa4653fa50b434864736f6c63430008010033",
  "linkReferences": {},
  "deployedLinkReferences": {}
}