{
  "_format": "hh-sol-artifact-1",
  "contractName": "NFTickets",
  "sourceName": "contracts/NFTickets.sol",
  "abi": [
    {
      "inputs": [],
      "stateMutability": "nonpayable",
      "type": "constructor"
    },
    {
      "anonymous": false,
      "inputs": [
        {
          "indexed": true,
          "internalType": "address",
          "name": "owner",
          "type": "address"
        },
        {
          "indexed": true,
          "internalType": "address",
          "name": "approved",
          "type": "address"
        },
        {
          "indexed": true,
          "internalType": "uint256",
          "name": "tokenId",
          "type": "uint256"
        }
      ],
      "name": "Approval",
      "type": "event"
    },
    {
      "anonymous": false,
      "inputs": [
        {
          "indexed": true,
          "internalType": "address",
          "name": "owner",
          "type": "address"
        },
        {
          "indexed": true,
          "internalType": "address",
          "name": "operator",
          "type": "address"
        },
        {
          "indexed": false,
          "internalType": "bool",
          "name": "approved",
          "type": "bool"
        }
      ],
      "name": "ApprovalForAll",
      "type": "event"
    },
    {
      "anonymous": false,
      "inputs": [
        {
          "indexed": true,
          "internalType": "address",
          "name": "previousOwner",
          "type": "address"
        },
        {
          "indexed": true,
          "internalType": "address",
          "name": "newOwner",
          "type": "address"
        }
      ],
      "name": "OwnershipTransferred",
      "type": "event"
    },
    {
      "anonymous": false,
      "inputs": [
        {
          "indexed": true,
          "internalType": "address",
          "name": "from",
          "type": "address"
        },
        {
          "indexed": true,
          "internalType": "address",
          "name": "to",
          "type": "address"
        },
        {
          "indexed": true,
          "internalType": "uint256",
          "name": "tokenId",
          "type": "uint256"
        }
      ],
      "name": "Transfer",
      "type": "event"
    },
    {
      "anonymous": false,
      "inputs": [
        {
          "indexed": false,
          "internalType": "address",
          "name": "owner",
          "type": "address"
        },
        {
          "indexed": false,
          "internalType": "uint256",
          "name": "eventID",
          "type": "uint256"
        }
      ],
      "name": "eventInitialized",
      "type": "event"
    },
    {
      "anonymous": false,
      "inputs": [
        {
          "indexed": false,
          "internalType": "address",
          "name": "sender",
          "type": "address"
        },
        {
          "indexed": false,
          "internalType": "uint256",
          "name": "tokenId",
          "type": "uint256"
        }
      ],
      "name": "minted",
      "type": "event"
    },
    {
      "anonymous": false,
      "inputs": [
        {
          "indexed": false,
          "internalType": "uint256",
          "name": "eventID",
          "type": "uint256"
        }
      ],
      "name": "winnersNotPicked",
      "type": "event"
    },
    {
      "anonymous": false,
      "inputs": [
        {
          "indexed": false,
          "internalType": "uint256",
          "name": "eventID",
          "type": "uint256"
        },
        {
          "indexed": false,
          "internalType": "uint256[]",
          "name": "winningTokenIDs",
          "type": "uint256[]"
        }
      ],
      "name": "winnersPicked",
      "type": "event"
    },
    {
      "inputs": [
        {
          "internalType": "address",
          "name": "to",
          "type": "address"
        },
        {
          "internalType": "uint256",
          "name": "tokenId",
          "type": "uint256"
        }
      ],
      "name": "approve",
      "outputs": [],
      "stateMutability": "nonpayable",
      "type": "function"
    },
    {
      "inputs": [
        {
          "internalType": "address",
          "name": "owner",
          "type": "address"
        }
      ],
      "name": "balanceOf",
      "outputs": [
        {
          "internalType": "uint256",
          "name": "",
          "type": "uint256"
        }
      ],
      "stateMutability": "view",
      "type": "function"
    },
    {
      "inputs": [
        {
          "internalType": "uint256",
          "name": "",
          "type": "uint256"
        }
      ],
      "name": "events",
      "outputs": [
        {
          "internalType": "string",
          "name": "eventName",
          "type": "string"
        },
        {
          "internalType": "string",
          "name": "eventVendor",
          "type": "string"
        },
        {
          "internalType": "string",
          "name": "date",
          "type": "string"
        },
        {
          "internalType": "string",
          "name": "time",
          "type": "string"
        },
        {
          "internalType": "string",
          "name": "cid",
          "type": "string"
        },
        {
          "internalType": "uint256",
          "name": "ticketsMinted",
          "type": "uint256"
        },
        {
          "internalType": "uint256",
          "name": "maxCapacity",
          "type": "uint256"
        },
        {
          "internalType": "uint256",
          "name": "startingTokenID",
          "type": "uint256"
        },
        {
          "internalType": "address",
          "name": "eventOwner",
          "type": "address"
        }
      ],
      "stateMutability": "view",
      "type": "function"
    },
    {
      "inputs": [
        {
          "internalType": "string",
          "name": "eventName",
          "type": "string"
        },
        {
          "internalType": "string",
          "name": "vendorName",
          "type": "string"
        },
        {
          "internalType": "string",
          "name": "date",
          "type": "string"
        },
        {
          "internalType": "string",
          "name": "time",
          "type": "string"
        },
        {
          "internalType": "string",
          "name": "cid",
          "type": "string"
        },
        {
          "internalType": "string",
          "name": "winner",
          "type": "string"
        }
      ],
      "name": "generateTokenURI",
      "outputs": [
        {
          "internalType": "string",
          "name": "",
          "type": "string"
        }
      ],
      "stateMutability": "pure",
      "type": "function"
    },
    {
      "inputs": [
        {
          "internalType": "uint256",
          "name": "tokenId",
          "type": "uint256"
        }
      ],
      "name": "getApproved",
      "outputs": [
        {
          "internalType": "address",
          "name": "",
          "type": "address"
        }
      ],
      "stateMutability": "view",
      "type": "function"
    },
    {
      "inputs": [
        {
          "internalType": "address",
          "name": "owner",
          "type": "address"
        }
      ],
      "name": "getMyEvents",
      "outputs": [
        {
          "components": [
            {
              "internalType": "string",
              "name": "eventName",
              "type": "string"
            },
            {
              "internalType": "string",
              "name": "eventVendor",
              "type": "string"
            },
            {
              "internalType": "string",
              "name": "date",
              "type": "string"
            },
            {
              "internalType": "string",
              "name": "time",
              "type": "string"
            },
            {
              "internalType": "string",
              "name": "cid",
              "type": "string"
            },
            {
              "internalType": "uint256",
              "name": "ticketsMinted",
              "type": "uint256"
            },
            {
              "internalType": "uint256",
              "name": "maxCapacity",
              "type": "uint256"
            },
            {
              "internalType": "uint256",
              "name": "startingTokenID",
              "type": "uint256"
            },
            {
              "internalType": "address",
              "name": "eventOwner",
              "type": "address"
            }
          ],
          "internalType": "struct NFTickets.eventStruct[]",
          "name": "",
          "type": "tuple[]"
        }
      ],
      "stateMutability": "view",
      "type": "function"
    },
    {
      "inputs": [],
      "name": "getRandomNumber",
      "outputs": [
        {
          "internalType": "bytes32",
          "name": "requestId",
          "type": "bytes32"
        }
      ],
      "stateMutability": "nonpayable",
      "type": "function"
    },
    {
      "inputs": [
        {
          "internalType": "string",
          "name": "eventName",
          "type": "string"
        },
        {
          "internalType": "string",
          "name": "eventVendor",
          "type": "string"
        },
        {
          "internalType": "string",
          "name": "date",
          "type": "string"
        },
        {
          "internalType": "string",
          "name": "time",
          "type": "string"
        },
        {
          "internalType": "string",
          "name": "cid",
          "type": "string"
        },
        {
          "internalType": "uint256",
          "name": "maxCapacity",
          "type": "uint256"
        }
      ],
      "name": "initEvent",
      "outputs": [
        {
          "internalType": "uint256",
          "name": "",
          "type": "uint256"
        }
      ],
      "stateMutability": "nonpayable",
      "type": "function"
    },
    {
      "inputs": [
        {
          "internalType": "address",
          "name": "owner",
          "type": "address"
        },
        {
          "internalType": "address",
          "name": "operator",
          "type": "address"
        }
      ],
      "name": "isApprovedForAll",
      "outputs": [
        {
          "internalType": "bool",
          "name": "",
          "type": "bool"
        }
      ],
      "stateMutability": "view",
      "type": "function"
    },
    {
      "inputs": [
        {
          "internalType": "uint256",
          "name": "eventID",
          "type": "uint256"
        }
      ],
      "name": "mintTicket",
      "outputs": [
        {
          "internalType": "uint256",
          "name": "",
          "type": "uint256"
        }
      ],
      "stateMutability": "payable",
      "type": "function"
    },
    {
      "inputs": [],
      "name": "name",
      "outputs": [
        {
          "internalType": "string",
          "name": "",
          "type": "string"
        }
      ],
      "stateMutability": "view",
      "type": "function"
    },
    {
      "inputs": [],
      "name": "owner",
      "outputs": [
        {
          "internalType": "address",
          "name": "",
          "type": "address"
        }
      ],
      "stateMutability": "view",
      "type": "function"
    },
    {
      "inputs": [
        {
          "internalType": "uint256",
          "name": "tokenId",
          "type": "uint256"
        }
      ],
      "name": "ownerOf",
      "outputs": [
        {
          "internalType": "address",
          "name": "",
          "type": "address"
        }
      ],
      "stateMutability": "view",
      "type": "function"
    },
    {
      "inputs": [
        {
          "internalType": "uint256",
          "name": "eventID",
          "type": "uint256"
        },
        {
          "internalType": "uint256",
          "name": "numberOfWinners",
          "type": "uint256"
        }
      ],
      "name": "pickWinners",
      "outputs": [],
      "stateMutability": "nonpayable",
      "type": "function"
    },
    {
      "inputs": [
        {
          "internalType": "bytes32",
          "name": "requestId",
          "type": "bytes32"
        },
        {
          "internalType": "uint256",
          "name": "randomness",
          "type": "uint256"
        }
      ],
      "name": "rawFulfillRandomness",
      "outputs": [],
      "stateMutability": "nonpayable",
      "type": "function"
    },
    {
      "inputs": [],
      "name": "renounceOwnership",
      "outputs": [],
      "stateMutability": "nonpayable",
      "type": "function"
    },
    {
      "inputs": [
        {
          "internalType": "address",
          "name": "from",
          "type": "address"
        },
        {
          "internalType": "address",
          "name": "to",
          "type": "address"
        },
        {
          "internalType": "uint256",
          "name": "tokenId",
          "type": "uint256"
        }
      ],
      "name": "safeTransferFrom",
      "outputs": [],
      "stateMutability": "nonpayable",
      "type": "function"
    },
    {
      "inputs": [
        {
          "internalType": "address",
          "name": "from",
          "type": "address"
        },
        {
          "internalType": "address",
          "name": "to",
          "type": "address"
        },
        {
          "internalType": "uint256",
          "name": "tokenId",
          "type": "uint256"
        },
        {
          "internalType": "bytes",
          "name": "_data",
          "type": "bytes"
        }
      ],
      "name": "safeTransferFrom",
      "outputs": [],
      "stateMutability": "nonpayable",
      "type": "function"
    },
    {
      "inputs": [
        {
          "internalType": "address",
          "name": "operator",
          "type": "address"
        },
        {
          "internalType": "bool",
          "name": "approved",
          "type": "bool"
        }
      ],
      "name": "setApprovalForAll",
      "outputs": [],
      "stateMutability": "nonpayable",
      "type": "function"
    },
    {
      "inputs": [
        {
          "internalType": "bytes4",
          "name": "interfaceId",
          "type": "bytes4"
        }
      ],
      "name": "supportsInterface",
      "outputs": [
        {
          "internalType": "bool",
          "name": "",
          "type": "bool"
        }
      ],
      "stateMutability": "view",
      "type": "function"
    },
    {
      "inputs": [],
      "name": "symbol",
      "outputs": [
        {
          "internalType": "string",
          "name": "",
          "type": "string"
        }
      ],
      "stateMutability": "view",
      "type": "function"
    },
    {
      "inputs": [
        {
          "internalType": "uint256",
          "name": "tokenId",
          "type": "uint256"
        }
      ],
      "name": "tokenURI",
      "outputs": [
        {
          "internalType": "string",
          "name": "",
          "type": "string"
        }
      ],
      "stateMutability": "view",
      "type": "function"
    },
    {
      "inputs": [
        {
          "internalType": "uint256",
          "name": "",
          "type": "uint256"
        }
      ],
      "name": "tokens",
      "outputs": [
        {
          "internalType": "address",
          "name": "owner",
          "type": "address"
        },
        {
          "internalType": "uint256",
          "name": "tokenID",
          "type": "uint256"
        },
        {
          "internalType": "uint256",
          "name": "eventID",
          "type": "uint256"
        },
        {
          "internalType": "string",
          "name": "winner",
          "type": "string"
        }
      ],
      "stateMutability": "view",
      "type": "function"
    },
    {
      "inputs": [
        {
          "internalType": "address",
          "name": "from",
          "type": "address"
        },
        {
          "internalType": "address",
          "name": "to",
          "type": "address"
        },
        {
          "internalType": "uint256",
          "name": "tokenId",
          "type": "uint256"
        }
      ],
      "name": "transferFrom",
      "outputs": [],
      "stateMutability": "nonpayable",
      "type": "function"
    },
    {
      "inputs": [
        {
          "internalType": "address",
          "name": "newOwner",
          "type": "address"
        }
      ],
      "name": "transferOwnership",
      "outputs": [],
      "stateMutability": "nonpayable",
      "type": "function"
    },
    {
      "inputs": [
        {
          "internalType": "address",
          "name": "owner",
          "type": "address"
        },
        {
          "internalType": "uint256",
          "name": "tokenID",
          "type": "uint256"
        }
      ],
      "name": "verifyTicket",
      "outputs": [
        {
          "internalType": "bool",
          "name": "",
          "type": "bool"
        }
      ],
      "stateMutability": "view",
      "type": "function"
    }
  ],
  "bytecode": "0x60c06040523480156200001157600080fd5b50738c7382f9d8f56b33781fe506e897a4f1e2d1725573326c977e6efc84e512bb9c30f76e30c160ed06fb6040518060400160405280600881526020017f4e465469636b65740000000000000000000000000000000000000000000000008152506040518060400160405280600381526020017f4e465400000000000000000000000000000000000000000000000000000000008152508160009080519060200190620000c092919062000277565b508060019080519060200190620000d992919062000277565b5050508173ffffffffffffffffffffffffffffffffffffffff1660a08173ffffffffffffffffffffffffffffffffffffffff1660601b815250508073ffffffffffffffffffffffffffffffffffffffff1660808173ffffffffffffffffffffffffffffffffffffffff1660601b8152505050506200016c62000160620001a960201b60201c565b620001b160201b60201c565b7f6e75b569a01ef56d18cab6a8e71e6600d6ce853834d4a5748b720d06f878b3a460001b600c81905550655af3107a4000600d819055506200038c565b600033905090565b6000600860009054906101000a900473ffffffffffffffffffffffffffffffffffffffff16905081600860006101000a81548173ffffffffffffffffffffffffffffffffffffffff021916908373ffffffffffffffffffffffffffffffffffffffff1602179055508173ffffffffffffffffffffffffffffffffffffffff168173ffffffffffffffffffffffffffffffffffffffff167f8be0079c531659141344cd1fd0a4f28419497f9722a3daafe3b4186f6b6457e060405160405180910390a35050565b828054620002859062000327565b90600052602060002090601f016020900481019282620002a95760008555620002f5565b82601f10620002c457805160ff1916838001178555620002f5565b82800160010185558215620002f5579182015b82811115620002f4578251825591602001919060010190620002d7565b5b50905062000304919062000308565b5090565b5b808211156200032357600081600090555060010162000309565b5090565b600060028204905060018216806200034057607f821691505b602082108114156200035757620003566200035d565b5b50919050565b7f4e487b7100000000000000000000000000000000000000000000000000000000600052602260045260246000fd5b60805160601c60a05160601c615e11620003c660003960008181611b810152612f9f01526000818161218a0152612f630152615e116000f3fe6080604052600436106101815760003560e01c8063715018a6116100d1578063b88d4fde1161008a578063e146fc5411610064578063e146fc54146105c8578063e952f72514610605578063e985e9c514610642578063f2fde38b1461067f57610181565b8063b88d4fde14610537578063c87b56dd14610560578063dbdff2c11461059d57610181565b8063715018a61461044f5780638da5cb5b1461046657806394985ddd1461049157806395d89b41146104ba57806398071fa5146104e5578063a22cb4651461050e57610181565b806323b872dd1161013e5780634346e5b0116101185780634346e5b0146103585780634f64b2be146103955780636352211e146103d557806370a082311461041257610181565b806323b872dd146102d6578063256d52f6146102ff57806342842e0e1461032f57610181565b806301ffc9a71461018657806306fdde03146101c3578063081812fc146101ee578063095ea7b31461022b5780630b791430146102545780631619c6d314610299575b600080fd5b34801561019257600080fd5b506101ad60048036038101906101a89190613cc0565b6106a8565b6040516101ba9190614a7f565b60405180910390f35b3480156101cf57600080fd5b506101d861078a565b6040516101e59190614b23565b60405180910390f35b3480156101fa57600080fd5b5061021560048036038101906102109190613f2c565b61081c565b6040516102229190614943565b60405180910390f35b34801561023757600080fd5b50610252600480360381019061024d9190613c1f565b6108a1565b005b34801561026057600080fd5b5061027b60048036038101906102769190613f2c565b6109b9565b60405161029099989796959493929190614b45565b60405180910390f35b3480156102a557600080fd5b506102c060048036038101906102bb9190613c1f565b610ccf565b6040516102cd9190614a7f565b60405180910390f35b3480156102e257600080fd5b506102fd60048036038101906102f89190613b19565b610d84565b005b61031960048036038101906103149190613f2c565b610de4565b6040516103269190614ef5565b60405180910390f35b34801561033b57600080fd5b5061035660048036038101906103519190613b19565b61137d565b005b34801561036457600080fd5b5061037f600480360381019061037a9190613ab4565b61139d565b60405161038c9190614a5d565b60405180910390f35b3480156103a157600080fd5b506103bc60048036038101906103b79190613f2c565b61187b565b6040516103cc9493929190614a11565b60405180910390f35b3480156103e157600080fd5b506103fc60048036038101906103f79190613f2c565b611963565b6040516104099190614943565b60405180910390f35b34801561041e57600080fd5b5061043960048036038101906104349190613ab4565b611a15565b6040516104469190614ef5565b60405180910390f35b34801561045b57600080fd5b50610464611acd565b005b34801561047257600080fd5b5061047b611b55565b6040516104889190614943565b60405180910390f35b34801561049d57600080fd5b506104b860048036038101906104b39190613c84565b611b7f565b005b3480156104c657600080fd5b506104cf611c1b565b6040516104dc9190614b23565b60405180910390f35b3480156104f157600080fd5b5061050c60048036038101906105079190613f7e565b611cad565b005b34801561051a57600080fd5b5061053560048036038101906105309190613be3565b611fb9565b005b34801561054357600080fd5b5061055e60048036038101906105599190613b68565b611fcf565b005b34801561056c57600080fd5b5061058760048036038101906105829190613f2c565b612031565b6040516105949190614b23565b60405180910390f35b3480156105a957600080fd5b506105b2612183565b6040516105bf9190614a9a565b60405180910390f35b3480156105d457600080fd5b506105ef60048036038101906105ea9190613e2b565b612284565b6040516105fc9190614ef5565b60405180910390f35b34801561061157600080fd5b5061062c60048036038101906106279190613d12565b6124ae565b6040516106399190614b23565b60405180910390f35b34801561064e57600080fd5b5061066960048036038101906106649190613add565b61250d565b6040516106769190614a7f565b60405180910390f35b34801561068b57600080fd5b506106a660048036038101906106a19190613ab4565b6125a1565b005b60007f80ac58cd000000000000000000000000000000000000000000000000000000007bffffffffffffffffffffffffffffffffffffffffffffffffffffffff1916827bffffffffffffffffffffffffffffffffffffffffffffffffffffffff1916148061077357507f5b5e139f000000000000000000000000000000000000000000000000000000007bffffffffffffffffffffffffffffffffffffffffffffffffffffffff1916827bffffffffffffffffffffffffffffffffffffffffffffffffffffffff1916145b80610783575061078282612699565b5b9050919050565b60606000805461079990615262565b80601f01602080910402602001604051908101604052809291908181526020018280546107c590615262565b80156108125780601f106107e757610100808354040283529160200191610812565b820191906000526020600020905b8154815290600101906020018083116107f557829003601f168201915b5050505050905090565b600061082782612703565b610866576040517f08c379a000000000000000000000000000000000000000000000000000000000815260040161085d90614df5565b60405180910390fd5b6004600083815260200190815260200160002060009054906101000a900473ffffffffffffffffffffffffffffffffffffffff169050919050565b60006108ac82611963565b90508073ffffffffffffffffffffffffffffffffffffffff168373ffffffffffffffffffffffffffffffffffffffff16141561091d576040517f08c379a000000000000000000000000000000000000000000000000000000000815260040161091490614e75565b60405180910390fd5b8073ffffffffffffffffffffffffffffffffffffffff1661093c61276f565b73ffffffffffffffffffffffffffffffffffffffff16148061096b575061096a8161096561276f565b61250d565b5b6109aa576040517f08c379a00000000000000000000000000000000000000000000000000000000081526004016109a190614d35565b60405180910390fd5b6109b48383612777565b505050565b600a6020528060005260406000206000915090508060000180546109dc90615262565b80601f0160208091040260200160405190810160405280929190818152602001828054610a0890615262565b8015610a555780601f10610a2a57610100808354040283529160200191610a55565b820191906000526020600020905b815481529060010190602001808311610a3857829003601f168201915b505050505090806001018054610a6a90615262565b80601f0160208091040260200160405190810160405280929190818152602001828054610a9690615262565b8015610ae35780601f10610ab857610100808354040283529160200191610ae3565b820191906000526020600020905b815481529060010190602001808311610ac657829003601f168201915b505050505090806002018054610af890615262565b80601f0160208091040260200160405190810160405280929190818152602001828054610b2490615262565b8015610b715780601f10610b4657610100808354040283529160200191610b71565b820191906000526020600020905b815481529060010190602001808311610b5457829003601f168201915b505050505090806003018054610b8690615262565b80601f0160208091040260200160405190810160405280929190818152602001828054610bb290615262565b8015610bff5780601f10610bd457610100808354040283529160200191610bff565b820191906000526020600020905b815481529060010190602001808311610be257829003601f168201915b505050505090806004018054610c1490615262565b80601f0160208091040260200160405190810160405280929190818152602001828054610c4090615262565b8015610c8d5780601f10610c6257610100808354040283529160200191610c8d565b820191906000526020600020905b815481529060010190602001808311610c7057829003601f168201915b5050505050908060050154908060060154908060070154908060080160009054906101000a900473ffffffffffffffffffffffffffffffffffffffff16905089565b60008273ffffffffffffffffffffffffffffffffffffffff16600b8381548110610d22577f4e487b7100000000000000000000000000000000000000000000000000000000600052603260045260246000fd5b906000526020600020906004020160000160009054906101000a900473ffffffffffffffffffffffffffffffffffffffff1673ffffffffffffffffffffffffffffffffffffffff161415610d795760019050610d7e565b600090505b92915050565b610d95610d8f61276f565b82612830565b610dd4576040517f08c379a0000000000000000000000000000000000000000000000000000000008152600401610dcb90614e95565b60405180910390fd5b610ddf83838361290e565b505050565b6000600a600083815260200190815260200160002060060154600a60008481526020019081526020016000206005015410610e54576040517f08c379a0000000000000000000000000000000000000000000000000000000008152600401610e4b90614eb5565b60405180910390fd5b6000600a600084815260200190815260200160002060050154600a600085815260200190815260200160002060070154610e8e919061508d565b90506001600a60008581526020019081526020016000206005016000828254610eb7919061508d565b92505081905550600b60405180608001604052803373ffffffffffffffffffffffffffffffffffffffff1681526020018381526020018581526020016040518060400160405280600581526020017f66616c7365000000000000000000000000000000000000000000000000000000815250815250908060018154018082558091505060019003906000526020600020906004020160009091909190915060008201518160000160006101000a81548173ffffffffffffffffffffffffffffffffffffffff021916908373ffffffffffffffffffffffffffffffffffffffff16021790555060208201518160010155604082015181600201556060820151816003019080519060200190610fcc929190613899565b505050610fd93382612b75565b61133b81611336600a6000878152602001908152602001600020600001805461100190615262565b80601f016020809104026020016040519081016040528092919081815260200182805461102d90615262565b801561107a5780601f1061104f5761010080835404028352916020019161107a565b820191906000526020600020905b81548152906001019060200180831161105d57829003601f168201915b5050505050600a600088815260200190815260200160002060010180546110a090615262565b80601f01602080910402602001604051908101604052809291908181526020018280546110cc90615262565b80156111195780601f106110ee57610100808354040283529160200191611119565b820191906000526020600020905b8154815290600101906020018083116110fc57829003601f168201915b5050505050600a6000898152602001908152602001600020600201805461113f90615262565b80601f016020809104026020016040519081016040528092919081815260200182805461116b90615262565b80156111b85780601f1061118d576101008083540402835291602001916111b8565b820191906000526020600020905b81548152906001019060200180831161119b57829003601f168201915b5050505050600a60008a815260200190815260200160002060030180546111de90615262565b80601f016020809104026020016040519081016040528092919081815260200182805461120a90615262565b80156112575780601f1061122c57610100808354040283529160200191611257565b820191906000526020600020905b81548152906001019060200180831161123a57829003601f168201915b5050505050600a60008b8152602001908152602001600020600401805461127d90615262565b80601f01602080910402602001604051908101604052809291908181526020018280546112a990615262565b80156112f65780601f106112cb576101008083540402835291602001916112f6565b820191906000526020600020905b8154815290600101906020018083116112d957829003601f168201915b50505050506040518060400160405280600581526020017f66616c73650000000000000000000000000000000000000000000000000000008152506124ae565b612b93565b7fb7656808f0e04b4af7a20f7ef1caa7669f0d781f1ca4cba31a3ba467880766c9338260405161136c9291906149aa565b60405180910390a180915050919050565b61139883838360405180602001604052806000815250611fcf565b505050565b6060806000805b600b80549050811015611870578473ffffffffffffffffffffffffffffffffffffffff16600b8281548110611402577f4e487b7100000000000000000000000000000000000000000000000000000000600052603260045260246000fd5b906000526020600020906004020160000160009054906101000a900473ffffffffffffffffffffffffffffffffffffffff1673ffffffffffffffffffffffffffffffffffffffff16141561185c57600a6000600b838154811061148e577f4e487b7100000000000000000000000000000000000000000000000000000000600052603260045260246000fd5b9060005260206000209060040201600201548152602001908152602001600020604051806101200160405290816000820180546114ca90615262565b80601f01602080910402602001604051908101604052809291908181526020018280546114f690615262565b80156115435780601f1061151857610100808354040283529160200191611543565b820191906000526020600020905b81548152906001019060200180831161152657829003601f168201915b5050505050815260200160018201805461155c90615262565b80601f016020809104026020016040519081016040528092919081815260200182805461158890615262565b80156115d55780601f106115aa576101008083540402835291602001916115d5565b820191906000526020600020905b8154815290600101906020018083116115b857829003601f168201915b505050505081526020016002820180546115ee90615262565b80601f016020809104026020016040519081016040528092919081815260200182805461161a90615262565b80156116675780601f1061163c57610100808354040283529160200191611667565b820191906000526020600020905b81548152906001019060200180831161164a57829003601f168201915b5050505050815260200160038201805461168090615262565b80601f01602080910402602001604051908101604052809291908181526020018280546116ac90615262565b80156116f95780601f106116ce576101008083540402835291602001916116f9565b820191906000526020600020905b8154815290600101906020018083116116dc57829003601f168201915b5050505050815260200160048201805461171290615262565b80601f016020809104026020016040519081016040528092919081815260200182805461173e90615262565b801561178b5780601f106117605761010080835404028352916020019161178b565b820191906000526020600020905b81548152906001019060200180831161176e57829003601f168201915b505050505081526020016005820154815260200160068201548152602001600782015481526020016008820160009054906101000a900473ffffffffffffffffffffffffffffffffffffffff1673ffffffffffffffffffffffffffffffffffffffff1673ffffffffffffffffffffffffffffffffffffffff1681525050838381518110611841577f4e487b7100000000000000000000000000000000000000000000000000000000600052603260045260246000fd5b6020026020010181905250600182611859919061508d565b91505b600181611869919061508d565b90506113a4565b508192505050919050565b600b818154811061188b57600080fd5b90600052602060002090600402016000915090508060000160009054906101000a900473ffffffffffffffffffffffffffffffffffffffff16908060010154908060020154908060030180546118e090615262565b80601f016020809104026020016040519081016040528092919081815260200182805461190c90615262565b80156119595780601f1061192e57610100808354040283529160200191611959565b820191906000526020600020905b81548152906001019060200180831161193c57829003601f168201915b5050505050905084565b6000806002600084815260200190815260200160002060009054906101000a900473ffffffffffffffffffffffffffffffffffffffff169050600073ffffffffffffffffffffffffffffffffffffffff168173ffffffffffffffffffffffffffffffffffffffff161415611a0c576040517f08c379a0000000000000000000000000000000000000000000000000000000008152600401611a0390614d75565b60405180910390fd5b80915050919050565b60008073ffffffffffffffffffffffffffffffffffffffff168273ffffffffffffffffffffffffffffffffffffffff161415611a86576040517f08c379a0000000000000000000000000000000000000000000000000000000008152600401611a7d90614d55565b60405180910390fd5b600360008373ffffffffffffffffffffffffffffffffffffffff1673ffffffffffffffffffffffffffffffffffffffff168152602001908152602001600020549050919050565b611ad561276f565b73ffffffffffffffffffffffffffffffffffffffff16611af3611b55565b73ffffffffffffffffffffffffffffffffffffffff1614611b49576040517f08c379a0000000000000000000000000000000000000000000000000000000008152600401611b4090614e15565b60405180910390fd5b611b536000612c07565b565b6000600860009054906101000a900473ffffffffffffffffffffffffffffffffffffffff16905090565b7f000000000000000000000000000000000000000000000000000000000000000073ffffffffffffffffffffffffffffffffffffffff163373ffffffffffffffffffffffffffffffffffffffff1614611c0d576040517f08c379a0000000000000000000000000000000000000000000000000000000008152600401611c0490614e55565b60405180910390fd5b611c178282612ccd565b5050565b606060018054611c2a90615262565b80601f0160208091040260200160405190810160405280929190818152602001828054611c5690615262565b8015611ca35780601f10611c7857610100808354040283529160200191611ca3565b820191906000526020600020905b815481529060010190602001808311611c8657829003601f168201915b5050505050905090565b6000600a60008481526020019081526020016000206006015411611d06576040517f08c379a0000000000000000000000000000000000000000000000000000000008152600401611cfd90614ed5565b60405180910390fd5b600a600083815260200190815260200160002060080160009054906101000a900473ffffffffffffffffffffffffffffffffffffffff1673ffffffffffffffffffffffffffffffffffffffff163373ffffffffffffffffffffffffffffffffffffffff1614611daa576040517f08c379a0000000000000000000000000000000000000000000000000000000008152600401611da190614c75565b60405180910390fd5b600a6000838152602001908152602001600020600501548110611e02576040517f08c379a0000000000000000000000000000000000000000000000000000000008152600401611df990614cd5565b60405180910390fd5b606060005b82811015611f7a57611e17612183565b506000600a600086815260200190815260200160002060060154600e54611e3e9190615322565b600a600087815260200190815260200160002060070154611e5f919061508d565b905060005b8351811015611f1e5781848281518110611ea7577f4e487b7100000000000000000000000000000000000000000000000000000000600052603260045260246000fd5b60200260200101511415611f0a57611ebd612183565b50600a600087815260200190815260200160002060060154600e54611ee29190615322565b600a600088815260200190815260200160002060070154611f03919061508d565b9150600090505b600181611f17919061508d565b9050611e64565b5080838381518110611f59577f4e487b7100000000000000000000000000000000000000000000000000000000600052603260045260246000fd5b60200260200101818152505050600181611f73919061508d565b9050611e07565b507fafe13e5a57d6283d2aac47a26860c3c84d500c7b62dc0a13783905960deb09c68382604051611fac929190614f10565b60405180910390a1505050565b611fcb611fc461276f565b8383612cd8565b5050565b611fe0611fda61276f565b83612830565b61201f576040517f08c379a000000000000000000000000000000000000000000000000000000000815260040161201690614e95565b60405180910390fd5b61202b84848484612e45565b50505050565b606061203c82612703565b61207b576040517f08c379a000000000000000000000000000000000000000000000000000000000815260040161207290614dd5565b60405180910390fd5b600060066000848152602001908152602001600020805461209b90615262565b80601f01602080910402602001604051908101604052809291908181526020018280546120c790615262565b80156121145780601f106120e957610100808354040283529160200191612114565b820191906000526020600020905b8154815290600101906020018083116120f757829003601f168201915b505050505090506000612125612ea1565b905060008151141561213b57819250505061217e565b600082511115612170578082604051602001612158929190614816565b6040516020818303038152906040529250505061217e565b61217984612eb8565b925050505b919050565b6000600d547f000000000000000000000000000000000000000000000000000000000000000073ffffffffffffffffffffffffffffffffffffffff166370a08231306040518263ffffffff1660e01b81526004016121e19190614943565b60206040518083038186803b1580156121f957600080fd5b505afa15801561220d573d6000803e3d6000fd5b505050506040513d601f19601f820116820180604052508101906122319190613f55565b11612271576040517f08c379a000000000000000000000000000000000000000000000000000000000815260040161226890614cf5565b60405180910390fd5b61227f600c54600d54612f5f565b905090565b60008060019050600061229760096130c1565b11156122ea57600a60006122ab60096130c1565b815260200190815260200160002060060154600a60006122cb60096130c1565b8152602001908152602001600020600701546122e7919061508d565b90505b6122f460096130cf565b600061230060096130c1565b90506040518061012001604052808a8152602001898152602001888152602001878152602001868152602001600081526020018581526020018381526020013373ffffffffffffffffffffffffffffffffffffffff16815250600a60008381526020019081526020016000206000820151816000019080519060200190612388929190613899565b5060208201518160010190805190602001906123a5929190613899565b5060408201518160020190805190602001906123c2929190613899565b5060608201518160030190805190602001906123df929190613899565b5060808201518160040190805190602001906123fc929190613899565b5060a0820151816005015560c0820151816006015560e082015181600701556101008201518160080160006101000a81548173ffffffffffffffffffffffffffffffffffffffff021916908373ffffffffffffffffffffffffffffffffffffffff1602179055509050507f7cfc5a0c32fcbc6c04d58abc530b3d5c69357bcc294a720a317e79285ad97d5433826040516124979291906149aa565b60405180910390a180925050509695505050505050565b60606124e28787878786886040516020016124ce9695949392919061483a565b6040516020818303038152906040526130e5565b6040516020016124f29190614921565b60405160208183030381529060405290509695505050505050565b6000600560008473ffffffffffffffffffffffffffffffffffffffff1673ffffffffffffffffffffffffffffffffffffffff16815260200190815260200160002060008373ffffffffffffffffffffffffffffffffffffffff1673ffffffffffffffffffffffffffffffffffffffff16815260200190815260200160002060009054906101000a900460ff16905092915050565b6125a961276f565b73ffffffffffffffffffffffffffffffffffffffff166125c7611b55565b73ffffffffffffffffffffffffffffffffffffffff161461261d576040517f08c379a000000000000000000000000000000000000000000000000000000000815260040161261490614e15565b60405180910390fd5b600073ffffffffffffffffffffffffffffffffffffffff168173ffffffffffffffffffffffffffffffffffffffff16141561268d576040517f08c379a000000000000000000000000000000000000000000000000000000000815260040161268490614c15565b60405180910390fd5b61269681612c07565b50565b60007f01ffc9a7000000000000000000000000000000000000000000000000000000007bffffffffffffffffffffffffffffffffffffffffffffffffffffffff1916827bffffffffffffffffffffffffffffffffffffffffffffffffffffffff1916149050919050565b60008073ffffffffffffffffffffffffffffffffffffffff166002600084815260200190815260200160002060009054906101000a900473ffffffffffffffffffffffffffffffffffffffff1673ffffffffffffffffffffffffffffffffffffffff1614159050919050565b600033905090565b816004600083815260200190815260200160002060006101000a81548173ffffffffffffffffffffffffffffffffffffffff021916908373ffffffffffffffffffffffffffffffffffffffff160217905550808273ffffffffffffffffffffffffffffffffffffffff166127ea83611963565b73ffffffffffffffffffffffffffffffffffffffff167f8c5be1e5ebec7d5bd14f71427d1e84f3dd0314c0f7b2291e5b200ac8c7c3b92560405160405180910390a45050565b600061283b82612703565b61287a576040517f08c379a000000000000000000000000000000000000000000000000000000000815260040161287190614d15565b60405180910390fd5b600061288583611963565b90508073ffffffffffffffffffffffffffffffffffffffff168473ffffffffffffffffffffffffffffffffffffffff1614806128f457508373ffffffffffffffffffffffffffffffffffffffff166128dc8461081c565b73ffffffffffffffffffffffffffffffffffffffff16145b806129055750612904818561250d565b5b91505092915050565b8273ffffffffffffffffffffffffffffffffffffffff1661292e82611963565b73ffffffffffffffffffffffffffffffffffffffff1614612984576040517f08c379a000000000000000000000000000000000000000000000000000000000815260040161297b90614c35565b60405180910390fd5b600073ffffffffffffffffffffffffffffffffffffffff168273ffffffffffffffffffffffffffffffffffffffff1614156129f4576040517f08c379a00000000000000000000000000000000000000000000000000000000081526004016129eb90614c95565b60405180910390fd5b6129ff838383613284565b612a0a600082612777565b6001600360008573ffffffffffffffffffffffffffffffffffffffff1673ffffffffffffffffffffffffffffffffffffffff1681526020019081526020016000206000828254612a5a919061516e565b925050819055506001600360008473ffffffffffffffffffffffffffffffffffffffff1673ffffffffffffffffffffffffffffffffffffffff1681526020019081526020016000206000828254612ab1919061508d565b92505081905550816002600083815260200190815260200160002060006101000a81548173ffffffffffffffffffffffffffffffffffffffff021916908373ffffffffffffffffffffffffffffffffffffffff160217905550808273ffffffffffffffffffffffffffffffffffffffff168473ffffffffffffffffffffffffffffffffffffffff167fddf252ad1be2c89b69c2b068fc378daa952ba7f163c4a11628f55a4df523b3ef60405160405180910390a4612b70838383613289565b505050565b612b8f82826040518060200160405280600081525061328e565b5050565b612b9c82612703565b612bdb576040517f08c379a0000000000000000000000000000000000000000000000000000000008152600401612bd290614d95565b60405180910390fd5b80600660008481526020019081526020016000209080519060200190612c02929190613899565b505050565b6000600860009054906101000a900473ffffffffffffffffffffffffffffffffffffffff16905081600860006101000a81548173ffffffffffffffffffffffffffffffffffffffff021916908373ffffffffffffffffffffffffffffffffffffffff1602179055508173ffffffffffffffffffffffffffffffffffffffff168173ffffffffffffffffffffffffffffffffffffffff167f8be0079c531659141344cd1fd0a4f28419497f9722a3daafe3b4186f6b6457e060405160405180910390a35050565b80600e819055505050565b8173ffffffffffffffffffffffffffffffffffffffff168373ffffffffffffffffffffffffffffffffffffffff161415612d47576040517f08c379a0000000000000000000000000000000000000000000000000000000008152600401612d3e90614cb5565b60405180910390fd5b80600560008573ffffffffffffffffffffffffffffffffffffffff1673ffffffffffffffffffffffffffffffffffffffff16815260200190815260200160002060008473ffffffffffffffffffffffffffffffffffffffff1673ffffffffffffffffffffffffffffffffffffffff16815260200190815260200160002060006101000a81548160ff0219169083151502179055508173ffffffffffffffffffffffffffffffffffffffff168373ffffffffffffffffffffffffffffffffffffffff167f17307eab39ab6107e8899845ad3d59bd9653f200f220920489ca2b5937696c3183604051612e389190614a7f565b60405180910390a3505050565b612e5084848461290e565b612e5c848484846132e9565b612e9b576040517f08c379a0000000000000000000000000000000000000000000000000000000008152600401612e9290614bf5565b60405180910390fd5b50505050565b606060405180602001604052806000815250905090565b6060612ec382612703565b612f02576040517f08c379a0000000000000000000000000000000000000000000000000000000008152600401612ef990614e35565b60405180910390fd5b6000612f0c612ea1565b90506000815111612f2c5760405180602001604052806000815250612f57565b80612f3684613480565b604051602001612f47929190614816565b6040516020818303038152906040525b915050919050565b60007f000000000000000000000000000000000000000000000000000000000000000073ffffffffffffffffffffffffffffffffffffffff16634000aea07f000000000000000000000000000000000000000000000000000000000000000084866000604051602001612fd3929190614ab5565b6040516020818303038152906040526040518463ffffffff1660e01b8152600401613000939291906149d3565b602060405180830381600087803b15801561301a57600080fd5b505af115801561302e573d6000803e3d6000fd5b505050506040513d601f19601f820116820180604052508101906130529190613c5b565b50600061307584600030600760008981526020019081526020016000205461362d565b905060016007600086815260200190815260200160002054613097919061508d565b60076000868152602001908152602001600020819055506130b88482613669565b91505092915050565b600081600001549050919050565b6001816000016000828254019250508190555050565b60606000825114156131085760405180602001604052806000815250905061327f565b6000604051806060016040528060408152602001615d9c6040913990506000600360028551613137919061508d565b61314191906150e3565b600461314d9190615114565b9050600060208261315e919061508d565b67ffffffffffffffff81111561319d577f4e487b7100000000000000000000000000000000000000000000000000000000600052604160045260246000fd5b6040519080825280601f01601f1916602001820160405280156131cf5781602001600182028036833780820191505090505b509050818152600183018586518101602084015b8183101561323e576003830192508251603f8160121c168501518253600182019150603f81600c1c168501518253600182019150603f8160061c168501518253600182019150603f81168501518253600182019150506131e3565b600389510660018114613258576002811461326857613273565b613d3d60f01b6002830352613273565b603d60f81b60018303525b50505050508093505050505b919050565b505050565b505050565b613298838361369c565b6132a560008484846132e9565b6132e4576040517f08c379a00000000000000000000000000000000000000000000000000000000081526004016132db90614bf5565b60405180910390fd5b505050565b600061330a8473ffffffffffffffffffffffffffffffffffffffff16613876565b15613473578373ffffffffffffffffffffffffffffffffffffffff1663150b7a0261333361276f565b8786866040518563ffffffff1660e01b8152600401613355949392919061495e565b602060405180830381600087803b15801561336f57600080fd5b505af19250505080156133a057506040513d601f19601f8201168201806040525081019061339d9190613ce9565b60015b613423573d80600081146133d0576040519150601f19603f3d011682016040523d82523d6000602084013e6133d5565b606091505b5060008151141561341b576040517f08c379a000000000000000000000000000000000000000000000000000000000815260040161341290614bf5565b60405180910390fd5b805181602001fd5b63150b7a0260e01b7bffffffffffffffffffffffffffffffffffffffffffffffffffffffff1916817bffffffffffffffffffffffffffffffffffffffffffffffffffffffff191614915050613478565b600190505b949350505050565b606060008214156134c8576040518060400160405280600181526020017f30000000000000000000000000000000000000000000000000000000000000008152509050613628565b600082905060005b600082146134fa5780806134e3906152c5565b915050600a826134f391906150e3565b91506134d0565b60008167ffffffffffffffff81111561353c577f4e487b7100000000000000000000000000000000000000000000000000000000600052604160045260246000fd5b6040519080825280601f01601f19166020018201604052801561356e5781602001600182028036833780820191505090505b5090505b6000851461362157600182613587919061516e565b9150600a856135969190615322565b60306135a2919061508d565b60f81b8183815181106135de577f4e487b7100000000000000000000000000000000000000000000000000000000600052603260045260246000fd5b60200101907effffffffffffffffffffffffffffffffffffffffffffffffffffffffffffff1916908160001a905350600a8561361a91906150e3565b9450613572565b8093505050505b919050565b6000848484846040516020016136469493929190614ade565b6040516020818303038152906040528051906020012060001c9050949350505050565b6000828260405160200161367e9291906147ea565b60405160208183030381529060405280519060200120905092915050565b600073ffffffffffffffffffffffffffffffffffffffff168273ffffffffffffffffffffffffffffffffffffffff16141561370c576040517f08c379a000000000000000000000000000000000000000000000000000000000815260040161370390614db5565b60405180910390fd5b61371581612703565b15613755576040517f08c379a000000000000000000000000000000000000000000000000000000000815260040161374c90614c55565b60405180910390fd5b61376160008383613284565b6001600360008473ffffffffffffffffffffffffffffffffffffffff1673ffffffffffffffffffffffffffffffffffffffff16815260200190815260200160002060008282546137b1919061508d565b92505081905550816002600083815260200190815260200160002060006101000a81548173ffffffffffffffffffffffffffffffffffffffff021916908373ffffffffffffffffffffffffffffffffffffffff160217905550808273ffffffffffffffffffffffffffffffffffffffff16600073ffffffffffffffffffffffffffffffffffffffff167fddf252ad1be2c89b69c2b068fc378daa952ba7f163c4a11628f55a4df523b3ef60405160405180910390a461387260008383613289565b5050565b6000808273ffffffffffffffffffffffffffffffffffffffff163b119050919050565b8280546138a590615262565b90600052602060002090601f0160209004810192826138c7576000855561390e565b82601f106138e057805160ff191683800117855561390e565b8280016001018555821561390e579182015b8281111561390d5782518255916020019190600101906138f2565b5b50905061391b919061391f565b5090565b5b80821115613938576000816000905550600101613920565b5090565b600061394f61394a84614f65565b614f40565b90508281526020810184848401111561396757600080fd5b613972848285615220565b509392505050565b600061398d61398884614f96565b614f40565b9050828152602081018484840111156139a557600080fd5b6139b0848285615220565b509392505050565b6000813590506139c781615d28565b92915050565b6000813590506139dc81615d3f565b92915050565b6000815190506139f181615d3f565b92915050565b600081359050613a0681615d56565b92915050565b600081359050613a1b81615d6d565b92915050565b600081519050613a3081615d6d565b92915050565b600082601f830112613a4757600080fd5b8135613a5784826020860161393c565b91505092915050565b600082601f830112613a7157600080fd5b8135613a8184826020860161397a565b91505092915050565b600081359050613a9981615d84565b92915050565b600081519050613aae81615d84565b92915050565b600060208284031215613ac657600080fd5b6000613ad4848285016139b8565b91505092915050565b60008060408385031215613af057600080fd5b6000613afe858286016139b8565b9250506020613b0f858286016139b8565b9150509250929050565b600080600060608486031215613b2e57600080fd5b6000613b3c868287016139b8565b9350506020613b4d868287016139b8565b9250506040613b5e86828701613a8a565b9150509250925092565b60008060008060808587031215613b7e57600080fd5b6000613b8c878288016139b8565b9450506020613b9d878288016139b8565b9350506040613bae87828801613a8a565b925050606085013567ffffffffffffffff811115613bcb57600080fd5b613bd787828801613a36565b91505092959194509250565b60008060408385031215613bf657600080fd5b6000613c04858286016139b8565b9250506020613c15858286016139cd565b9150509250929050565b60008060408385031215613c3257600080fd5b6000613c40858286016139b8565b9250506020613c5185828601613a8a565b9150509250929050565b600060208284031215613c6d57600080fd5b6000613c7b848285016139e2565b91505092915050565b60008060408385031215613c9757600080fd5b6000613ca5858286016139f7565b9250506020613cb685828601613a8a565b9150509250929050565b600060208284031215613cd257600080fd5b6000613ce084828501613a0c565b91505092915050565b600060208284031215613cfb57600080fd5b6000613d0984828501613a21565b91505092915050565b60008060008060008060c08789031215613d2b57600080fd5b600087013567ffffffffffffffff811115613d4557600080fd5b613d5189828a01613a60565b965050602087013567ffffffffffffffff811115613d6e57600080fd5b613d7a89828a01613a60565b955050604087013567ffffffffffffffff811115613d9757600080fd5b613da389828a01613a60565b945050606087013567ffffffffffffffff811115613dc057600080fd5b613dcc89828a01613a60565b935050608087013567ffffffffffffffff811115613de957600080fd5b613df589828a01613a60565b92505060a087013567ffffffffffffffff811115613e1257600080fd5b613e1e89828a01613a60565b9150509295509295509295565b60008060008060008060c08789031215613e4457600080fd5b600087013567ffffffffffffffff811115613e5e57600080fd5b613e6a89828a01613a60565b965050602087013567ffffffffffffffff811115613e8757600080fd5b613e9389828a01613a60565b955050604087013567ffffffffffffffff811115613eb057600080fd5b613ebc89828a01613a60565b945050606087013567ffffffffffffffff811115613ed957600080fd5b613ee589828a01613a60565b935050608087013567ffffffffffffffff811115613f0257600080fd5b613f0e89828a01613a60565b92505060a0613f1f89828a01613a8a565b9150509295509295509295565b600060208284031215613f3e57600080fd5b6000613f4c84828501613a8a565b91505092915050565b600060208284031215613f6757600080fd5b6000613f7584828501613a9f565b91505092915050565b60008060408385031215613f9157600080fd5b6000613f9f85828601613a8a565b9250506020613fb085828601613a8a565b9150509250929050565b6000613fc683836146d4565b905092915050565b6000613fda83836147b5565b60208301905092915050565b613fef816151a2565b82525050565b613ffe816151a2565b82525050565b600061400f82614fe7565b614019818561502d565b93508360208202850161402b85614fc7565b8060005b8581101561406757848403895281516140488582613fba565b945061405383615013565b925060208a0199505060018101905061402f565b50829750879550505050505092915050565b600061408482614ff2565b61408e818561503e565b935061409983614fd7565b8060005b838110156140ca5781516140b18882613fce565b97506140bc83615020565b92505060018101905061409d565b5085935050505092915050565b6140e0816151b4565b82525050565b6140ef816151c0565b82525050565b614106614101826151c0565b61530e565b82525050565b600061411782614ffd565b614121818561504f565b935061413181856020860161522f565b61413a8161540f565b840191505092915050565b600061415082615008565b61415a8185615060565b935061416a81856020860161522f565b6141738161540f565b840191505092915050565b600061418982615008565b6141938185615071565b93506141a381856020860161522f565b6141ac8161540f565b840191505092915050565b60006141c282615008565b6141cc8185615082565b93506141dc81856020860161522f565b80840191505092915050565b60006141f5600983615082565b915061420082615420565b600982019050919050565b6000614218603283615071565b915061422382615449565b604082019050919050565b600061423b602683615071565b915061424682615498565b604082019050919050565b600061425e601e83615082565b9150614269826154e7565b601e82019050919050565b6000614281602583615071565b915061428c82615510565b604082019050919050565b60006142a4601c83615071565b91506142af8261555f565b602082019050919050565b60006142c7602383615071565b91506142d282615588565b604082019050919050565b60006142ea602483615071565b91506142f5826155d7565b604082019050919050565b600061430d601983615071565b915061431882615626565b602082019050919050565b6000614330602683615071565b915061433b8261564f565b604082019050919050565b6000614353602b83615071565b915061435e8261569e565b604082019050919050565b6000614376601e83615082565b9150614381826156ed565b601e82019050919050565b6000614399602c83615071565b91506143a482615716565b604082019050919050565b60006143bc603883615071565b91506143c782615765565b604082019050919050565b60006143df602a83615071565b91506143ea826157b4565b604082019050919050565b6000614402602983615071565b915061440d82615803565b604082019050919050565b6000614425602e83615071565b915061443082615852565b604082019050919050565b6000614448605e83615082565b9150614453826158a1565b605e82019050919050565b600061446b600283615082565b915061447682615916565b600282019050919050565b600061448e602083615071565b91506144998261593f565b602082019050919050565b60006144b1603183615071565b91506144bc82615968565b604082019050919050565b60006144d4602c83615071565b91506144df826159b7565b604082019050919050565b60006144f7602a83615082565b915061450282615a06565b602a82019050919050565b600061451a602083615071565b915061452582615a55565b602082019050919050565b600061453d602f83615071565b915061454882615a7e565b604082019050919050565b6000614560600583615082565b915061456b82615acd565b600582019050919050565b6000614583601f83615071565b915061458e82615af6565b602082019050919050565b60006145a6603383615082565b91506145b182615b1f565b603382019050919050565b60006145c9602183615071565b91506145d482615b6e565b604082019050919050565b60006145ec601d83615082565b91506145f782615bbd565b601d82019050919050565b600061460f600483615082565b915061461a82615be6565b600482019050919050565b6000614632603183615071565b915061463d82615c0f565b604082019050919050565b6000614655602b83615082565b915061466082615c5e565b602b82019050919050565b6000614678600383615082565b915061468382615cad565b600382019050919050565b600061469b601083615071565b91506146a682615cd6565b602082019050919050565b60006146be600d83615071565b91506146c982615cff565b602082019050919050565b60006101208301600083015184820360008601526146f28282614145565b9150506020830151848203602086015261470c8282614145565b915050604083015184820360408601526147268282614145565b915050606083015184820360608601526147408282614145565b9150506080830151848203608086015261475a8282614145565b91505060a083015161476f60a08601826147b5565b5060c083015161478260c08601826147b5565b5060e083015161479560e08601826147b5565b506101008301516147aa610100860182613fe6565b508091505092915050565b6147be81615216565b82525050565b6147cd81615216565b82525050565b6147e46147df82615216565b615318565b82525050565b60006147f682856140f5565b60208201915061480682846147d3565b6020820191508190509392505050565b600061482282856141b7565b915061482e82846141b7565b91508190509392505050565b6000614845826141e8565b915061485182896141b7565b915061485c8261466b565b91506148678261443b565b915061487282614599565b915061487e82886141b7565b915061488982614602565b915061489482614369565b91506148a082876141b7565b91506148ab82614602565b91506148b682614251565b91506148c282866141b7565b91506148cd82614602565b91506148d8826144ea565b91506148e482856141b7565b91506148ef82614553565b91506148fa82614648565b915061490682846141b7565b91506149118261445e565b9150819050979650505050505050565b600061492c826145df565b915061493882846141b7565b915081905092915050565b60006020820190506149586000830184613ff5565b92915050565b60006080820190506149736000830187613ff5565b6149806020830186613ff5565b61498d60408301856147c4565b818103606083015261499f818461410c565b905095945050505050565b60006040820190506149bf6000830185613ff5565b6149cc60208301846147c4565b9392505050565b60006060820190506149e86000830186613ff5565b6149f560208301856147c4565b8181036040830152614a07818461410c565b9050949350505050565b6000608082019050614a266000830187613ff5565b614a3360208301866147c4565b614a4060408301856147c4565b8181036060830152614a52818461417e565b905095945050505050565b60006020820190508181036000830152614a778184614004565b905092915050565b6000602082019050614a9460008301846140d7565b92915050565b6000602082019050614aaf60008301846140e6565b92915050565b6000604082019050614aca60008301856140e6565b614ad760208301846147c4565b9392505050565b6000608082019050614af360008301876140e6565b614b0060208301866147c4565b614b0d6040830185613ff5565b614b1a60608301846147c4565b95945050505050565b60006020820190508181036000830152614b3d818461417e565b905092915050565b6000610120820190508181036000830152614b60818c61417e565b90508181036020830152614b74818b61417e565b90508181036040830152614b88818a61417e565b90508181036060830152614b9c818961417e565b90508181036080830152614bb0818861417e565b9050614bbf60a08301876147c4565b614bcc60c08301866147c4565b614bd960e08301856147c4565b614be7610100830184613ff5565b9a9950505050505050505050565b60006020820190508181036000830152614c0e8161420b565b9050919050565b60006020820190508181036000830152614c2e8161422e565b9050919050565b60006020820190508181036000830152614c4e81614274565b9050919050565b60006020820190508181036000830152614c6e81614297565b9050919050565b60006020820190508181036000830152614c8e816142ba565b9050919050565b60006020820190508181036000830152614cae816142dd565b9050919050565b60006020820190508181036000830152614cce81614300565b9050919050565b60006020820190508181036000830152614cee81614323565b9050919050565b60006020820190508181036000830152614d0e81614346565b9050919050565b60006020820190508181036000830152614d2e8161438c565b9050919050565b60006020820190508181036000830152614d4e816143af565b9050919050565b60006020820190508181036000830152614d6e816143d2565b9050919050565b60006020820190508181036000830152614d8e816143f5565b9050919050565b60006020820190508181036000830152614dae81614418565b9050919050565b60006020820190508181036000830152614dce81614481565b9050919050565b60006020820190508181036000830152614dee816144a4565b9050919050565b60006020820190508181036000830152614e0e816144c7565b9050919050565b60006020820190508181036000830152614e2e8161450d565b9050919050565b60006020820190508181036000830152614e4e81614530565b9050919050565b60006020820190508181036000830152614e6e81614576565b9050919050565b60006020820190508181036000830152614e8e816145bc565b9050919050565b60006020820190508181036000830152614eae81614625565b9050919050565b60006020820190508181036000830152614ece8161468e565b9050919050565b60006020820190508181036000830152614eee816146b1565b9050919050565b6000602082019050614f0a60008301846147c4565b92915050565b6000604082019050614f2560008301856147c4565b8181036020830152614f378184614079565b90509392505050565b6000614f4a614f5b565b9050614f568282615294565b919050565b6000604051905090565b600067ffffffffffffffff821115614f8057614f7f6153e0565b5b614f898261540f565b9050602081019050919050565b600067ffffffffffffffff821115614fb157614fb06153e0565b5b614fba8261540f565b9050602081019050919050565b6000819050602082019050919050565b6000819050602082019050919050565b600081519050919050565b600081519050919050565b600081519050919050565b600081519050919050565b6000602082019050919050565b6000602082019050919050565b600082825260208201905092915050565b600082825260208201905092915050565b600082825260208201905092915050565b600082825260208201905092915050565b600082825260208201905092915050565b600081905092915050565b600061509882615216565b91506150a383615216565b9250827fffffffffffffffffffffffffffffffffffffffffffffffffffffffffffffffff038211156150d8576150d7615353565b5b828201905092915050565b60006150ee82615216565b91506150f983615216565b92508261510957615108615382565b5b828204905092915050565b600061511f82615216565b915061512a83615216565b9250817fffffffffffffffffffffffffffffffffffffffffffffffffffffffffffffffff048311821515161561516357615162615353565b5b828202905092915050565b600061517982615216565b915061518483615216565b92508282101561519757615196615353565b5b828203905092915050565b60006151ad826151f6565b9050919050565b60008115159050919050565b6000819050919050565b60007fffffffff0000000000000000000000000000000000000000000000000000000082169050919050565b600073ffffffffffffffffffffffffffffffffffffffff82169050919050565b6000819050919050565b82818337600083830152505050565b60005b8381101561524d578082015181840152602081019050615232565b8381111561525c576000848401525b50505050565b6000600282049050600182168061527a57607f821691505b6020821081141561528e5761528d6153b1565b5b50919050565b61529d8261540f565b810181811067ffffffffffffffff821117156152bc576152bb6153e0565b5b80604052505050565b60006152d082615216565b91507fffffffffffffffffffffffffffffffffffffffffffffffffffffffffffffffff82141561530357615302615353565b5b600182019050919050565b6000819050919050565b6000819050919050565b600061532d82615216565b915061533883615216565b92508261534857615347615382565b5b828206905092915050565b7f4e487b7100000000000000000000000000000000000000000000000000000000600052601160045260246000fd5b7f4e487b7100000000000000000000000000000000000000000000000000000000600052601260045260246000fd5b7f4e487b7100000000000000000000000000000000000000000000000000000000600052602260045260246000fd5b7f4e487b7100000000000000000000000000000000000000000000000000000000600052604160045260246000fd5b6000601f19601f8301169050919050565b7f7b226e616d65223a220000000000000000000000000000000000000000000000600082015250565b7f4552433732313a207472616e7366657220746f206e6f6e20455243373231526560008201527f63656976657220696d706c656d656e7465720000000000000000000000000000602082015250565b7f4f776e61626c653a206e6577206f776e657220697320746865207a65726f206160008201527f6464726573730000000000000000000000000000000000000000000000000000602082015250565b7f7b2274726169745f74797065223a2254696d65222c2276616c7565223a220000600082015250565b7f4552433732313a207472616e736665722066726f6d20696e636f72726563742060008201527f6f776e6572000000000000000000000000000000000000000000000000000000602082015250565b7f4552433732313a20746f6b656e20616c7265616479206d696e74656400000000600082015250565b7f4f6e6c7920546865204576656e742043726561746f722043616e20446f20546860008201527f6973210000000000000000000000000000000000000000000000000000000000602082015250565b7f4552433732313a207472616e7366657220746f20746865207a65726f2061646460008201527f7265737300000000000000000000000000000000000000000000000000000000602082015250565b7f4552433732313a20617070726f766520746f2063616c6c657200000000000000600082015250565b7f43616e2774207069636b206d6f72652077696e6e6e657273207468616e20746960008201527f636b657473210000000000000000000000000000000000000000000000000000602082015250565b7f4e6f7420656e6f756768204c494e4b202d2066696c6c20636f6e74726163742060008201527f7769746820666175636574000000000000000000000000000000000000000000602082015250565b7f7b2274726169745f74797065223a2244617465222c2276616c7565223a220000600082015250565b7f4552433732313a206f70657261746f7220717565727920666f72206e6f6e657860008201527f697374656e7420746f6b656e0000000000000000000000000000000000000000602082015250565b7f4552433732313a20617070726f76652063616c6c6572206973206e6f74206f7760008201527f6e6572206e6f7220617070726f76656420666f7220616c6c0000000000000000602082015250565b7f4552433732313a2062616c616e636520717565727920666f7220746865207a6560008201527f726f206164647265737300000000000000000000000000000000000000000000602082015250565b7f4552433732313a206f776e657220717565727920666f72206e6f6e657869737460008201527f656e7420746f6b656e0000000000000000000000000000000000000000000000602082015250565b7f45524337323155524953746f726167653a2055524920736574206f66206e6f6e60008201527f6578697374656e7420746f6b656e000000000000000000000000000000000000602082015250565b7f226465736372697074696f6e223a2241207469636b657420736563757265642060008201527f6f6e2074686520706f6c79676f6e20626c6f636b636861696e2c2067656e657260208201527f6174656420627920746865204e465469636b657473207465616d2e222c200000604082015250565b7f227d000000000000000000000000000000000000000000000000000000000000600082015250565b7f4552433732313a206d696e7420746f20746865207a65726f2061646472657373600082015250565b7f45524337323155524953746f726167653a2055524920717565727920666f722060008201527f6e6f6e6578697374656e7420746f6b656e000000000000000000000000000000602082015250565b7f4552433732313a20617070726f76656420717565727920666f72206e6f6e657860008201527f697374656e7420746f6b656e0000000000000000000000000000000000000000602082015250565b7f7b2274726169745f74797065223a2257696e6e696e67205469636b65743f222c60008201527f2276616c7565223a202200000000000000000000000000000000000000000000602082015250565b7f4f776e61626c653a2063616c6c6572206973206e6f7420746865206f776e6572600082015250565b7f4552433732314d657461646174613a2055524920717565727920666f72206e6f60008201527f6e6578697374656e7420746f6b656e0000000000000000000000000000000000602082015250565b7f227d5d2c20000000000000000000000000000000000000000000000000000000600082015250565b7f4f6e6c7920565246436f6f7264696e61746f722063616e2066756c66696c6c00600082015250565b7f2261747472696275746573223a5b7b2274726169745f74797065223a2256656e60008201527f646f72204e616d65222c2276616c7565223a2200000000000000000000000000602082015250565b7f4552433732313a20617070726f76616c20746f2063757272656e74206f776e6560008201527f7200000000000000000000000000000000000000000000000000000000000000602082015250565b7f646174613a6170706c69636174696f6e2f6a736f6e3b6261736536342c000000600082015250565b7f227d2c2000000000000000000000000000000000000000000000000000000000600082015250565b7f4552433732313a207472616e736665722063616c6c6572206973206e6f74206f60008201527f776e6572206e6f7220617070726f766564000000000000000000000000000000602082015250565b7f22696d616765223a2268747470733a2f2f676174657761792e70696e6174612e60008201527f636c6f75642f697066732f000000000000000000000000000000000000000000602082015250565b7f222c200000000000000000000000000000000000000000000000000000000000600082015250565b7f5469636b65747320536f6c64204f757400000000000000000000000000000000600082015250565b7f496e76616c6964204576656e7400000000000000000000000000000000000000600082015250565b615d31816151a2565b8114615d3c57600080fd5b50565b615d48816151b4565b8114615d5357600080fd5b50565b615d5f816151c0565b8114615d6a57600080fd5b50565b615d76816151ca565b8114615d8157600080fd5b50565b615d8d81615216565b8114615d9857600080fd5b5056fe4142434445464748494a4b4c4d4e4f505152535455565758595a6162636465666768696a6b6c6d6e6f707172737475767778797a303132333435363738392b2fa26469706673582212208d2a779a1fa5e79e2317a4f528aa0a2d3ca8a6e49e724cc64b160bc49daf8a6a64736f6c63430008010033",
  "linkReferences": {},
  "deployedLinkReferences": {}
}