{
  "_format": "hh-sol-artifact-1",
  "contractName": "NFTickets",
  "sourceName": "contracts/NFTickets.sol",
  "abi": [
    {
      "inputs": [],
      "stateMutability": "nonpayable",
      "type": "constructor"
    },
    {
      "anonymous": false,
      "inputs": [
        {
          "indexed": true,
          "internalType": "address",
          "name": "owner",
          "type": "address"
        },
        {
          "indexed": true,
          "internalType": "address",
          "name": "approved",
          "type": "address"
        },
        {
          "indexed": true,
          "internalType": "uint256",
          "name": "tokenId",
          "type": "uint256"
        }
      ],
      "name": "Approval",
      "type": "event"
    },
    {
      "anonymous": false,
      "inputs": [
        {
          "indexed": true,
          "internalType": "address",
          "name": "owner",
          "type": "address"
        },
        {
          "indexed": true,
          "internalType": "address",
          "name": "operator",
          "type": "address"
        },
        {
          "indexed": false,
          "internalType": "bool",
          "name": "approved",
          "type": "bool"
        }
      ],
      "name": "ApprovalForAll",
      "type": "event"
    },
    {
      "anonymous": false,
      "inputs": [
        {
          "indexed": true,
          "internalType": "address",
          "name": "previousOwner",
          "type": "address"
        },
        {
          "indexed": true,
          "internalType": "address",
          "name": "newOwner",
          "type": "address"
        }
      ],
      "name": "OwnershipTransferred",
      "type": "event"
    },
    {
      "anonymous": false,
      "inputs": [
        {
          "indexed": true,
          "internalType": "address",
          "name": "from",
          "type": "address"
        },
        {
          "indexed": true,
          "internalType": "address",
          "name": "to",
          "type": "address"
        },
        {
          "indexed": true,
          "internalType": "uint256",
          "name": "tokenId",
          "type": "uint256"
        }
      ],
      "name": "Transfer",
      "type": "event"
    },
    {
      "anonymous": false,
      "inputs": [
        {
          "indexed": false,
          "internalType": "address",
          "name": "owner",
          "type": "address"
        },
        {
          "indexed": false,
          "internalType": "uint256",
          "name": "eventID",
          "type": "uint256"
        }
      ],
      "name": "eventInitialized",
      "type": "event"
    },
    {
      "anonymous": false,
      "inputs": [
        {
          "indexed": false,
          "internalType": "address",
          "name": "sender",
          "type": "address"
        },
        {
          "indexed": false,
          "internalType": "uint256",
          "name": "tokenId",
          "type": "uint256"
        }
      ],
      "name": "minted",
      "type": "event"
    },
    {
      "anonymous": false,
      "inputs": [
        {
          "indexed": false,
          "internalType": "uint256",
          "name": "winningTokenID",
          "type": "uint256"
        }
      ],
      "name": "winnerPicked",
      "type": "event"
    },
    {
      "inputs": [
        {
          "internalType": "address",
          "name": "to",
          "type": "address"
        },
        {
          "internalType": "uint256",
          "name": "tokenId",
          "type": "uint256"
        }
      ],
      "name": "approve",
      "outputs": [],
      "stateMutability": "nonpayable",
      "type": "function"
    },
    {
      "inputs": [
        {
          "internalType": "address",
          "name": "owner",
          "type": "address"
        }
      ],
      "name": "balanceOf",
      "outputs": [
        {
          "internalType": "uint256",
          "name": "",
          "type": "uint256"
        }
      ],
      "stateMutability": "view",
      "type": "function"
    },
    {
      "inputs": [
        {
          "internalType": "uint256",
          "name": "",
          "type": "uint256"
        }
      ],
      "name": "events",
      "outputs": [
        {
          "internalType": "string",
          "name": "eventName",
          "type": "string"
        },
        {
          "internalType": "string",
          "name": "eventVendor",
          "type": "string"
        },
        {
          "internalType": "string",
          "name": "date",
          "type": "string"
        },
        {
          "internalType": "string",
          "name": "time",
          "type": "string"
        },
        {
          "internalType": "string",
          "name": "cid",
          "type": "string"
        },
        {
          "internalType": "uint256",
          "name": "ticketsMinted",
          "type": "uint256"
        },
        {
          "internalType": "uint256",
          "name": "maxCapacity",
          "type": "uint256"
        },
        {
          "internalType": "uint256",
          "name": "startingTokenID",
          "type": "uint256"
        },
        {
          "internalType": "address",
          "name": "eventOwner",
          "type": "address"
        }
      ],
      "stateMutability": "view",
      "type": "function"
    },
    {
      "inputs": [
        {
          "internalType": "string",
          "name": "eventName",
          "type": "string"
        },
        {
          "internalType": "string",
          "name": "vendorName",
          "type": "string"
        },
        {
          "internalType": "string",
          "name": "date",
          "type": "string"
        },
        {
          "internalType": "string",
          "name": "time",
          "type": "string"
        },
        {
          "internalType": "string",
          "name": "cid",
          "type": "string"
        },
        {
          "internalType": "string",
          "name": "winner",
          "type": "string"
        }
      ],
      "name": "generateTokenURI",
      "outputs": [
        {
          "internalType": "string",
          "name": "",
          "type": "string"
        }
      ],
      "stateMutability": "pure",
      "type": "function"
    },
    {
      "inputs": [
        {
          "internalType": "uint256",
          "name": "tokenId",
          "type": "uint256"
        }
      ],
      "name": "getApproved",
      "outputs": [
        {
          "internalType": "address",
          "name": "",
          "type": "address"
        }
      ],
      "stateMutability": "view",
      "type": "function"
    },
    {
      "inputs": [],
      "name": "getRandomNumber",
      "outputs": [
        {
          "internalType": "bytes32",
          "name": "requestId",
          "type": "bytes32"
        }
      ],
      "stateMutability": "nonpayable",
      "type": "function"
    },
    {
      "inputs": [
        {
          "internalType": "string",
          "name": "eventName",
          "type": "string"
        },
        {
          "internalType": "string",
          "name": "eventVendor",
          "type": "string"
        },
        {
          "internalType": "string",
          "name": "date",
          "type": "string"
        },
        {
          "internalType": "string",
          "name": "time",
          "type": "string"
        },
        {
          "internalType": "string",
          "name": "cid",
          "type": "string"
        },
        {
          "internalType": "uint256",
          "name": "maxCapacity",
          "type": "uint256"
        }
      ],
      "name": "initEvent",
      "outputs": [],
      "stateMutability": "nonpayable",
      "type": "function"
    },
    {
      "inputs": [
        {
          "internalType": "address",
          "name": "owner",
          "type": "address"
        },
        {
          "internalType": "address",
          "name": "operator",
          "type": "address"
        }
      ],
      "name": "isApprovedForAll",
      "outputs": [
        {
          "internalType": "bool",
          "name": "",
          "type": "bool"
        }
      ],
      "stateMutability": "view",
      "type": "function"
    },
    {
      "inputs": [
        {
          "internalType": "uint256",
          "name": "eventID",
          "type": "uint256"
        }
      ],
      "name": "mintTicket",
      "outputs": [
        {
          "internalType": "uint256",
          "name": "",
          "type": "uint256"
        }
      ],
      "stateMutability": "payable",
      "type": "function"
    },
    {
      "inputs": [],
      "name": "name",
      "outputs": [
        {
          "internalType": "string",
          "name": "",
          "type": "string"
        }
      ],
      "stateMutability": "view",
      "type": "function"
    },
    {
      "inputs": [],
      "name": "owner",
      "outputs": [
        {
          "internalType": "address",
          "name": "",
          "type": "address"
        }
      ],
      "stateMutability": "view",
      "type": "function"
    },
    {
      "inputs": [
        {
          "internalType": "uint256",
          "name": "tokenId",
          "type": "uint256"
        }
      ],
      "name": "ownerOf",
      "outputs": [
        {
          "internalType": "address",
          "name": "",
          "type": "address"
        }
      ],
      "stateMutability": "view",
      "type": "function"
    },
    {
      "inputs": [
        {
          "internalType": "uint256",
          "name": "eventID",
          "type": "uint256"
        }
      ],
      "name": "pickWinner",
      "outputs": [
        {
          "internalType": "uint256",
          "name": "",
          "type": "uint256"
        }
      ],
      "stateMutability": "nonpayable",
      "type": "function"
    },
    {
      "inputs": [
        {
          "internalType": "bytes32",
          "name": "requestId",
          "type": "bytes32"
        },
        {
          "internalType": "uint256",
          "name": "randomness",
          "type": "uint256"
        }
      ],
      "name": "rawFulfillRandomness",
      "outputs": [],
      "stateMutability": "nonpayable",
      "type": "function"
    },
    {
      "inputs": [],
      "name": "renounceOwnership",
      "outputs": [],
      "stateMutability": "nonpayable",
      "type": "function"
    },
    {
      "inputs": [
        {
          "internalType": "address",
          "name": "from",
          "type": "address"
        },
        {
          "internalType": "address",
          "name": "to",
          "type": "address"
        },
        {
          "internalType": "uint256",
          "name": "tokenId",
          "type": "uint256"
        }
      ],
      "name": "safeTransferFrom",
      "outputs": [],
      "stateMutability": "nonpayable",
      "type": "function"
    },
    {
      "inputs": [
        {
          "internalType": "address",
          "name": "from",
          "type": "address"
        },
        {
          "internalType": "address",
          "name": "to",
          "type": "address"
        },
        {
          "internalType": "uint256",
          "name": "tokenId",
          "type": "uint256"
        },
        {
          "internalType": "bytes",
          "name": "_data",
          "type": "bytes"
        }
      ],
      "name": "safeTransferFrom",
      "outputs": [],
      "stateMutability": "nonpayable",
      "type": "function"
    },
    {
      "inputs": [
        {
          "internalType": "address",
          "name": "operator",
          "type": "address"
        },
        {
          "internalType": "bool",
          "name": "approved",
          "type": "bool"
        }
      ],
      "name": "setApprovalForAll",
      "outputs": [],
      "stateMutability": "nonpayable",
      "type": "function"
    },
    {
      "inputs": [
        {
          "internalType": "bytes4",
          "name": "interfaceId",
          "type": "bytes4"
        }
      ],
      "name": "supportsInterface",
      "outputs": [
        {
          "internalType": "bool",
          "name": "",
          "type": "bool"
        }
      ],
      "stateMutability": "view",
      "type": "function"
    },
    {
      "inputs": [],
      "name": "symbol",
      "outputs": [
        {
          "internalType": "string",
          "name": "",
          "type": "string"
        }
      ],
      "stateMutability": "view",
      "type": "function"
    },
    {
      "inputs": [
        {
          "internalType": "uint256",
          "name": "tokenId",
          "type": "uint256"
        }
      ],
      "name": "tokenURI",
      "outputs": [
        {
          "internalType": "string",
          "name": "",
          "type": "string"
        }
      ],
      "stateMutability": "view",
      "type": "function"
    },
    {
      "inputs": [
        {
          "internalType": "uint256",
          "name": "",
          "type": "uint256"
        }
      ],
      "name": "tokens",
      "outputs": [
        {
          "internalType": "address",
          "name": "owner",
          "type": "address"
        },
        {
          "internalType": "uint256",
          "name": "tokenID",
          "type": "uint256"
        },
        {
          "internalType": "uint256",
          "name": "eventID",
          "type": "uint256"
        },
        {
          "internalType": "string",
          "name": "winner",
          "type": "string"
        }
      ],
      "stateMutability": "view",
      "type": "function"
    },
    {
      "inputs": [
        {
          "internalType": "address",
          "name": "from",
          "type": "address"
        },
        {
          "internalType": "address",
          "name": "to",
          "type": "address"
        },
        {
          "internalType": "uint256",
          "name": "tokenId",
          "type": "uint256"
        }
      ],
      "name": "transferFrom",
      "outputs": [],
      "stateMutability": "nonpayable",
      "type": "function"
    },
    {
      "inputs": [
        {
          "internalType": "address",
          "name": "newOwner",
          "type": "address"
        }
      ],
      "name": "transferOwnership",
      "outputs": [],
      "stateMutability": "nonpayable",
      "type": "function"
    },
    {
      "inputs": [
        {
          "internalType": "address",
          "name": "owner",
          "type": "address"
        },
        {
          "internalType": "uint256",
          "name": "tokenID",
          "type": "uint256"
        }
      ],
      "name": "verifyTicket",
      "outputs": [
        {
          "internalType": "bool",
          "name": "",
          "type": "bool"
        }
      ],
      "stateMutability": "view",
      "type": "function"
    }
  ],
  "bytecode": "0x60c06040523480156200001157600080fd5b50738c7382f9d8f56b33781fe506e897a4f1e2d1725573326c977e6efc84e512bb9c30f76e30c160ed06fb6040518060400160405280600881526020017f4e465469636b65740000000000000000000000000000000000000000000000008152506040518060400160405280600381526020017f4e465400000000000000000000000000000000000000000000000000000000008152508160009080519060200190620000c09291906200024d565b508060019080519060200190620000d99291906200024d565b5050508173ffffffffffffffffffffffffffffffffffffffff1660a08173ffffffffffffffffffffffffffffffffffffffff1660601b815250508073ffffffffffffffffffffffffffffffffffffffff1660808173ffffffffffffffffffffffffffffffffffffffff1660601b8152505050506200016c620001606200017f60201b60201c565b6200018760201b60201c565b655af3107a4000600d8190555062000362565b600033905090565b6000600860009054906101000a900473ffffffffffffffffffffffffffffffffffffffff16905081600860006101000a81548173ffffffffffffffffffffffffffffffffffffffff021916908373ffffffffffffffffffffffffffffffffffffffff1602179055508173ffffffffffffffffffffffffffffffffffffffff168173ffffffffffffffffffffffffffffffffffffffff167f8be0079c531659141344cd1fd0a4f28419497f9722a3daafe3b4186f6b6457e060405160405180910390a35050565b8280546200025b90620002fd565b90600052602060002090601f0160209004810192826200027f5760008555620002cb565b82601f106200029a57805160ff1916838001178555620002cb565b82800160010185558215620002cb579182015b82811115620002ca578251825591602001919060010190620002ad565b5b509050620002da9190620002de565b5090565b5b80821115620002f9576000816000905550600101620002df565b5090565b600060028204905060018216806200031657607f821691505b602082108114156200032d576200032c62000333565b5b50919050565b7f4e487b7100000000000000000000000000000000000000000000000000000000600052602260045260246000fd5b60805160601c60a05160601c61576f6200039c600039600081816116470152612cd70152600081816119440152612c9b015261576f6000f3fe6080604052600436106101665760003560e01c8063715018a6116100d1578063c87b56dd1161008a578063e952f72511610064578063e952f72514610570578063e985e9c5146105ad578063f2fde38b146105ea578063f737d21d1461061357610166565b8063c87b56dd146104df578063dbdff2c11461051c578063e146fc541461054757610166565b8063715018a6146103f75780638da5cb5b1461040e57806394985ddd1461043957806395d89b4114610462578063a22cb4651461048d578063b88d4fde146104b657610166565b806323b872dd1161012357806323b872dd146102bb578063256d52f6146102e457806342842e0e146103145780634f64b2be1461033d5780636352211e1461037d57806370a08231146103ba57610166565b806301ffc9a71461016b57806306fdde03146101a8578063081812fc146101d3578063095ea7b3146102105780630b791430146102395780631619c6d31461027e575b600080fd5b34801561017757600080fd5b50610192600480360381019061018d91906139f8565b610650565b60405161019f91906144ff565b60405180910390f35b3480156101b457600080fd5b506101bd610732565b6040516101ca91906145a3565b60405180910390f35b3480156101df57600080fd5b506101fa60048036038101906101f59190613c64565b6107c4565b60405161020791906143e5565b60405180910390f35b34801561021c57600080fd5b5061023760048036038101906102329190613957565b610849565b005b34801561024557600080fd5b50610260600480360381019061025b9190613c64565b610961565b604051610275999897969594939291906145c5565b60405180910390f35b34801561028a57600080fd5b506102a560048036038101906102a09190613957565b610c77565b6040516102b291906144ff565b60405180910390f35b3480156102c757600080fd5b506102e260048036038101906102dd9190613851565b610cf7565b005b6102fe60048036038101906102f99190613c64565b610d57565b60405161030b9190614955565b60405180910390f35b34801561032057600080fd5b5061033b60048036038101906103369190613851565b611331565b005b34801561034957600080fd5b50610364600480360381019061035f9190613c64565b611351565b60405161037494939291906144b3565b60405180910390f35b34801561038957600080fd5b506103a4600480360381019061039f9190613c64565b611429565b6040516103b191906143e5565b60405180910390f35b3480156103c657600080fd5b506103e160048036038101906103dc91906137ec565b6114db565b6040516103ee9190614955565b60405180910390f35b34801561040357600080fd5b5061040c611593565b005b34801561041a57600080fd5b5061042361161b565b60405161043091906143e5565b60405180910390f35b34801561044557600080fd5b50610460600480360381019061045b91906139bc565b611645565b005b34801561046e57600080fd5b506104776116e1565b60405161048491906145a3565b60405180910390f35b34801561049957600080fd5b506104b460048036038101906104af919061391b565b611773565b005b3480156104c257600080fd5b506104dd60048036038101906104d891906138a0565b611789565b005b3480156104eb57600080fd5b5061050660048036038101906105019190613c64565b6117eb565b60405161051391906145a3565b60405180910390f35b34801561052857600080fd5b5061053161193d565b60405161053e919061451a565b60405180910390f35b34801561055357600080fd5b5061056e60048036038101906105699190613b63565b611a5f565b005b34801561057c57600080fd5b5061059760048036038101906105929190613a4a565b611c86565b6040516105a491906145a3565b60405180910390f35b3480156105b957600080fd5b506105d460048036038101906105cf9190613815565b611ce5565b6040516105e191906144ff565b60405180910390f35b3480156105f657600080fd5b50610611600480360381019061060c91906137ec565b611d79565b005b34801561061f57600080fd5b5061063a60048036038101906106359190613c64565b611e71565b6040516106479190614955565b60405180910390f35b60007f80ac58cd000000000000000000000000000000000000000000000000000000007bffffffffffffffffffffffffffffffffffffffffffffffffffffffff1916827bffffffffffffffffffffffffffffffffffffffffffffffffffffffff1916148061071b57507f5b5e139f000000000000000000000000000000000000000000000000000000007bffffffffffffffffffffffffffffffffffffffffffffffffffffffff1916827bffffffffffffffffffffffffffffffffffffffffffffffffffffffff1916145b8061072b575061072a826123d1565b5b9050919050565b60606000805461074190614c0f565b80601f016020809104026020016040519081016040528092919081815260200182805461076d90614c0f565b80156107ba5780601f1061078f576101008083540402835291602001916107ba565b820191906000526020600020905b81548152906001019060200180831161079d57829003601f168201915b5050505050905090565b60006107cf8261243b565b61080e576040517f08c379a000000000000000000000000000000000000000000000000000000000815260040161080590614855565b60405180910390fd5b6004600083815260200190815260200160002060009054906101000a900473ffffffffffffffffffffffffffffffffffffffff169050919050565b600061085482611429565b90508073ffffffffffffffffffffffffffffffffffffffff168373ffffffffffffffffffffffffffffffffffffffff1614156108c5576040517f08c379a00000000000000000000000000000000000000000000000000000000081526004016108bc906148d5565b60405180910390fd5b8073ffffffffffffffffffffffffffffffffffffffff166108e46124a7565b73ffffffffffffffffffffffffffffffffffffffff16148061091357506109128161090d6124a7565b611ce5565b5b610952576040517f08c379a000000000000000000000000000000000000000000000000000000000815260040161094990614795565b60405180910390fd5b61095c83836124af565b505050565b600a60205280600052604060002060009150905080600001805461098490614c0f565b80601f01602080910402602001604051908101604052809291908181526020018280546109b090614c0f565b80156109fd5780601f106109d2576101008083540402835291602001916109fd565b820191906000526020600020905b8154815290600101906020018083116109e057829003601f168201915b505050505090806001018054610a1290614c0f565b80601f0160208091040260200160405190810160405280929190818152602001828054610a3e90614c0f565b8015610a8b5780601f10610a6057610100808354040283529160200191610a8b565b820191906000526020600020905b815481529060010190602001808311610a6e57829003601f168201915b505050505090806002018054610aa090614c0f565b80601f0160208091040260200160405190810160405280929190818152602001828054610acc90614c0f565b8015610b195780601f10610aee57610100808354040283529160200191610b19565b820191906000526020600020905b815481529060010190602001808311610afc57829003601f168201915b505050505090806003018054610b2e90614c0f565b80601f0160208091040260200160405190810160405280929190818152602001828054610b5a90614c0f565b8015610ba75780601f10610b7c57610100808354040283529160200191610ba7565b820191906000526020600020905b815481529060010190602001808311610b8a57829003601f168201915b505050505090806004018054610bbc90614c0f565b80601f0160208091040260200160405190810160405280929190818152602001828054610be890614c0f565b8015610c355780601f10610c0a57610100808354040283529160200191610c35565b820191906000526020600020905b815481529060010190602001808311610c1857829003601f168201915b5050505050908060050154908060060154908060070154908060080160009054906101000a900473ffffffffffffffffffffffffffffffffffffffff16905089565b60008273ffffffffffffffffffffffffffffffffffffffff16600b600084815260200190815260200160002060000160009054906101000a900473ffffffffffffffffffffffffffffffffffffffff1673ffffffffffffffffffffffffffffffffffffffff161415610cec5760019050610cf1565b600090505b92915050565b610d08610d026124a7565b82612568565b610d47576040517f08c379a0000000000000000000000000000000000000000000000000000000008152600401610d3e906148f5565b60405180910390fd5b610d52838383612646565b505050565b600080600a60008481526020019081526020016000206006015411610db1576040517f08c379a0000000000000000000000000000000000000000000000000000000008152600401610da890614935565b60405180910390fd5b600a600083815260200190815260200160002060060154600a60008481526020019081526020016000206005015410610e1f576040517f08c379a0000000000000000000000000000000000000000000000000000000008152600401610e1690614915565b60405180910390fd5b6000600a600084815260200190815260200160002060050154600a600085815260200190815260200160002060070154610e599190614a3a565b90506001600a60008581526020019081526020016000206005016000828254610e829190614a3a565b9250508190555060405180608001604052803373ffffffffffffffffffffffffffffffffffffffff1681526020018281526020018481526020016040518060400160405280600581526020017f66616c7365000000000000000000000000000000000000000000000000000000815250815250600b600083815260200190815260200160002060008201518160000160006101000a81548173ffffffffffffffffffffffffffffffffffffffff021916908373ffffffffffffffffffffffffffffffffffffffff16021790555060208201518160010155604082015181600201556060820151816003019080519060200190610f7f9291906135d1565b50905050610f8d33826128ad565b6112ef816112ea600a60008781526020019081526020016000206000018054610fb590614c0f565b80601f0160208091040260200160405190810160405280929190818152602001828054610fe190614c0f565b801561102e5780601f106110035761010080835404028352916020019161102e565b820191906000526020600020905b81548152906001019060200180831161101157829003601f168201915b5050505050600a6000888152602001908152602001600020600101805461105490614c0f565b80601f016020809104026020016040519081016040528092919081815260200182805461108090614c0f565b80156110cd5780601f106110a2576101008083540402835291602001916110cd565b820191906000526020600020905b8154815290600101906020018083116110b057829003601f168201915b5050505050600a600089815260200190815260200160002060020180546110f390614c0f565b80601f016020809104026020016040519081016040528092919081815260200182805461111f90614c0f565b801561116c5780601f106111415761010080835404028352916020019161116c565b820191906000526020600020905b81548152906001019060200180831161114f57829003601f168201915b5050505050600a60008a8152602001908152602001600020600301805461119290614c0f565b80601f01602080910402602001604051908101604052809291908181526020018280546111be90614c0f565b801561120b5780601f106111e05761010080835404028352916020019161120b565b820191906000526020600020905b8154815290600101906020018083116111ee57829003601f168201915b5050505050600a60008b8152602001908152602001600020600401805461123190614c0f565b80601f016020809104026020016040519081016040528092919081815260200182805461125d90614c0f565b80156112aa5780601f1061127f576101008083540402835291602001916112aa565b820191906000526020600020905b81548152906001019060200180831161128d57829003601f168201915b50505050506040518060400160405280600581526020017f66616c7365000000000000000000000000000000000000000000000000000000815250611c86565b6128cb565b7fb7656808f0e04b4af7a20f7ef1caa7669f0d781f1ca4cba31a3ba467880766c9338260405161132092919061444c565b60405180910390a180915050919050565b61134c83838360405180602001604052806000815250611789565b505050565b600b6020528060005260406000206000915090508060000160009054906101000a900473ffffffffffffffffffffffffffffffffffffffff16908060010154908060020154908060030180546113a690614c0f565b80601f01602080910402602001604051908101604052809291908181526020018280546113d290614c0f565b801561141f5780601f106113f45761010080835404028352916020019161141f565b820191906000526020600020905b81548152906001019060200180831161140257829003601f168201915b5050505050905084565b6000806002600084815260200190815260200160002060009054906101000a900473ffffffffffffffffffffffffffffffffffffffff169050600073ffffffffffffffffffffffffffffffffffffffff168173ffffffffffffffffffffffffffffffffffffffff1614156114d2576040517f08c379a00000000000000000000000000000000000000000000000000000000081526004016114c9906147d5565b60405180910390fd5b80915050919050565b60008073ffffffffffffffffffffffffffffffffffffffff168273ffffffffffffffffffffffffffffffffffffffff16141561154c576040517f08c379a0000000000000000000000000000000000000000000000000000000008152600401611543906147b5565b60405180910390fd5b600360008373ffffffffffffffffffffffffffffffffffffffff1673ffffffffffffffffffffffffffffffffffffffff168152602001908152602001600020549050919050565b61159b6124a7565b73ffffffffffffffffffffffffffffffffffffffff166115b961161b565b73ffffffffffffffffffffffffffffffffffffffff161461160f576040517f08c379a000000000000000000000000000000000000000000000000000000000815260040161160690614875565b60405180910390fd5b611619600061293f565b565b6000600860009054906101000a900473ffffffffffffffffffffffffffffffffffffffff16905090565b7f000000000000000000000000000000000000000000000000000000000000000073ffffffffffffffffffffffffffffffffffffffff163373ffffffffffffffffffffffffffffffffffffffff16146116d3576040517f08c379a00000000000000000000000000000000000000000000000000000000081526004016116ca906148b5565b60405180910390fd5b6116dd8282612a05565b5050565b6060600180546116f090614c0f565b80601f016020809104026020016040519081016040528092919081815260200182805461171c90614c0f565b80156117695780601f1061173e57610100808354040283529160200191611769565b820191906000526020600020905b81548152906001019060200180831161174c57829003601f168201915b5050505050905090565b61178561177e6124a7565b8383612a10565b5050565b61179a6117946124a7565b83612568565b6117d9576040517f08c379a00000000000000000000000000000000000000000000000000000000081526004016117d0906148f5565b60405180910390fd5b6117e584848484612b7d565b50505050565b60606117f68261243b565b611835576040517f08c379a000000000000000000000000000000000000000000000000000000000815260040161182c90614835565b60405180910390fd5b600060066000848152602001908152602001600020805461185590614c0f565b80601f016020809104026020016040519081016040528092919081815260200182805461188190614c0f565b80156118ce5780601f106118a3576101008083540402835291602001916118ce565b820191906000526020600020905b8154815290600101906020018083116118b157829003601f168201915b5050505050905060006118df612bd9565b90506000815114156118f5578192505050611938565b60008251111561192a5780826040516020016119129291906142b8565b60405160208183030381529060405292505050611938565b61193384612bf0565b925050505b919050565b6000600d547f000000000000000000000000000000000000000000000000000000000000000073ffffffffffffffffffffffffffffffffffffffff166370a08231306040518263ffffffff1660e01b815260040161199b91906143e5565b60206040518083038186803b1580156119b357600080fd5b505afa1580156119c7573d6000803e3d6000fd5b505050506040513d601f19601f820116820180604052508101906119eb9190613c8d565b11611a2b576040517f08c379a0000000000000000000000000000000000000000000000000000000008152600401611a2290614755565b60405180910390fd5b611a5a7f6e75b569a01ef56d18cab6a8e71e6600d6ce853834d4a5748b720d06f878b3a460001b600d54612c97565b905090565b6000600190506000611a716009612df9565b1115611ac457600a6000611a856009612df9565b815260200190815260200160002060060154600a6000611aa56009612df9565b815260200190815260200160002060070154611ac19190614a3a565b90505b611ace6009612e07565b604051806101200160405280888152602001878152602001868152602001858152602001848152602001600081526020018381526020018281526020013373ffffffffffffffffffffffffffffffffffffffff16815250600a6000611b336009612df9565b81526020019081526020016000206000820151816000019080519060200190611b5d9291906135d1565b506020820151816001019080519060200190611b7a9291906135d1565b506040820151816002019080519060200190611b979291906135d1565b506060820151816003019080519060200190611bb49291906135d1565b506080820151816004019080519060200190611bd19291906135d1565b5060a0820151816005015560c0820151816006015560e082015181600701556101008201518160080160006101000a81548173ffffffffffffffffffffffffffffffffffffffff021916908373ffffffffffffffffffffffffffffffffffffffff1602179055509050507f7cfc5a0c32fcbc6c04d58abc530b3d5c69357bcc294a720a317e79285ad97d5433611c676009612df9565b604051611c7592919061444c565b60405180910390a150505050505050565b6060611cba878787878688604051602001611ca6969594939291906142dc565b604051602081830303815290604052612e1d565b604051602001611cca91906143c3565b60405160208183030381529060405290509695505050505050565b6000600560008473ffffffffffffffffffffffffffffffffffffffff1673ffffffffffffffffffffffffffffffffffffffff16815260200190815260200160002060008373ffffffffffffffffffffffffffffffffffffffff1673ffffffffffffffffffffffffffffffffffffffff16815260200190815260200160002060009054906101000a900460ff16905092915050565b611d816124a7565b73ffffffffffffffffffffffffffffffffffffffff16611d9f61161b565b73ffffffffffffffffffffffffffffffffffffffff1614611df5576040517f08c379a0000000000000000000000000000000000000000000000000000000008152600401611dec90614875565b60405180910390fd5b600073ffffffffffffffffffffffffffffffffffffffff168173ffffffffffffffffffffffffffffffffffffffff161415611e65576040517f08c379a0000000000000000000000000000000000000000000000000000000008152600401611e5c90614695565b60405180910390fd5b611e6e8161293f565b50565b600080600a60008481526020019081526020016000206005015411611ecb576040517f08c379a0000000000000000000000000000000000000000000000000000000008152600401611ec290614935565b60405180910390fd5b600a600083815260200190815260200160002060080160009054906101000a900473ffffffffffffffffffffffffffffffffffffffff1673ffffffffffffffffffffffffffffffffffffffff163373ffffffffffffffffffffffffffffffffffffffff1614611f6f576040517f08c379a0000000000000000000000000000000000000000000000000000000008152600401611f66906146f5565b60405180910390fd5b611f7761193d565b506000600a600084815260200190815260200160002060050154600c54611f9e9190614ccf565b600a600085815260200190815260200160002060070154611fbf9190614a3a565b90506123918161238c600a6000600b60008781526020019081526020016000206002015481526020019081526020016000206000018054611fff90614c0f565b80601f016020809104026020016040519081016040528092919081815260200182805461202b90614c0f565b80156120785780601f1061204d57610100808354040283529160200191612078565b820191906000526020600020905b81548152906001019060200180831161205b57829003601f168201915b5050505050600a6000600b600088815260200190815260200160002060020154815260200190815260200160002060010180546120b490614c0f565b80601f01602080910402602001604051908101604052809291908181526020018280546120e090614c0f565b801561212d5780601f106121025761010080835404028352916020019161212d565b820191906000526020600020905b81548152906001019060200180831161211057829003601f168201915b5050505050600a6000600b6000898152602001908152602001600020600201548152602001908152602001600020600201805461216990614c0f565b80601f016020809104026020016040519081016040528092919081815260200182805461219590614c0f565b80156121e25780601f106121b7576101008083540402835291602001916121e2565b820191906000526020600020905b8154815290600101906020018083116121c557829003601f168201915b5050505050600a6000600b60008a8152602001908152602001600020600201548152602001908152602001600020600301805461221e90614c0f565b80601f016020809104026020016040519081016040528092919081815260200182805461224a90614c0f565b80156122975780601f1061226c57610100808354040283529160200191612297565b820191906000526020600020905b81548152906001019060200180831161227a57829003601f168201915b5050505050600a6000600b60008b815260200190815260200160002060020154815260200190815260200160002060040180546122d390614c0f565b80601f01602080910402602001604051908101604052809291908181526020018280546122ff90614c0f565b801561234c5780601f106123215761010080835404028352916020019161234c565b820191906000526020600020905b81548152906001019060200180831161232f57829003601f168201915b50505050506040518060400160405280600481526020017f7472756500000000000000000000000000000000000000000000000000000000815250611c86565b6128cb565b7fe800db415a168e55a197cf955cb893493214a645a5d6745f5bbe688b5b52c6a9816040516123c09190614955565b60405180910390a180915050919050565b60007f01ffc9a7000000000000000000000000000000000000000000000000000000007bffffffffffffffffffffffffffffffffffffffffffffffffffffffff1916827bffffffffffffffffffffffffffffffffffffffffffffffffffffffff1916149050919050565b60008073ffffffffffffffffffffffffffffffffffffffff166002600084815260200190815260200160002060009054906101000a900473ffffffffffffffffffffffffffffffffffffffff1673ffffffffffffffffffffffffffffffffffffffff1614159050919050565b600033905090565b816004600083815260200190815260200160002060006101000a81548173ffffffffffffffffffffffffffffffffffffffff021916908373ffffffffffffffffffffffffffffffffffffffff160217905550808273ffffffffffffffffffffffffffffffffffffffff1661252283611429565b73ffffffffffffffffffffffffffffffffffffffff167f8c5be1e5ebec7d5bd14f71427d1e84f3dd0314c0f7b2291e5b200ac8c7c3b92560405160405180910390a45050565b60006125738261243b565b6125b2576040517f08c379a00000000000000000000000000000000000000000000000000000000081526004016125a990614775565b60405180910390fd5b60006125bd83611429565b90508073ffffffffffffffffffffffffffffffffffffffff168473ffffffffffffffffffffffffffffffffffffffff16148061262c57508373ffffffffffffffffffffffffffffffffffffffff16612614846107c4565b73ffffffffffffffffffffffffffffffffffffffff16145b8061263d575061263c8185611ce5565b5b91505092915050565b8273ffffffffffffffffffffffffffffffffffffffff1661266682611429565b73ffffffffffffffffffffffffffffffffffffffff16146126bc576040517f08c379a00000000000000000000000000000000000000000000000000000000081526004016126b3906146b5565b60405180910390fd5b600073ffffffffffffffffffffffffffffffffffffffff168273ffffffffffffffffffffffffffffffffffffffff16141561272c576040517f08c379a000000000000000000000000000000000000000000000000000000000815260040161272390614715565b60405180910390fd5b612737838383612fbc565b6127426000826124af565b6001600360008573ffffffffffffffffffffffffffffffffffffffff1673ffffffffffffffffffffffffffffffffffffffff16815260200190815260200160002060008282546127929190614b1b565b925050819055506001600360008473ffffffffffffffffffffffffffffffffffffffff1673ffffffffffffffffffffffffffffffffffffffff16815260200190815260200160002060008282546127e99190614a3a565b92505081905550816002600083815260200190815260200160002060006101000a81548173ffffffffffffffffffffffffffffffffffffffff021916908373ffffffffffffffffffffffffffffffffffffffff160217905550808273ffffffffffffffffffffffffffffffffffffffff168473ffffffffffffffffffffffffffffffffffffffff167fddf252ad1be2c89b69c2b068fc378daa952ba7f163c4a11628f55a4df523b3ef60405160405180910390a46128a8838383612fc1565b505050565b6128c7828260405180602001604052806000815250612fc6565b5050565b6128d48261243b565b612913576040517f08c379a000000000000000000000000000000000000000000000000000000000815260040161290a906147f5565b60405180910390fd5b8060066000848152602001908152602001600020908051906020019061293a9291906135d1565b505050565b6000600860009054906101000a900473ffffffffffffffffffffffffffffffffffffffff16905081600860006101000a81548173ffffffffffffffffffffffffffffffffffffffff021916908373ffffffffffffffffffffffffffffffffffffffff1602179055508173ffffffffffffffffffffffffffffffffffffffff168173ffffffffffffffffffffffffffffffffffffffff167f8be0079c531659141344cd1fd0a4f28419497f9722a3daafe3b4186f6b6457e060405160405180910390a35050565b80600c819055505050565b8173ffffffffffffffffffffffffffffffffffffffff168373ffffffffffffffffffffffffffffffffffffffff161415612a7f576040517f08c379a0000000000000000000000000000000000000000000000000000000008152600401612a7690614735565b60405180910390fd5b80600560008573ffffffffffffffffffffffffffffffffffffffff1673ffffffffffffffffffffffffffffffffffffffff16815260200190815260200160002060008473ffffffffffffffffffffffffffffffffffffffff1673ffffffffffffffffffffffffffffffffffffffff16815260200190815260200160002060006101000a81548160ff0219169083151502179055508173ffffffffffffffffffffffffffffffffffffffff168373ffffffffffffffffffffffffffffffffffffffff167f17307eab39ab6107e8899845ad3d59bd9653f200f220920489ca2b5937696c3183604051612b7091906144ff565b60405180910390a3505050565b612b88848484612646565b612b9484848484613021565b612bd3576040517f08c379a0000000000000000000000000000000000000000000000000000000008152600401612bca90614675565b60405180910390fd5b50505050565b606060405180602001604052806000815250905090565b6060612bfb8261243b565b612c3a576040517f08c379a0000000000000000000000000000000000000000000000000000000008152600401612c3190614895565b60405180910390fd5b6000612c44612bd9565b90506000815111612c645760405180602001604052806000815250612c8f565b80612c6e846131b8565b604051602001612c7f9291906142b8565b6040516020818303038152906040525b915050919050565b60007f000000000000000000000000000000000000000000000000000000000000000073ffffffffffffffffffffffffffffffffffffffff16634000aea07f000000000000000000000000000000000000000000000000000000000000000084866000604051602001612d0b929190614535565b6040516020818303038152906040526040518463ffffffff1660e01b8152600401612d3893929190614475565b602060405180830381600087803b158015612d5257600080fd5b505af1158015612d66573d6000803e3d6000fd5b505050506040513d601f19601f82011682018060405250810190612d8a9190613993565b506000612dad846000306007600089815260200190815260200160002054613365565b905060016007600086815260200190815260200160002054612dcf9190614a3a565b6007600086815260200190815260200160002081905550612df084826133a1565b91505092915050565b600081600001549050919050565b6001816000016000828254019250508190555050565b6060600082511415612e4057604051806020016040528060008152509050612fb7565b60006040518060600160405280604081526020016156fa6040913990506000600360028551612e6f9190614a3a565b612e799190614a90565b6004612e859190614ac1565b90506000602082612e969190614a3a565b67ffffffffffffffff811115612ed5577f4e487b7100000000000000000000000000000000000000000000000000000000600052604160045260246000fd5b6040519080825280601f01601f191660200182016040528015612f075781602001600182028036833780820191505090505b509050818152600183018586518101602084015b81831015612f76576003830192508251603f8160121c168501518253600182019150603f81600c1c168501518253600182019150603f8160061c168501518253600182019150603f8116850151825360018201915050612f1b565b600389510660018114612f905760028114612fa057612fab565b613d3d60f01b6002830352612fab565b603d60f81b60018303525b50505050508093505050505b919050565b505050565b505050565b612fd083836133d4565b612fdd6000848484613021565b61301c576040517f08c379a000000000000000000000000000000000000000000000000000000000815260040161301390614675565b60405180910390fd5b505050565b60006130428473ffffffffffffffffffffffffffffffffffffffff166135ae565b156131ab578373ffffffffffffffffffffffffffffffffffffffff1663150b7a0261306b6124a7565b8786866040518563ffffffff1660e01b815260040161308d9493929190614400565b602060405180830381600087803b1580156130a757600080fd5b505af19250505080156130d857506040513d601f19601f820116820180604052508101906130d59190613a21565b60015b61315b573d8060008114613108576040519150601f19603f3d011682016040523d82523d6000602084013e61310d565b606091505b50600081511415613153576040517f08c379a000000000000000000000000000000000000000000000000000000000815260040161314a90614675565b60405180910390fd5b805181602001fd5b63150b7a0260e01b7bffffffffffffffffffffffffffffffffffffffffffffffffffffffff1916817bffffffffffffffffffffffffffffffffffffffffffffffffffffffff1916149150506131b0565b600190505b949350505050565b60606000821415613200576040518060400160405280600181526020017f30000000000000000000000000000000000000000000000000000000000000008152509050613360565b600082905060005b6000821461323257808061321b90614c72565b915050600a8261322b9190614a90565b9150613208565b60008167ffffffffffffffff811115613274577f4e487b7100000000000000000000000000000000000000000000000000000000600052604160045260246000fd5b6040519080825280601f01601f1916602001820160405280156132a65781602001600182028036833780820191505090505b5090505b60008514613359576001826132bf9190614b1b565b9150600a856132ce9190614ccf565b60306132da9190614a3a565b60f81b818381518110613316577f4e487b7100000000000000000000000000000000000000000000000000000000600052603260045260246000fd5b60200101907effffffffffffffffffffffffffffffffffffffffffffffffffffffffffffff1916908160001a905350600a856133529190614a90565b94506132aa565b8093505050505b919050565b60008484848460405160200161337e949392919061455e565b6040516020818303038152906040528051906020012060001c9050949350505050565b600082826040516020016133b692919061428c565b60405160208183030381529060405280519060200120905092915050565b600073ffffffffffffffffffffffffffffffffffffffff168273ffffffffffffffffffffffffffffffffffffffff161415613444576040517f08c379a000000000000000000000000000000000000000000000000000000000815260040161343b90614815565b60405180910390fd5b61344d8161243b565b1561348d576040517f08c379a0000000000000000000000000000000000000000000000000000000008152600401613484906146d5565b60405180910390fd5b61349960008383612fbc565b6001600360008473ffffffffffffffffffffffffffffffffffffffff1673ffffffffffffffffffffffffffffffffffffffff16815260200190815260200160002060008282546134e99190614a3a565b92505081905550816002600083815260200190815260200160002060006101000a81548173ffffffffffffffffffffffffffffffffffffffff021916908373ffffffffffffffffffffffffffffffffffffffff160217905550808273ffffffffffffffffffffffffffffffffffffffff16600073ffffffffffffffffffffffffffffffffffffffff167fddf252ad1be2c89b69c2b068fc378daa952ba7f163c4a11628f55a4df523b3ef60405160405180910390a46135aa60008383612fc1565b5050565b6000808273ffffffffffffffffffffffffffffffffffffffff163b119050919050565b8280546135dd90614c0f565b90600052602060002090601f0160209004810192826135ff5760008555613646565b82601f1061361857805160ff1916838001178555613646565b82800160010185558215613646579182015b8281111561364557825182559160200191906001019061362a565b5b5090506136539190613657565b5090565b5b80821115613670576000816000905550600101613658565b5090565b600061368761368284614995565b614970565b90508281526020810184848401111561369f57600080fd5b6136aa848285614bcd565b509392505050565b60006136c56136c0846149c6565b614970565b9050828152602081018484840111156136dd57600080fd5b6136e8848285614bcd565b509392505050565b6000813590506136ff81615686565b92915050565b6000813590506137148161569d565b92915050565b6000815190506137298161569d565b92915050565b60008135905061373e816156b4565b92915050565b600081359050613753816156cb565b92915050565b600081519050613768816156cb565b92915050565b600082601f83011261377f57600080fd5b813561378f848260208601613674565b91505092915050565b600082601f8301126137a957600080fd5b81356137b98482602086016136b2565b91505092915050565b6000813590506137d1816156e2565b92915050565b6000815190506137e6816156e2565b92915050565b6000602082840312156137fe57600080fd5b600061380c848285016136f0565b91505092915050565b6000806040838503121561382857600080fd5b6000613836858286016136f0565b9250506020613847858286016136f0565b9150509250929050565b60008060006060848603121561386657600080fd5b6000613874868287016136f0565b9350506020613885868287016136f0565b9250506040613896868287016137c2565b9150509250925092565b600080600080608085870312156138b657600080fd5b60006138c4878288016136f0565b94505060206138d5878288016136f0565b93505060406138e6878288016137c2565b925050606085013567ffffffffffffffff81111561390357600080fd5b61390f8782880161376e565b91505092959194509250565b6000806040838503121561392e57600080fd5b600061393c858286016136f0565b925050602061394d85828601613705565b9150509250929050565b6000806040838503121561396a57600080fd5b6000613978858286016136f0565b9250506020613989858286016137c2565b9150509250929050565b6000602082840312156139a557600080fd5b60006139b38482850161371a565b91505092915050565b600080604083850312156139cf57600080fd5b60006139dd8582860161372f565b92505060206139ee858286016137c2565b9150509250929050565b600060208284031215613a0a57600080fd5b6000613a1884828501613744565b91505092915050565b600060208284031215613a3357600080fd5b6000613a4184828501613759565b91505092915050565b60008060008060008060c08789031215613a6357600080fd5b600087013567ffffffffffffffff811115613a7d57600080fd5b613a8989828a01613798565b965050602087013567ffffffffffffffff811115613aa657600080fd5b613ab289828a01613798565b955050604087013567ffffffffffffffff811115613acf57600080fd5b613adb89828a01613798565b945050606087013567ffffffffffffffff811115613af857600080fd5b613b0489828a01613798565b935050608087013567ffffffffffffffff811115613b2157600080fd5b613b2d89828a01613798565b92505060a087013567ffffffffffffffff811115613b4a57600080fd5b613b5689828a01613798565b9150509295509295509295565b60008060008060008060c08789031215613b7c57600080fd5b600087013567ffffffffffffffff811115613b9657600080fd5b613ba289828a01613798565b965050602087013567ffffffffffffffff811115613bbf57600080fd5b613bcb89828a01613798565b955050604087013567ffffffffffffffff811115613be857600080fd5b613bf489828a01613798565b945050606087013567ffffffffffffffff811115613c1157600080fd5b613c1d89828a01613798565b935050608087013567ffffffffffffffff811115613c3a57600080fd5b613c4689828a01613798565b92505060a0613c5789828a016137c2565b9150509295509295509295565b600060208284031215613c7657600080fd5b6000613c84848285016137c2565b91505092915050565b600060208284031215613c9f57600080fd5b6000613cad848285016137d7565b91505092915050565b613cbf81614b4f565b82525050565b613cce81614b61565b82525050565b613cdd81614b6d565b82525050565b613cf4613cef82614b6d565b614cbb565b82525050565b6000613d05826149f7565b613d0f8185614a0d565b9350613d1f818560208601614bdc565b613d2881614dbc565b840191505092915050565b6000613d3e82614a02565b613d488185614a1e565b9350613d58818560208601614bdc565b613d6181614dbc565b840191505092915050565b6000613d7782614a02565b613d818185614a2f565b9350613d91818560208601614bdc565b80840191505092915050565b6000613daa600983614a2f565b9150613db582614dcd565b600982019050919050565b6000613dcd603283614a1e565b9150613dd882614df6565b604082019050919050565b6000613df0602683614a1e565b9150613dfb82614e45565b604082019050919050565b6000613e13601e83614a2f565b9150613e1e82614e94565b601e82019050919050565b6000613e36602583614a1e565b9150613e4182614ebd565b604082019050919050565b6000613e59601c83614a1e565b9150613e6482614f0c565b602082019050919050565b6000613e7c602383614a1e565b9150613e8782614f35565b604082019050919050565b6000613e9f602483614a1e565b9150613eaa82614f84565b604082019050919050565b6000613ec2601983614a1e565b9150613ecd82614fd3565b602082019050919050565b6000613ee5602b83614a1e565b9150613ef082614ffc565b604082019050919050565b6000613f08601e83614a2f565b9150613f138261504b565b601e82019050919050565b6000613f2b602c83614a1e565b9150613f3682615074565b604082019050919050565b6000613f4e603883614a1e565b9150613f59826150c3565b604082019050919050565b6000613f71602a83614a1e565b9150613f7c82615112565b604082019050919050565b6000613f94602983614a1e565b9150613f9f82615161565b604082019050919050565b6000613fb7602e83614a1e565b9150613fc2826151b0565b604082019050919050565b6000613fda605e83614a2f565b9150613fe5826151ff565b605e82019050919050565b6000613ffd600283614a2f565b915061400882615274565b600282019050919050565b6000614020602083614a1e565b915061402b8261529d565b602082019050919050565b6000614043603183614a1e565b915061404e826152c6565b604082019050919050565b6000614066602c83614a1e565b915061407182615315565b604082019050919050565b6000614089602a83614a2f565b915061409482615364565b602a82019050919050565b60006140ac602083614a1e565b91506140b7826153b3565b602082019050919050565b60006140cf602f83614a1e565b91506140da826153dc565b604082019050919050565b60006140f2600583614a2f565b91506140fd8261542b565b600582019050919050565b6000614115601f83614a1e565b915061412082615454565b602082019050919050565b6000614138603383614a2f565b91506141438261547d565b603382019050919050565b600061415b602183614a1e565b9150614166826154cc565b604082019050919050565b600061417e601d83614a2f565b91506141898261551b565b601d82019050919050565b60006141a1600483614a2f565b91506141ac82615544565b600482019050919050565b60006141c4603183614a1e565b91506141cf8261556d565b604082019050919050565b60006141e7602b83614a2f565b91506141f2826155bc565b602b82019050919050565b600061420a601083614a1e565b91506142158261560b565b602082019050919050565b600061422d600c83614a2f565b915061423882615634565b600c82019050919050565b6000614250600d83614a1e565b915061425b8261565d565b602082019050919050565b61426f81614bc3565b82525050565b61428661428182614bc3565b614cc5565b82525050565b60006142988285613ce3565b6020820191506142a88284614275565b6020820191508190509392505050565b60006142c48285613d6c565b91506142d08284613d6c565b91508190509392505050565b60006142e782613d9d565b91506142f38289613d6c565b91506142fe82614220565b915061430982613fcd565b91506143148261412b565b91506143208288613d6c565b915061432b82614194565b915061433682613efb565b91506143428287613d6c565b915061434d82614194565b915061435882613e06565b91506143648286613d6c565b915061436f82614194565b915061437a8261407c565b91506143868285613d6c565b9150614391826140e5565b915061439c826141da565b91506143a88284613d6c565b91506143b382613ff0565b9150819050979650505050505050565b60006143ce82614171565b91506143da8284613d6c565b915081905092915050565b60006020820190506143fa6000830184613cb6565b92915050565b60006080820190506144156000830187613cb6565b6144226020830186613cb6565b61442f6040830185614266565b81810360608301526144418184613cfa565b905095945050505050565b60006040820190506144616000830185613cb6565b61446e6020830184614266565b9392505050565b600060608201905061448a6000830186613cb6565b6144976020830185614266565b81810360408301526144a98184613cfa565b9050949350505050565b60006080820190506144c86000830187613cb6565b6144d56020830186614266565b6144e26040830185614266565b81810360608301526144f48184613d33565b905095945050505050565b60006020820190506145146000830184613cc5565b92915050565b600060208201905061452f6000830184613cd4565b92915050565b600060408201905061454a6000830185613cd4565b6145576020830184614266565b9392505050565b60006080820190506145736000830187613cd4565b6145806020830186614266565b61458d6040830185613cb6565b61459a6060830184614266565b95945050505050565b600060208201905081810360008301526145bd8184613d33565b905092915050565b60006101208201905081810360008301526145e0818c613d33565b905081810360208301526145f4818b613d33565b90508181036040830152614608818a613d33565b9050818103606083015261461c8189613d33565b905081810360808301526146308188613d33565b905061463f60a0830187614266565b61464c60c0830186614266565b61465960e0830185614266565b614667610100830184613cb6565b9a9950505050505050505050565b6000602082019050818103600083015261468e81613dc0565b9050919050565b600060208201905081810360008301526146ae81613de3565b9050919050565b600060208201905081810360008301526146ce81613e29565b9050919050565b600060208201905081810360008301526146ee81613e4c565b9050919050565b6000602082019050818103600083015261470e81613e6f565b9050919050565b6000602082019050818103600083015261472e81613e92565b9050919050565b6000602082019050818103600083015261474e81613eb5565b9050919050565b6000602082019050818103600083015261476e81613ed8565b9050919050565b6000602082019050818103600083015261478e81613f1e565b9050919050565b600060208201905081810360008301526147ae81613f41565b9050919050565b600060208201905081810360008301526147ce81613f64565b9050919050565b600060208201905081810360008301526147ee81613f87565b9050919050565b6000602082019050818103600083015261480e81613faa565b9050919050565b6000602082019050818103600083015261482e81614013565b9050919050565b6000602082019050818103600083015261484e81614036565b9050919050565b6000602082019050818103600083015261486e81614059565b9050919050565b6000602082019050818103600083015261488e8161409f565b9050919050565b600060208201905081810360008301526148ae816140c2565b9050919050565b600060208201905081810360008301526148ce81614108565b9050919050565b600060208201905081810360008301526148ee8161414e565b9050919050565b6000602082019050818103600083015261490e816141b7565b9050919050565b6000602082019050818103600083015261492e816141fd565b9050919050565b6000602082019050818103600083015261494e81614243565b9050919050565b600060208201905061496a6000830184614266565b92915050565b600061497a61498b565b90506149868282614c41565b919050565b6000604051905090565b600067ffffffffffffffff8211156149b0576149af614d8d565b5b6149b982614dbc565b9050602081019050919050565b600067ffffffffffffffff8211156149e1576149e0614d8d565b5b6149ea82614dbc565b9050602081019050919050565b600081519050919050565b600081519050919050565b600082825260208201905092915050565b600082825260208201905092915050565b600081905092915050565b6000614a4582614bc3565b9150614a5083614bc3565b9250827fffffffffffffffffffffffffffffffffffffffffffffffffffffffffffffffff03821115614a8557614a84614d00565b5b828201905092915050565b6000614a9b82614bc3565b9150614aa683614bc3565b925082614ab657614ab5614d2f565b5b828204905092915050565b6000614acc82614bc3565b9150614ad783614bc3565b9250817fffffffffffffffffffffffffffffffffffffffffffffffffffffffffffffffff0483118215151615614b1057614b0f614d00565b5b828202905092915050565b6000614b2682614bc3565b9150614b3183614bc3565b925082821015614b4457614b43614d00565b5b828203905092915050565b6000614b5a82614ba3565b9050919050565b60008115159050919050565b6000819050919050565b60007fffffffff0000000000000000000000000000000000000000000000000000000082169050919050565b600073ffffffffffffffffffffffffffffffffffffffff82169050919050565b6000819050919050565b82818337600083830152505050565b60005b83811015614bfa578082015181840152602081019050614bdf565b83811115614c09576000848401525b50505050565b60006002820490506001821680614c2757607f821691505b60208210811415614c3b57614c3a614d5e565b5b50919050565b614c4a82614dbc565b810181811067ffffffffffffffff82111715614c6957614c68614d8d565b5b80604052505050565b6000614c7d82614bc3565b91507fffffffffffffffffffffffffffffffffffffffffffffffffffffffffffffffff821415614cb057614caf614d00565b5b600182019050919050565b6000819050919050565b6000819050919050565b6000614cda82614bc3565b9150614ce583614bc3565b925082614cf557614cf4614d2f565b5b828206905092915050565b7f4e487b7100000000000000000000000000000000000000000000000000000000600052601160045260246000fd5b7f4e487b7100000000000000000000000000000000000000000000000000000000600052601260045260246000fd5b7f4e487b7100000000000000000000000000000000000000000000000000000000600052602260045260246000fd5b7f4e487b7100000000000000000000000000000000000000000000000000000000600052604160045260246000fd5b6000601f19601f8301169050919050565b7f7b226e616d65223a220000000000000000000000000000000000000000000000600082015250565b7f4552433732313a207472616e7366657220746f206e6f6e20455243373231526560008201527f63656976657220696d706c656d656e7465720000000000000000000000000000602082015250565b7f4f776e61626c653a206e6577206f776e657220697320746865207a65726f206160008201527f6464726573730000000000000000000000000000000000000000000000000000602082015250565b7f7b2274726169745f74797065223a2254696d65222c2276616c7565223a220000600082015250565b7f4552433732313a207472616e736665722066726f6d20696e636f72726563742060008201527f6f776e6572000000000000000000000000000000000000000000000000000000602082015250565b7f4552433732313a20746f6b656e20616c7265616479206d696e74656400000000600082015250565b7f4f6e6c7920546865204576656e742043726561746f722043616e20446f20546860008201527f6973210000000000000000000000000000000000000000000000000000000000602082015250565b7f4552433732313a207472616e7366657220746f20746865207a65726f2061646460008201527f7265737300000000000000000000000000000000000000000000000000000000602082015250565b7f4552433732313a20617070726f766520746f2063616c6c657200000000000000600082015250565b7f4e6f7420656e6f756768204c494e4b202d2066696c6c20636f6e74726163742060008201527f7769746820666175636574000000000000000000000000000000000000000000602082015250565b7f7b2274726169745f74797065223a2244617465222c2276616c7565223a220000600082015250565b7f4552433732313a206f70657261746f7220717565727920666f72206e6f6e657860008201527f697374656e7420746f6b656e0000000000000000000000000000000000000000602082015250565b7f4552433732313a20617070726f76652063616c6c6572206973206e6f74206f7760008201527f6e6572206e6f7220617070726f76656420666f7220616c6c0000000000000000602082015250565b7f4552433732313a2062616c616e636520717565727920666f7220746865207a6560008201527f726f206164647265737300000000000000000000000000000000000000000000602082015250565b7f4552433732313a206f776e657220717565727920666f72206e6f6e657869737460008201527f656e7420746f6b656e0000000000000000000000000000000000000000000000602082015250565b7f45524337323155524953746f726167653a2055524920736574206f66206e6f6e60008201527f6578697374656e7420746f6b656e000000000000000000000000000000000000602082015250565b7f226465736372697074696f6e223a2241207469636b657420736563757265642060008201527f6f6e2074686520706f6c79676f6e20626c6f636b636861696e2c2067656e657260208201527f6174656420627920746865204e465469636b657473207465616d2e222c200000604082015250565b7f227d000000000000000000000000000000000000000000000000000000000000600082015250565b7f4552433732313a206d696e7420746f20746865207a65726f2061646472657373600082015250565b7f45524337323155524953746f726167653a2055524920717565727920666f722060008201527f6e6f6e6578697374656e7420746f6b656e000000000000000000000000000000602082015250565b7f4552433732313a20617070726f76656420717565727920666f72206e6f6e657860008201527f697374656e7420746f6b656e0000000000000000000000000000000000000000602082015250565b7f7b2274726169745f74797065223a2257696e6e696e67205469636b65743f222c60008201527f2276616c7565223a202200000000000000000000000000000000000000000000602082015250565b7f4f776e61626c653a2063616c6c6572206973206e6f7420746865206f776e6572600082015250565b7f4552433732314d657461646174613a2055524920717565727920666f72206e6f60008201527f6e6578697374656e7420746f6b656e0000000000000000000000000000000000602082015250565b7f227d5d2c20000000000000000000000000000000000000000000000000000000600082015250565b7f4f6e6c7920565246436f6f7264696e61746f722063616e2066756c66696c6c00600082015250565b7f2261747472696275746573223a5b7b2274726169745f74797065223a2256656e60008201527f646f72204e616d65222c2276616c7565223a2200000000000000000000000000602082015250565b7f4552433732313a20617070726f76616c20746f2063757272656e74206f776e6560008201527f7200000000000000000000000000000000000000000000000000000000000000602082015250565b7f646174613a6170706c69636174696f6e2f6a736f6e3b6261736536342c000000600082015250565b7f227d2c2000000000000000000000000000000000000000000000000000000000600082015250565b7f4552433732313a207472616e736665722063616c6c6572206973206e6f74206f60008201527f776e6572206e6f7220617070726f766564000000000000000000000000000000602082015250565b7f22696d616765223a2268747470733a2f2f676174657761792e70696e6174612e60008201527f636c6f75642f697066732f000000000000000000000000000000000000000000602082015250565b7f5469636b65747320536f6c64204f757400000000000000000000000000000000600082015250565b7f204e465469636b6574222c200000000000000000000000000000000000000000600082015250565b7f496e76616c6964204576656e7400000000000000000000000000000000000000600082015250565b61568f81614b4f565b811461569a57600080fd5b50565b6156a681614b61565b81146156b157600080fd5b50565b6156bd81614b6d565b81146156c857600080fd5b50565b6156d481614b77565b81146156df57600080fd5b50565b6156eb81614bc3565b81146156f657600080fd5b5056fe4142434445464748494a4b4c4d4e4f505152535455565758595a6162636465666768696a6b6c6d6e6f707172737475767778797a303132333435363738392b2fa26469706673582212207469e801afc8e3f5862dc8ef9856f32b939141d51f8842696daa0a08178a5bce64736f6c63430008010033",
  "linkReferences": {},
  "deployedLinkReferences": {}
}